:060000000A128A110C280F
:10000800FE00030EF4000A08F5000A128A111528EA
:100018000A128A110F28F601F70183010A128A11C0
:10002800DE28831203138C1D1A281B286D2814122E
:10003800141B1F2820282428941F232824282B2811
:100048001308F3007308F600141394131416831698
:100058000313941A302831284928141934283528CC
:100068004928831203131308F3007308F6008C1150
:10007800141683160313141C422843283D28A6305F
:10008800F300F30B452800006A28941A4C284D28E1
:100098006A28141D502851286A288312031313084C
:1000A800F3007308F6008316031314108312031366
:1000B800060893001416A630F300F30B612800001D
:1000C80083160313141869286A28642883120313F3
:1000D8008C110C1F702871287B280C1300300A1211
:1000E8008A11A5200A128A11831203138600750843
:1000F8008A00740E8300FE0E7E0E0900831203131D
:100108001F139F17831603131F129F12C3308312E6
:1001180003139F05831603139F13831203131F14DE
:100128000C13831603130C170B178B17203083122D
:100138000313A000A00B9E280000831203139F1432
:100148000800F1002130F000F00BA8287108F00039
:10015800F00DF00D831203131F087006C3397006E3
:100168009F001E08F0007008F2002130F000F00B2C
:10017800BB28831203139F14720808008312031309
:10018800A00020088316031393003630831203134C
:100198009400803083160313940001309100871572
:1001A80007168B170B17831203138C11831603136F
:1001B8008C1508000A128A1116210A128A110A12CD
:1001C8008A112A210A128A110A128A1182200A1215
:1001D8008A1150300A128A11C2200A128A11F32891
:0601E8000A128A110C2826
:1002000001308A000408840A8207003450344F34D5
:100210005434203431343A342034003450344F34A0
:100220005434203432343A342034003401308316CC
:1002300003138500860189018801013083160317A5
:1002400088008901831203138501860187018801D3
:1002500089010800831603130F168F160F17E83055
:040260008B00080007
:04400E00D420FF3F7C
:00000001FF
