:020000040000FA
:100000000A128A11F32FFF1B0D2883137F18831701
:100010000008840A0319FF0A080000308A00040857
:10002000840A82070034013400340A340034643412
:100030000034E83403341034273425346434203455
:100040002534633425346334203425346434203437
:10005000253464342034253464340A34003449347B
:100060005F344C3452345F344D345F344D3461343A
:0C00700067346E34653474345934003445
:1001EA00F00070088312031388000800640080017D
:1001FA00840A0406031900340406FC280A128A1128
:10020A001F210A128A1183160313111408000A12F5
:10021A008A111F210A128A11831603131115080065
:10022A000A128A111F210A128A11700883120313F3
:10023A0093000800831603131419242925291F295A
:10024A0011081F39031D2A292B291F290800F0002C
:10025A0083160313981C322933292D298312031379
:10026A000C1E382939293B29700899000800F20028
:10027A0083120313071472080A128A11F5200A124C
:10028A008A118312031387141A30F100F10B4B29D8
:10029A0000008312031387100800F300831203136C
:1002AA00071073080A128A11F5200A128A1183129A
:1002BA00031387140B30F2006230F100F10B63294B
:1002CA00F20B632900008312031387100800F2005F
:1002DA007A297208840000080A128A112C210A124B
:1002EA008A110130F1007108F20772088400831341
:1002FA000008031D812982296E29831203130C1E0B
:10030A00872988298A290D3099000800F600760382
:10031A00031D902991299D2974087F3EF5007508CF
:10032A00F70077080A128A1152210A128A11AE2995
:10033A0002307606031DA229A329AE297408BF3EFE
:10034A00F5007508F70077080A128A1152210A1275
:10035A008A1108000A128A111F210A128A118316A9
:10036A00031391150A128A111F210A128A11831284
:10037A0003131308F200F3017208F4007308F5007E
:10038A000A128A111F210A128A1170037104031DAD
:10039A00CF29D029D429831603139112D72983167A
:1003AA000313911611167508F1007408F00008007D
:1003BA0028308312031394008316031391018312C6
:1003CA0003134608CA004708CB004808CC0049086E
:1003DA00CD0002300310CA0DCB0DCC0DCD0DFF3E62
:1003EA00031DEF294D08F3004C08F2004B08F100F9
:1003FA004A08F0000030F7007A30F6001230F500B3
:10040A000030F4000A128A1126230A128A1170088F
:10041A00FF3E8316031393009401871507160800FD
:10042A007808790403191A2A1B2A4A2AFD01FD0AA7
:10043A00292A01300310F80DF90DFF3E031D1F2A6A
:10044A000130FC007C08FD07F91F2C2A2D2A1E2AE0
:10045A0079087B02031D332A78087A02031C362A9C
:10046A00372A3D2A7808FA027908031CFB03FB02A3
:10047A0001300310F90CF80CFF3E031D3E2A01302F
:10048A00FD02031D492A4A2A2D2A7B08F9007A0807
:10049A00F8000800F801F901742A78087307F600D1
:1004AA007408F5000318F50AF81F5C2AF5037508A5
:1004BA00F700770883120313FF00760884000A12F4
:1004CA008A1103200A128A110A128A113C210A127D
:1004DA008A110130F8070318F90A0030F907780879
:1004EA007307F6007408F5000318F50AF81F7E2A48
:1004FA00F5037508F700770883120313FF007608DF
:10050A0084000A128A1103200A128A11003A031D72
:10051A008F2A902A522A0800F501F6017008710400
:10052A000319982A992AD02AF701F70AA72A01302B
:10053A000310F00DF10DFF3E031D9D2A0130F4005A
:10054A007408F707F11FAA2AAB2A9C2A0130031064
:10055A00F50DF60DFF3E031DAC2A71087302031D4B
:10056A00B82A70087202031CBB2ABC2AC32A700864
:10057A00F2027108031CF303F3027514013003102D
:10058A00F10CF00CFF3E031DC42A0130F702031DD3
:10059A00CF2AD02AAB2A7608F1007508F0000800A5
:1005AA0000300A128A11F5200A128A113430F50035
:1005BA00F130F400F40BDF2AF50BDF2AE42A30309D
:1005CA000A128A1152210A128A110D30F500FB30E3
:1005DA00F400F40BEE2AF50BEE2AF32A30300A1255
:1005EA008A1152210A128A111D30F5009130F40045
:1005FA00F40BFD2AF50BFD2A30300A128A1152211A
:10060A000A128A1138300A128A1152210A128A11E0
:10061A0008300A128A1152210A128A1101300A126A
:10062A008A1152210A128A1106300A128A1152219B
:10063A000A128A110C300A128A1152210A128A11DC
:10064A0008000030FC000030FB000030FA000030E7
:10065A00F90073087204710470040319352B362BE0
:10066A00832BFD01FD0A462B0130F8000310F00D23
:10067A00F10DF20DF30DF80B3B2B0130F800780861
:10068A00FD07F31F492B4A2B392B0130F8000310C1
:10069A00F90DFA0DFB0DFC0DF80B4C2B73087702C4
:1006AA00031D612B72087602031D612B7108750206
:1006BA00031D612B70087402031C642B652B742BB9
:1006CA007008F4027108031C710FF5027208031C0A
:1006DA00720FF6027308031C730FF70279140130C4
:1006EA000310F30CF20CF10CF00CFF3E031D752BFA
:1006FA000130FD02031D822B832B4A2B7C08F30059
:10070A007B08F2007A08F1007908F00008007030DE
:10071A00831603138F040F148316031789018801A4
:10072A008316031385010710871001308600831290
:10073A0003138601831603138801890183120313A5
:10074A0088018316031381131514181218158316BA
:10075A0003178715CF308316031399009A01831262
:10076A0003139817181318168316031398160A12E8
:10077A008A11D5220A128A11F401F40A01300A12E6
:10078A008A118B210A128A111D30F3008030F4007D
:10079A000A128A114F220A128A1100308312031395
:1007AA00C9000130C8008630C700A030C6000A124E
:1007BA008A11DD210A128A110A128A1103210A12E8
:1007CA008A111A30F0000030F1000A128A1115213C
:1007DA000A128A110B30F0000030F1000A128A1155
:1007EA0015210A128A110130F0000030F1000A12B4
:1007FA008A1115210A128A110A128A110C210A1267
:10080A008A111A3083120313CF00F730CE00CE0BB1
:10081A000C2CCF0B0C2C112C0A128A1103210A1250
:10082A008A111A30F0000030F1000A128A111521DB
:10083A000A128A110930F0000030F1000A128A11F6
:10084A0015210A128A111D30F0000030F1000A1237
:10085A008A1115210A128A110A128A110C210A1206
:10086A008A111A3083120313CF00F730CE00CE0B51
:10087A003C2CCF0B3C2C412C0A128A1103210A1260
:10088A008A111A30F0000030F1000A128A1115217B
:10089A000A128A110A30F0000030F1000A128A1195
:1008AA0015210A128A110030F000F1000A128A1189
:1008BA0015210A128A110A128A110C210A128A11A6
:1008CA001A3083120313CF00F730CE00CE0B6B2CF5
:1008DA00CF0B6B2C702C080083120313DB004730FC
:1008EA00D3005308D8005D2D25305C0603197E2CF1
:1008FA007F2C8B2C5C08D3005B088400530883137D
:10090A0080000130D3005308DB075D2DD601A42CEB
:10091A005808840083130008D3005308DC0002300F
:10092A00D3005308D8075C08D3005B088400530837
:10093A00831380000130D3005308DB075D2D01309B
:10094A00C607FF30460784000A128A110D200A12D0
:10095A008A11DC00D300D4015408003A0319B62CDA
:10096A00982C5308003A03196F2D633A03198D2CFA
:10097A00073A0319C42C0D3A0319C42C982C5808A9
:10098A00840083130008D900840A0008DA000230C0
:10099A00D3005308D807DA1FD32CD42CDD2C03300C
:1009AA00D3005308D604D909DA09D90A0319DA0A8D
:1009BA00DC01DC0A5C08D3005307013E84000A12FA
:1009CA008A110D200A128A11D4000A128A110D20E6
:1009DA000A128A11D50055085A02031DF62C54082A
:1009EA0059020318F92CFA2CFB2C052D0130D300DF
:1009FA005308DC0705305C06031D042D052DDF2C8A
:100A0A005608033903190A2D0B2D162D2D30D30044
:100A1A005B0884005308831380000130D300530815
:100A2A00DB075C08D3005308D700542D0A30F800BE
:100A3A000030F9005708D3005307013E84000A1218
:100A4A008A110D200A128A11F0000A128A110D2049
:100A5A000A128A11F1005A08F3005908F2000A1220
:100A6A008A1191220A128A117108FB007008FA0091
:100A7A000A128A1115220A128A117808303E831244
:100A8A000313D4005408DC005C08D3005B0884001C
:100A9A005308831380000130D3005308DB07FF306B
:100AAA00D3005308D707570A031D5C2D5D2D1B2D54
:100ABA000130C607FF30460784000A128A110D204A
:100ACA000A128A11D3005308DC005C08031D6E2D3C
:100ADA006F2D792C5B0884008313800108000A12A9
:100AEA008A118C230A128A119E2D2D30DD005D0891
:100AFA00B2002D30DD005D08B100B62D5E30DD009C
:100B0A005D08B2005E30DD005D08B100B62D3C30F4
:100B1A00DD005D08B2003C30DD005D08B100B62D95
:100B2A003E30DD005D08B2003E30DD005D08B100F8
:100B3A00B62D831203133308DD00DE015E08003A86
:100B4A000319A82DB62D5D08003A03197A2D053A26
:100B5A0003198C2D2D3A0319952D053A0319832D66
:100B6A00B62D061CB92DBA2DC22D04303402031C31
:100B7A00BF2DC02DC22DB001CE2D061CC52DC62DF0
:100B8A00CC2D043034020318CB2DCC2DCE2DB00140
:100B9A00B00A0A128A1103210A128A115130F0008E
:100BAA000030F1000A128A1115210A128A11003046
:100BBA00F000F1000A128A11AF210A128A11700894
:100BCA0083120313DD005D08B4000A128A110C2196
:100BDA000A128A111A3083120313DE00F730DD007D
:100BEA00DD0BF52DDE0BF52DFA2D0A128A110321E4
:100BFA000A128A116030F0000030F1000A128A11DC
:100C0A0015210A128A11831203133008DD00DE014E
:100C1A005D08F0005E08F1000A128A1115210A1215
:100C2A008A110A128A110C210A128A111A308312A5
:100C3A000313DE00F730DD00DD0B212EDE0B212E43
:100C4A00262E0A128A1103210A128A116130F00033
:100C5A000030F1000A128A1115210A128A11003095
:100C6A00F000F1000A128A11AF210A128A117008E3
:100C7A0083120313DD005D08B3000A128A110C21E6
:100C8A000A128A111A3083120313DE00F730DD00CC
:100C9A00DD0B4D2EDE0B4D2E522E0A128A11032128
:100CAA000A128A111A30F0000030F1000A128A1171
:100CBA0015210A128A110030F000F1000A128A1175
:100CCA0015210A128A110A128A110C210A128A1192
:100CDA001A3083120313DE00F730DD00DD0B732EAA
:100CEA00DE0B732E782E0A128A1103210A128A1138
:100CFA001B30F0000030F1000A128A1115210A1285
:100D0A008A110130F0000030F1000A128A11AF2175
:100D1A000A128A11700883120313DD005D08AF00FE
:100D2A000130F0000030F1000A128A11AF210A12D4
:100D3A008A11700883120313DE00DD015D08A60024
:100D4A005E08A7000130F0000030F1000A128A1193
:100D5A00AF210A128A11700883120313DD005D089D
:100D6A00AE000130F0000030F1000A128A11AF2102
:100D7A000A128A11700883120313DE00DD015D086E
:100D8A00A4005E08A5000130F0000030F1000A124C
:100D9A008A11AF210A128A11700883120313DD0027
:100DAA005D08AD000130F0000030F1000A128A112E
:100DBA00AF210A128A11700883120313DD005D083D
:100DCA00AD000030F000F1000A128A11AF210A12B8
:100DDA008A11700883120313DD005D08AD000A1240
:100DEA008A110C210A128A11823083120313DE003F
:100DFA00DD30DD00DD0BFF2EDE0BFF2E8312031329
:100E0A0026082F04AA002708AB0024082E04A800ED
:100E1A002508A9002908803AFF0083307F02031DB4
:100E2A00182F8530280203181B2F1C2F312F8312ED
:100E3A0003132B08803AFF0080307F02031D272FFF
:100E4A0001302A02031C2A2F2B2F312FC030831284
:100E5A000313DD005D08AC00831203132908803AEE
:100E6A00FF0083307F02031D3C2F85302802031CBC
:100E7A003F2F402F4F2F831203132B08803AFF0076
:100E8A0080307F02031D4B2F01302A0203184E2F98
:100E9A004F2F642F831203132908803AFF008330EF
:100EAA007F02031D5A2F85302802031C5D2F5E2FF7
:100EBA006A2F83120313AB1F632F642F6A2F8030AC
:100ECA0083120313DD005D08AC00831203132908A3
:100EDA00803AFF0083307F02031D752F8530280278
:100EEA000318782F792F832F83120313AB1F7E2FBA
:100EFA007F2F832F4030DD005D08AC00831203137F
:100F0A00A91F882F892F8E2FAB1F8C2F8D2F8E2FE5
:100F1A00AC01A91F912F922FA52F2B08803AFF0011
:100F2A0080307F02031D9B2F01302A02031C9E2F53
:100F3A009F2FA52FFF3083120313DD005D08AC003D
:100F4A000B3083120313DD005D08C6003408DE008F
:100F5A00DF015E08C7005F08C8003208E000E1014F
:100F6A006008C9006108CA003108E200E3016208AA
:100F7A00CB006308CC003008E400E5016408CD002A
:100F8A006508CE002908D0002808CF002C08E60002
:100F9A00E7016608D1006708D20036300A128A11C2
:100FAA0071240A128A1136300A128A116C210A1225
:100FBA008A11F401F40A02300A128A118B210A12E8
:100FCA008A113630F3000030F4000A128A114F22D7
:100FDA000A128A119E2D0A128A11002883132030C0
:100FEA00840046300A128A11FB200A128A118301F0
:060FFA000A128A11742D99
:04400E00D420FF3F7C
:00000001FF
