:020000040000FA
:100000000A128A11F32FFF1B0D2883137F18831701
:100010000008840A0319FF0A080000308A00040857
:10002000840A82070034013400340A340034643412
:100030000034E83403341034273449345F344C340A
:1000400052345F344D345F345F34203458345F347D
:100050005F345F3459345F345F345F3400342534A7
:100060006434203425346334253463342034253417
:0600700064340A34003480
:1005C400F00070088312031388000800640080019F
:1005D400840A0406031900340406E92A0A128A115B
:1005E4000C230A128A1183160313111408000A1229
:1005F4008A110C230A128A11831603131115080099
:100604000A128A110C230A128A1170088312031326
:1006140093000800831603131419112B122B0C2BAF
:1006240011081F39031D172B182B0C2B0800F00081
:1006340083160313981C1F2B202B1A2B83120313CE
:100644000C1E252B262B282B700899000800F2007D
:1006540083120313071472080A128A11E2220A127F
:100664008A118312031387141A30F100F10B382B0B
:1006740000008312031387100800F300831203138E
:10068400071073080A128A11E2220A128A118312CD
:10069400031387140B30F2006230F100F10B502B7E
:1006A400F20B502B00008312031387100800F20092
:1006B400672B7208840000080A128A1119230A128F
:1006C4008A110130F1007108F20772088400831363
:1006D4000008031D6E2B6F2B5B2B831203130C1E60
:1006E400742B752B772B0D3099000800F6007603D8
:1006F400031D7D2B7E2B8A2B74087F3EF500750825
:10070400F70077080A128A113F230A128A119B2BD9
:1007140002307606031D8F2B902B9B2B7408BF3E53
:10072400F5007508F70077080A128A113F230A12A8
:100734008A1108000A128A110C230A128A118316DC
:10074400031391150A128A110C230A128A118312B7
:1007540003131308F200F3017208F4007308F500A0
:100764000A128A110C230A128A1170037104031DE0
:10077400BC2BBD2BC12B831603139112C42B8316E0
:100784000313911611167508F1007408F00008009F
:1007940028308312031394008316031391018312E8
:1007A40003132008A4002108A5002208A60023089A
:1007B400A70002300310A40DA50DA60DA70DFF3E42
:1007C400031DDC2B2708F3002608F2002508F1009E
:1007D4002408F0000030F7007A30F6001230F500FB
:1007E4000030F4000A128A1169250A128A1170086D
:1007F400FF3E831603139300940187150716080020
:10080400780879040319072C082C372CFD01FD0AFC
:10081400162C01300310F80DF90DFF3E031D0C2CAE
:100824000130FC007C08FD07F91F192C1A2C0B2C35
:1008340079087B02031D202C78087A02031C232CE0
:10084400242C2A2C7808FA027908031CFB03FB02E7
:1008540001300310F90CF80CFF3E031D2B2C013062
:10086400FD02031D362C372C1A2C7B08F9007A085C
:10087400F8000800F801F901612C78087307F60004
:100884007408F5000318F50AF81F492CF5037508D8
:10089400F700770883120313FF00760884000A1216
:1008A4008A1103200A128A110A128A1129230A12B0
:1008B4008A110130F8070318F90A0030F90778089B
:1008C4007307F6007408F5000318F50AF81F6B2C7B
:1008D400F5037508F700770883120313FF00760801
:1008E40084000A128A1103200A128A11003A031D95
:1008F4007C2C7D2C3F2C0800F501F6017008710456
:100904000319852C862CBD2CF701F70A942C013091
:100914000310F00DF10DFF3E031D8A2C0130F4008D
:100924007408F707F11F972C982C892C01300310B9
:10093400F50DF60DFF3E031D992C71087302031D7E
:10094400A52C70087202031CA82CA92CB02C7008CA
:10095400F2027108031CF303F3027514013003104F
:10096400F10CF00CFF3E031DB12C0130F702031D06
:10097400BC2CBD2C982C7608F1007508F0000800FA
:1009840000300A128A11E2220A128A113430F50068
:10099400F130F400F40BCC2CF50BCC2CD12C3030F2
:1009A4000A128A113F230A128A110D30F500FB3016
:1009B400F400F40BDB2CF50BDB2CE02C30300A12AA
:1009C4008A113F230A128A111D30F5009130F40078
:1009D400F40BEA2CF50BEA2C30300A128A113F236F
:1009E4000A128A1138300A128A113F230A128A1114
:1009F40008300A128A113F230A128A1101300A129E
:100A04008A113F230A128A1106300A128A113F23DF
:100A14000A128A110C300A128A113F230A128A110F
:100A240008007030831603138F040F148316031702
:100A3400890188018316031385010710871001308B
:100A44008600831203138601831603138801890128
:100A540083120313880183160313811315141812C8
:100A64001815831603178715CF30831603139900BF
:100A74009A01831203139817181318168316031375
:100A840098160A128A11C2240A128A11F401F40A6D
:100A940001300A128A1178230A128A110B30F300EA
:100AA4008030F4000A128A113C240A128A110030A0
:100AB40083120313A3000130A2008630A100A030EA
:100AC400A0000A128A11CA230A128A1108000030EF
:100AD400FC000030FB000030FA000030F90073081D
:100AE4007204710470040319782D792DC62DFD014B
:100AF400FD0A892D0130F8000310F00DF10DF20DFF
:100B0400F30DF80B7E2D0130F8007808FD07F31F74
:100B14008C2D8D2D7C2D0130F8000310F90DFA0D6C
:100B2400FB0DFC0DF80B8F2D73087702031DA42D0C
:100B340072087602031DA42D71087502031DA42DED
:100B440070087402031CA72DA82DB72D7008F40299
:100B54007108031C710FF5027208031C720FF60270
:100B64007308031C730FF702791401300310F30C9C
:100B7400F20CF10CF00CFF3E031DB82D0130FD0208
:100B8400031DC52DC62D8D2D7C08F3007B08F200B6
:100B94007A08F1007908F000080083120313B10009
:100BA4002130A9002908AE00BB2E253032060319D6
:100BB400DC2DDD2DE92D3208A90031088400290837
:100BC400831380000130A9002908B107BB2EAC01B2
:100BD400022E2E08840083130008A9002908B200FD
:100BE4000230A9002908AE073208A90031088400A0
:100BF4002908831380000130A9002908B107BB2EFE
:100C04000130A007FF30200784000A128A110D204A
:100C14000A128A11B200A900AA012A08003A03198B
:100C2400142EF62D2908003A0319CD2E633A031920
:100C3400EB2D073A0319222E0D3A0319222EF62D15
:100C44002E08840083130008AF00840A0008B00053
:100C54000230A9002908AE07B01F312E322E3B2ED8
:100C64000330A9002908AC04AF09B009AF0A03197D
:100C7400B00AB201B20A3208A9002907013E840071
:100C84000A128A110D200A128A11AA000A128A1164
:100C94000D200A128A11AB002B083002031D542EBA
:100CA4002A082F020318572E582E592E632E01306E
:100CB400A9002908B20705303206031D622E632EEF
:100CC4003D2E2C0803390319682E692E742E2D30FD
:100CD400A900310884002908831380000130A90089
:100CE4002908B1073208A9002908AD00B22E0A303C
:100CF400F8000030F9002D08A9002907013E8400FE
:100D04000A128A110D200A128A11F0000A128A119D
:100D14000D200A128A11F1003008F3002F08F200A6
:100D24000A128A117E240A128A117108FB007008C3
:100D3400FA000A128A1102240A128A117808303E33
:100D440083120313AA002A08B2003208A90031084A
:100D540084002908831380000130A9002908B10701
:100D6400FF30A9002908AD072D0A031DBA2EBB2E9A
:100D7400792E0130A007FF30200784000A128A115F
:100D84000D200A128A11A9002908B2003208031D95
:100D9400CC2ECD2ED72D310884008313800108007A
:100DA4000A128A1113250A128A11FC2E2D30B3005F
:100DB4003308BE002D30B3003308BD00142F5E305D
:100DC400B3003308BE005E30B3003308BD00142FF7
:100DD4003C30B3003308BE003C30B3003308BD00E0
:100DE400142F3E30B3003308BE003E30B300330846
:100DF400BD00142F831203133F08B300B401340859
:100E0400003A0319062F142F3308003A0319D82E79
:100E1400053A0319EA2E2D3A0319F32E053A03195C
:100E2400E12E142F061C172F182F202F04304002F8
:100E3400031C1D2F1E2F202FBC012C2F061C232F1B
:100E4400242F2A2F043040020318292F2A2F2C2F55
:100E5400BC01BC0A0A128A11F0220A128A1151300A
:100E6400F0000030F1000A128A1102230A128A11DA
:100E74000030F000F1000A128A119C230A128A1130
:100E8400700883120313B3003308C0000A128A11D6
:100E9400F9220A128A111A3083120313B400F730AC
:100EA400B300B30B532FB40B532F582F0A128A11CC
:100EB400F0220A128A116030F0000030F1000A12A8
:100EC4008A1102230A128A11831203133C08B30005
:100ED400B4013308F0003408F1000A128A11022325
:100EE4000A128A110A128A11F9220A128A111A3074
:100EF40083120313B400F730B300B30B7F2FB40B8A
:100F04007F2F842F0A128A11F0220A128A1161306B
:100F1400F0000030F1000A128A1102230A128A1129
:100F24000030F000F1000A128A119C230A128A117F
:100F3400700883120313B3003308BF000A128A1126
:100F4400F9220A128A111A3083120313B400F730FB
:100F5400B300B30BAB2FB40BAB2FB02F1D308312E8
:100F64000313B3003308A0004008B400B5013408EB
:100F7400A1003508A2003E08B600B7013608A30058
:100F84003708A4003D08B800B9013808A50039089D
:100F9400A6003C08BA00BB013A08A7003B08A80019
:100FA40042300A128A11CF250A128A1142300A12DB
:100FB4008A1159230A128A11F401F40A02300A121E
:100FC4008A1178230A128A114230F3000030F400A7
:100FD4000A128A113C240A128A11FC2E0A128A115E
:100FE400002883133C30840052300A128A11E8220C
:0C0FF4000A128A1183010A128A11D22EFF
:04400E00D420FF3F7C
:00000001FF
