:020000040000FA
:100000000A128A11F32FFF1B0D2883137F18831701
:100010000008840A0319FF0A080000308A00040857
:10002000840A82070034013400340A340034643412
:100030000034E83403341034273425346434203455
:100040002534633425346334203425346434203437
:10005000253464340A34003449345F344C34523427
:100060005F344D345F344D34613467346E346534FD
:0600700074345934003421
:1001E800F00070088312031388000800640080017F
:1001F800840A0406031900340406FB280A128A112B
:100208001E210A128A1183160313111408000A12F8
:100218008A111E210A128A11831603131115080068
:100228000A128A111E210A128A11700883120313F6
:1002380093000800831603131419232924291E295F
:1002480011081F39031D29292A291E290800F00031
:1002580083160313981C312932292C29831203137E
:100268000C1E372938293A29700899000800F2002D
:1002780083120313071472080A128A11F4200A124F
:100288008A118312031387141A30F100F10B4A29DB
:1002980000008312031387100800F300831203136E
:1002A800071073080A128A11F4200A128A1183129D
:1002B800031387140B30F2006230F100F10B62294E
:1002C800F20B622900008312031387100800F20062
:1002D80079297208840000080A128A112B210A124F
:1002E8008A110130F1007108F20772088400831343
:1002F8000008031D802981296D29831203130C1E10
:100308008629872989290D3099000800F600760387
:10031800031D8F2990299C2974087F3EF5007508D4
:10032800F70077080A128A1151210A128A11AD2999
:1003380002307606031DA129A229AD297408BF3E03
:10034800F5007508F70077080A128A1151210A1278
:100358008A1108000A128A111E210A128A118316AC
:10036800031391150A128A111E210A128A11831287
:1003780003131308F200F3017208F4007308F50080
:100388000A128A111E210A128A1170037104031DB0
:10039800CE29CF29D329831603139112D629831680
:1003A8000313911611167508F1007408F00008007F
:1003B80028308312031394008316031391018312C8
:1003C80003134608CA004708CB004808CC00490870
:1003D800CD0002300310CA0DCB0DCC0DCD0DFF3E64
:1003E800031DEE294D08F3004C08F2004B08F100FC
:1003F8004A08F0000030F7007A30F6001230F500B5
:100408000030F4000A128A1125230A128A11700892
:10041800FF3E8316031393009401871507160800FF
:10042800780879040319192A1A2A492AFD01FD0AAC
:10043800282A01300310F80DF90DFF3E031D1E2A6E
:100448000130FC007C08FD07F91F2B2A2C2A1D2AE5
:1004580079087B02031D322A78087A02031C352AA0
:10046800362A3C2A7808FA027908031CFB03FB02A7
:1004780001300310F90CF80CFF3E031D3D2A013032
:10048800FD02031D482A492A2C2A7B08F9007A080C
:10049800F8000800F801F901732A78087307F600D4
:1004A8007408F5000318F50AF81F5B2AF5037508A8
:1004B800F700770883120313FF00760884000A12F6
:1004C8008A1103200A128A110A128A113B210A1280
:1004D8008A110130F8070318F90A0030F90778087B
:1004E8007307F6007408F5000318F50AF81F7D2A4B
:1004F800F5037508F700770883120313FF007608E1
:1005080084000A128A1103200A128A11003A031D74
:100518008E2A8F2A512A0800F501F6017008710405
:100528000319972A982ACF2AF701F70AA62A013031
:100538000310F00DF10DFF3E031D9C2A0130F4005D
:100548007408F707F11FA92AAA2A9B2A0130031069
:10055800F50DF60DFF3E031DAB2A71087302031D4E
:10056800B72A70087202031CBA2ABB2AC22A70086A
:10057800F2027108031CF303F3027514013003102F
:10058800F10CF00CFF3E031DC32A0130F702031DD6
:10059800CE2ACF2AAA2A7608F1007508F0000800AA
:1005A80000300A128A11F4200A128A113430F50038
:1005B800F130F400F40BDE2AF50BDE2AE32A3030A2
:1005C8000A128A1151210A128A110D30F500FB30E6
:1005D800F400F40BED2AF50BED2AF22A30300A125A
:1005E8008A1151210A128A111D30F5009130F40048
:1005F800F40BFC2AF50BFC2A30300A128A1151211F
:100608000A128A1138300A128A1151210A128A11E3
:1006180008300A128A1151210A128A1101300A126D
:100628008A1151210A128A1106300A128A1151219F
:100638000A128A110C300A128A1151210A128A11DF
:1006480008000030FC000030FB000030FA000030E9
:10065800F90073087204710470040319342B352BE4
:10066800822BFD01FD0A452B0130F8000310F00D27
:10067800F10DF20DF30DF80B3A2B0130F800780864
:10068800FD07F31F482B492B382B0130F8000310C6
:10069800F90DFA0DFB0DFC0DF80B4B2B73087702C7
:1006A800031D602B72087602031D602B710875020A
:1006B800031D602B70087402031C632B642B732BBF
:1006C8007008F4027108031C710FF5027208031C0C
:1006D800720FF6027308031C730FF70279140130C6
:1006E8000310F30CF20CF10CF00CFF3E031D742BFD
:1006F8000130FD02031D812B822B492B7C08F3005E
:100708007B08F2007A08F1007908F00008007030E0
:10071800831603138F040F148316031789018801A6
:100728008316031385010710871001308600831292
:1007380003138601831603138801890183120313A7
:1007480088018316031381131514181218158316BC
:1007580003178715CF308316031399009A01831264
:1007680003139817181318168316031398160A12EA
:100778008A11D4220A128A11F401F40A01300A12E9
:100788008A118A210A128A111A30F3008030F40083
:100798000A128A114E220A128A1100308312031398
:1007A800C9000130C8008630C700A030C6000A1250
:1007B8008A11DC210A128A110A128A1102210A12EC
:1007C8008A111A30F0000030F1000A128A1114213F
:1007D8000A128A110B30F0000030F1000A128A1157
:1007E80014210A128A110130F0000030F1000A12B7
:1007F8008A1114210A128A110A128A110B210A126B
:100808008A111A3083120313CF00F730CE00CE0BB3
:100818000B2CCF0B0B2C102C0A128A1102210A1256
:100828008A111A30F0000030F1000A128A111421DE
:100838000A128A110930F0000030F1000A128A11F8
:1008480014210A128A111D30F0000030F1000A123A
:100858008A1114210A128A110A128A110B210A120A
:100868008A111A3083120313CF00F730CE00CE0B53
:100878003B2CCF0B3B2C402C0A128A1102210A1266
:100888008A111A30F0000030F1000A128A1114217E
:100898000A128A110A30F0000030F1000A128A1197
:1008A80014210A128A110030F000F1000A128A118C
:1008B80014210A128A110A128A110B210A128A11AA
:1008C8001A3083120313CF00F730CE00CE0B6A2CF8
:1008D800CF0B6A2C6F2C080083120313D900473002
:1008E800D1005108D6005C2D25305A0603197D2CFD
:1008F8007E2C8A2C5A08D100590884005108831389
:1009080080000130D1005108D9075C2DD401A32CF7
:100918005608840083130008D1005108DA00023019
:10092800D1005108D6075A08D10059088400510847
:10093800831380000130D1005108D9075C2D0130A4
:10094800C607FF30460784000A128A110D200A12D2
:100958008A11DA00D100D2015208003A0319B52CE5
:10096800972C5108003A03196E2D633A03198C2C01
:10097800073A0319C32C0D3A0319C32C972C5608B0
:10098800840083130008D700840A0008D8000230C6
:10099800D1005108D607D81FD22CD32CDC2C033019
:1009A800D1005108D404D709D809D70A0319D80A9D
:1009B800DA01DA0A5A08D1005107013E84000A1206
:1009C8008A110D200A128A11D2000A128A110D20EA
:1009D8000A128A11D30053085802031DF52C520835
:1009E80057020318F82CF92CFA2C042D0130D100E9
:1009F8005108DA0705305A06031D032D042DDE2C95
:100A0800540803390319092D0A2D152D2D30D1004D
:100A1800590884005108831380000130D10051081F
:100A2800D9075A08D1005108D500532D0A30F800CB
:100A38000030F9005508D1005107013E84000A1220
:100A48008A110D200A128A11F0000A128A110D204B
:100A58000A128A11F1005808F3005708F2000A1226
:100A68008A1190220A128A117108FB007008FA0094
:100A78000A128A1114220A128A117808303E831247
:100A88000313D2005208DA005A08D100590884002A
:100A98005108831380000130D1005108D907FF3075
:100AA800D1005108D507550A031D5B2D5C2D1A2D61
:100AB8000130C607FF30460784000A128A110D204C
:100AC8000A128A11D1005108DA005A08031D6D2D47
:100AD8006E2D782C590884008313800108000A12AF
:100AE8008A118B230A128A119D2D2D30DB005B0899
:100AF800B2002D30DB005B08B100B52D5E30DB00A5
:100B08005B08B2005E30DB005B08B100B52D3C30FD
:100B1800DB005B08B2003C30DB005B08B100B52DA0
:100B28003E30DB005B08B2003E30DB005B08B10002
:100B3800B52D831203133308DB00DC015C08003A8F
:100B48000319A72DB52D5B08003A0319792D053A2D
:100B580003198B2D2D3A0319942D053A0319822D6B
:100B6800B52D061CB82DB92DC12D04303402031C37
:100B7800BE2DBF2DC12DB001CD2D061CC42DC52DF8
:100B8800CB2D043034020318CA2DCB2DCD2DB00146
:100B9800B00A0A128A1102210A128A115130F00091
:100BA8000030F1000A128A1114210A128A11003049
:100BB800F000F1000A128A11AE210A128A11700897
:100BC80083120313DB005B08B4000A128A110B219D
:100BD8000A128A111A3083120313DC00F730DB0083
:100BE800DB0BF42DDC0BF42DF92D0A128A110221EE
:100BF8000A128A116030F0000030F1000A128A11DE
:100C080014210A128A11831203133008DB00DC0155
:100C18005B08F0005C08F1000A128A1114210A121C
:100C28008A110A128A110B210A128A111A308312A8
:100C38000313DC00F730DB00DB0B202EDC0B202E4F
:100C4800252E0A128A1102210A128A116130F00037
:100C58000030F1000A128A1114210A128A11003098
:100C6800F000F1000A128A11AE210A128A117008E6
:100C780083120313DB005B08B3000A128A110B21ED
:100C88000A128A111A3083120313DC00F730DB00D2
:100C9800DB0B4C2EDC0B4C2E512E0A128A11022132
:100CA8000A128A111A30F0000030F1000A128A1173
:100CB80014210A128A110030F000F1000A128A1178
:100CC80014210A128A110A128A110B210A128A1196
:100CD8001A3083120313DC00F730DB00DB0B722EB3
:100CE800DC0B722E772E0A128A1102210A128A113F
:100CF8001B30F0000030F1000A128A1114210A1288
:100D08008A110130F0000030F1000A128A11AE2178
:100D18000A128A11700883120313DB005B08AF0004
:100D28000130F0000030F1000A128A11AE210A12D7
:100D38008A11700883120313DC00DB015B08A6002C
:100D48005C08A7000130F0000030F1000A128A1197
:100D5800AE210A128A11700883120313DB005B08A4
:100D6800AE000130F0000030F1000A128A11AE2105
:100D78000A128A11700883120313DC00DB015B0876
:100D8800A4005C08A5000130F0000030F1000A1250
:100D98008A11AE210A128A11700883120313DB002C
:100DA8005B08AD000130F0000030F1000A128A1132
:100DB800AE210A128A11700883120313DB005B0844
:100DC800AD000030F000F1000A128A11AE210A12BB
:100DD8008A11700883120313DB005B08AD000A1246
:100DE8008A110B210A128A11823083120313DC0044
:100DF800DD30DB00DB0BFE2EDC0BFE2E8312031333
:100E080026082F04AA002708AB0024082E04A800EF
:100E18002508A9002908803AFF0082307F02031DB7
:100E2800172FBD30280203181A2F1B2F302F8312BB
:100E380003132B08803AFF0080307F02031D262F02
:100E480001302A02031C292F2A2F302F4030831209
:100E58000313DB005B08AC00831203132908803AF4
:100E6800FF0082307F02031D3B2FBD302802031C88
:100E78003E2F3F2F452F803083120313DB005B0882
:100E8800AC00831203132908803AFF0082307F02E6
:100E9800031D502FBD3028020318532F542F5E2FE7
:100EA80083120313AB1F592F5A2F5E2FC030DB005C
:100EB8005B08AC0083120313A91F632F642F6C2FE8
:100EC800AB1F672F682F6C2FF030DB005B08AC007E
:100ED800A91F6F2F702F802F2B08803AFF008030BA
:100EE8007F02031D792F01302A02031C7C2F7D2FDE
:100EF800802F83120313AC010A128A1102210A12ED
:100F08008A115030F0000030F1000A128A111421C1
:100F18000A128A11831203132C08DB00DC015B0818
:100F2800F0005C08F1000A128A1114210A128A11D1
:100F38000A128A110B210A128A111A30831203131A
:100F4800DC00F730DB00DB0BA72FDC0BA72FAC2F67
:100F58000B3083120313DB005B08C6003408DC0087
:100F6800DD015C08C7005D08C8003208DE00DF014B
:100F78005E08C9005F08CA003108E000E1016008A6
:100F8800CB006108CC003008E200E3016208CD0024
:100F98006308CE002908D0002808CF0036300A128E
:100FA8008A1170240A128A1136300A128A116B21AA
:100FB8000A128A11F401F40A02300A128A118A21EB
:100FC8000A128A113630F3000030F4000A128A112E
:100FD8004E220A128A119D2D0A128A1100288313A3
:100FE8002030840046300A128A11FA200A128A1127
:080FF80083010A128A11732D16
:04400E00D420FF3F7C
:00000001FF
