:020000040000FA
:060000000A128A110C280F
:10000800FE00030EF1000A08F2000A128A111528F0
:100018000A128A110F28F401F50183010A128A11C4
:10002800CB280B1C182819282A2883120313061812
:100038001E281F2823280130F0007008850786181D
:10004800262827282928013085020B10831203133C
:100058008C1D2F28302886281412141B3428352884
:100068003928941F3828392840281308F0007008C8
:10007800F50014139413141683160313941A4528C1
:1000880046286228141949284A286228831203132B
:100098001308F0007008F5008C111416831603136A
:1000A800141C572858285228831203131308880051
:1000B800A630F000F00B5E2800008328941A65280B
:1000C80066288328141D69286A2883288312031345
:1000D8001308F0007008F500831603131410831238
:1000E8000313050893001416A630F000F00B7A28C5
:1000F8000000831603131418822883287D2883128E
:1001080003138C1172088A00710E8300FE0E7E0E96
:1001180009007030831603138F040F148316031716
:10012800890188018316031385010330860088013D
:100138008113151495148312031385018601880110
:1001480083160313161496148B178B1560300A1236
:100158008A11B1200A128A110800F3007308831665
:1001680003139300363083120313940080308316F0
:100178000313940001309100871507168B170B178E
:10018800831203138C11831603138C1508000A12AB
:100198008A118D200A128A11D0280A128A110C2875
:04400E00D420FF3F7C
:00000001FF
