:060000000A128A11E72F2D
:10000800F801F901292878087307F6007408F50043
:100018000318F50AF81F1128F5037508F700770883
:1000280083120313FF00760884000A128A15002041
:100038000A128A110A168A15B5210A128A11013084
:10004800F8070318F90A0030F90778087307F6006B
:100058007408F5000318F50AF81F3328F503750826
:10006800F700770883120313FF00760884000A124A
:100078008A1500200A128A11003A031D44284528CF
:100088000728080083160313C500A130AF002F0806
:10009800B800D02F25304C0603195328542860285F
:1000A8004C08AF00450884002F08831380000130F6
:1000B800AF002F08C507D02FB901BA012008840066
:1000C8000A128A150A200A128A112E3A031D6D286F
:1000D8006E28B3283A170130AF002F08A007CA01CD
:1000E800CB01A2280A30F0000030F1008316031378
:1000F8004B08F3004A08F2000A168A154C220A1225
:100108008A11710883160313CB007008CA002008EF
:1001180084000A128A150A200A128A11D03EAF00FA
:10012800FF3003180030B0002F08CA070318CB0AA5
:100138003008CB070130AF002F08A0072008840043
:100148000A128A150A200A128A110A168A15A32188
:100158000A128A110318B128B2287628B928CA01C8
:10016800CB013A16B9283A15DB2801308316031358
:10017800A007FF30200784000A128A150A200A12F5
:100188008A11CC00AF00B0013008003A0319CD281D
:10019800D02F2F08003A0319E22F643A0319DB28FD
:1001A800023A0319B7280F3A0319DB28D02F003079
:1001B8003905AF0007303A05B0002F08300403199D
:1001C800E628E728A82E3A1EEA28EB28EF2806306A
:1001D800CA000030CB003808840083130008C6002A
:1001E800840A0008C700840A0008C800840A0008B6
:1001F800C9000430AF002F08B8074908F3004808C1
:10020800F2004708F1004608F0000030F70000301F
:10021800F6000030F5000030F4000A168A15E725CC
:100228000A128A11031819291A2937298316031360
:100238004908F3004808F2004708F1004608F000B2
:100248000A168A156E210A128A1173088316031377
:10025800C9007208C8007108C7007008C6000330DA
:10026800B9040030BA0483160313BB01BC01490862
:10027800F3004808F2004708F1004608F000003093
:10028800F7000030F6000030F5000030F4000A16E0
:100298008A15CA230A128A11031853295429442A91
:1002A800031083160313480D490D823EBB00FF302F
:1002B80003180030BC00FF30BB070318BC0AFF302E
:1002C800BC070330F0000030F1003C08F3003B08A5
:1002D800F2000A168A154C220A128A11710883162E
:1002E8000313BC007008BB000A30F7000030F800A8
:1002F8003C08FA003B08F9000A168A1131200A1254
:100308008A11780883160313BC007708BB00BC1F4A
:100318008E298F299529FF30BB070318BC0AFF30A7
:10032800BC073B03FF3A0A128A1540210A128A11B8
:1003380083120313410883160313C00083120313A7
:10034800400883160313BF00831203133F08831664
:100358000313BE00831203133E0883160313BD0064
:10036800490883120313A70083160313480883124E
:100378000313A60083160313470883120313A5006B
:1003880083160313460883120313A400831603136A
:10039800400883120313AB00831603133F0883122C
:1003A8000313AA00831603133E0883120313A9003C
:1003B800831603133D0883120313A8000A128A1533
:1003C8009F240A128A118312031327088316031322
:1003D800C00083120313260883160313BF00831279
:1003E8000313250883160313BE008312031324087E
:1003F80083160313BD004008F3003F08F2003E08CF
:10040800F1003D08F0003F30F7008030F600003082
:10041800F5000030F4000A168A15E7250A128A1139
:100428000318172A182A212AFF3083160313BB073B
:100438000318BC0AFF30BC07442A8316031340087C
:10044800F3003F08F2003E08F1003D08F00041309B
:10045800F7002030F6000030F5000030F4000A16EE
:100468008A15E7250A128A11031C3B2A3C2A442ACA
:10047800013083160313BB070318BC0A0030BC07FE
:10048800831603134B08803AFF0080307F02031D58
:100498004F2A0D304A020318522A532A9A2A8316E1
:1004A80003134A080A168A1158210A128A1183125C
:1004B80003134108D5004008D4003F08D3003E0884
:1004C800D20083160313490883120313D900831635
:1004D8000313480883120313D8008316031347082D
:1004E80083120313D70083160313460883120313DA
:1004F800D6000A168A1178250A128A118312031364
:10050800550883160313C90083120313540883166E
:100518000313C80083120313530883160313C70079
:1005280083120313520883160313C600831603139A
:100538003C08803AFF0080307F02031DA52A0A305C
:100548003B020318A82AA92AFA2A83160313490882
:10055800F3004808F2004708F1004608F0000030B0
:10056800F7000030F6000030F5000030F4000A16FD
:100578008A15CA230A128A110318C32AC42A6C2BA3
:1005880083160313490883120313D4008316031335
:10059800480883120313D3008316031347088312F2
:1005A8000313D20083160313460883120313D100E2
:1005B8000A128A15C4200A128A11831203135408D6
:1005C800530452045104031DEA2AEB2A6C2B8316A8
:1005D80003133C08803AFF0080307F02031DF62A8F
:1005E80002303B02031CF92AFA2A6C2B83160313E8
:1005F8004008F3003F08F2003E08F1003D08F00013
:100608004030F7008930F6007030F5005F30F400B4
:100618000A168A15E7250A128A110318142B152BB6
:100628001E2BF73083160313BB070318BC0AFF30D1
:10063800BC07262BF83083160313BB070318BC0A24
:10064800FF30BC073B080A128A1540210A128A119A
:1006580083120313410883160313C0008312031384
:10066800400883160313BF00831203133F08831641
:100678000313BE00831203133E0883160313BD0041
:100688004908F3004808F2004708F1004608F0005E
:100698004008F7003F08F6003E08F5003D08F40062
:1006A8000A168A119A200A128A11730883160313EC
:1006B800C4007208C3007108C2007008C10000308D
:1006C800C9000030C8000030C7000030C600F02B59
:1006D80083160313490883120313D40083160313E4
:1006E800480883120313D3008316031347088312A1
:1006F8000313D20083160313460883120313D10091
:100708000A128A15C4200A128A1183120313540884
:1007180083160313C40083120313530883160313A9
:10072800C30083120313520883160313C2008312F3
:100738000313510883160313C1004408F300430848
:10074800F2004208F1004108F00000300A168A154C
:1007580089260A128A11730883120313E9007208A2
:10076800E8007108E7007008E600831603134908DB
:1007780083120313ED00831603134808831203132F
:10078800EC0083160313470883120313EB00831648
:100798000313460883120313EA000A168A1528224F
:1007A8000A128A1183120313690883160313C900F6
:1007B80083120313680883160313C80083120313F4
:1007C800670883160313C70083120313660883168A
:1007D8000313C600BB01BC01CC01CC0A4C08AF0016
:1007E80001300310AF0DFF3E031DF52B03102F0D35
:1007F800693E84000A128A150A200A128A11B0007A
:100808000A128A150A200A128A11B1000A128A15D8
:100818000A200A128A11B2000A128A150A200A123C
:100828008A11B30033084402031D242C3208430202
:10083800031D242C31084202031D242C30084102D8
:100848000318272C282C292C332C0130AF002F0813
:10085800CC070A304C06031D322C332CF22B033004
:100868003905AF0000303A05B0002F0830040319ED
:100878003E2C3F2CD12C2D30AF00450884002F088A
:10088800831380000130AF002F08C507D12C4C0816
:10089800AF0001300310AF0DFF3E031D4E2C0310B7
:1008A8002F0D693E84000A128A150A200A128A113D
:1008B800F0000A128A150A200A128A11F1000A1297
:1008C8008A150A200A128A11F2000A128A150A20C9
:1008D8000A128A11F3004408F7004308F600420898
:1008E800F5004108F4000A168A1518250A128A111B
:1008F800730883160313C0007208BF007108BE0096
:100908007008BD00003083120313A3000030A2005A
:100918000030A1000A30A000831603134008831298
:100928000313A700831603133F0883120313A600BB
:10093800831603133E0883120313A50083160313BB
:100948003D0883120313A4000A168A1569240A12A3
:100958008A1183120313230883160313C00083121A
:100968000313220883160313BF00831203132108FD
:1009780083160313BE008312031320088316031380
:10098800BD003D08303EAF00450884002F088313A2
:1009980080000130AF002F08C5070130CC024C0A97
:1009A800031DD72CD82C4B2CEC2C3030831603137A
:1009B800AF00450884002F08831380000130AF0082
:1009C8002F08C507FF30BB070318BC0AFF30BC0758
:1009D8003C08803AFF0080307F02031DF52C01306F
:1009E8003B020318F82CF92CD92C831603134B0857
:1009F800803AFF0080307F02031D042D09304A022F
:100A0800031C072D082D0F2D083083160313AF0084
:100A18002F08CC00152D831603134A08AF002F08A2
:100A2800CC004C08AF00B0012F08CA023008031CE4
:100A3800CB03CB024C080319222D232D2E2D2E304B
:100A4800AF00450884002F08831380000130AF00F1
:100A58002F08C5074C080A128A1540210A128A1164
:100A680083120313410883160313B7008312031379
:100A7800400883160313B600831203133F08831636
:100A88000313B500831203133E0883160313B4003F
:100A9800370883120313AB00831603133608831237
:100AA8000313AA0083160313350883120313A9003E
:100AB80083160313340883120313A8008316031341
:100AC800490883120313A7008316031348088312E7
:100AD8000313A60083160313470883120313A50004
:100AE80083160313460883120313A4000A128A15F7
:100AF8009F240A128A11831203132708D400260898
:100B0800D3002508D2002408D1000A128A15C4206F
:100B18000A128A1183120313540883160313C4009C
:100B280083120313530883160313C300831203139A
:100B3800520883160313C200831203135108831645
:100B48000313C100882E4C08AF0001300310AF0D0D
:100B5800FF3E031DAA2D03102F0D693E84000A12C3
:100B68008A150A200A128A11F0000A128A150A2028
:100B78000A128A11F1000A128A150A200A128A1129
:100B8800F2000A128A150A200A128A11F300440890
:100B9800F7004308F6004208F5004108F4000A1679
:100BA8008A1518250A128A11730883160313C000C0
:100BB8007208BF007108BE007008BD0000308312C3
:100BC8000313A3000030A2000030A1000A30A000E7
:100BD80083160313400883120313A7008316031315
:100BE8003F0883120313A600831603133E088312DB
:100BF8000313A500831603133D0883120313A400EF
:100C08000A168A1569240A128A1183120313230803
:100C180083160313C00083120313220883160313D9
:100C2800BF0083120313210883160313BE00831227
:100C38000313200883160313BD003D08303EAF00A0
:100C4800450884002F08831380000130AF002F0867
:100C5800C5074C08AF0001300310AF0DFF3E031D60
:100C6800302E03102F0D693E84000A128A150A20BF
:100C78000A128A1183120313A0000A128A150A2085
:100C88000A128A11A1000A128A150A200A128A1168
:100C9800A2000A128A150A200A128A11A3008316D2
:100CA8000313440883120313A7008316031343088E
:100CB80083120313A6008316031342088312031337
:100CC800A50083160313410883120313A4000A1610
:100CD8008A1569240A128A118312031323088316BA
:100CE8000313C40083120313220883160313C300DB
:100CF80083120313210883160313C20083120313FC
:100D0800200883160313C1000130CC024C0A031DCE
:100D18008E2E8F2EA72DA12E3030AF0045088400CF
:100D28002F08831380000130AF002F08C507FF305C
:100D3800CA070318CB0AFF30CB074A084B04031D28
:100D4800A62EA72E902ED02F3808840083130008D3
:100D5800AF00840A0008B0002F08C1003008C200A4
:100D68000030C21BFF30C300C4000230AF002F08A0
:100D7800B807C41FC02EC12ED02E0330B9040030CE
:100D8800BA04C109C209C309C409C10A0319C20ABC
:100D98000319C30A0319C40A4A084B04031DD52EB4
:100DA800D62EE42E4408430442044104031DDD2EDC
:100DB800DE2EE42E0130CA070318CB0A0030CB0719
:100DC800CC01CC0A4C08AF0001300310AF0DFF3E38
:100DD800031DE92E03102F0D693E84000A128A159F
:100DE8000A200A128A11B0000A128A150A200A1269
:100DF8008A11B1000A128A150A200A128A11B20051
:100E08000A128A150A200A128A11B300330844020A
:100E1800031D182F32084302031D182F3108420200
:100E2800031D182F3008410203181B2F1C2F1D2FDC
:100E3800272F0130AF002F08CC070A304C06031DBE
:100E4800262F272FE62E4B08803A803C031D2E2F95
:100E58004A084C020318312F322F332F4B2F831699
:100E680003134B08803AAF0080302F02031D3E2F3A
:100E78004C084A020318412F422F4B2F83160313A5
:100E88004C08AF00B0012F08CA003008CB0003306F
:100E9800831603133905AF0000303A05B0002F0858
:100EA80030040319582F592FC22F2D30AF00450891
:100EB80084002F08831380000130AF002F08C50776
:100EC800C22F003083120313A3000030A2000030A9
:100ED800A1000A30A000831603134A08AF000130AE
:100EE8000310AF0DFF3E031D742F03102F0D693E35
:100EF80084000A128A150A200A128A11F0000A12BE
:100F08008A150A200A128A11F1000A128A150A2083
:100F18000A128A11F2000A128A150A200A128A1184
:100F2800F3004408F7004308F6004208F5004108BA
:100F3800F4000A168A1518250A128A1173088312F2
:100F48000313A7007208A6007108A5007008A40082
:100F58000A168A1569240A128A11831203132008B3
:100F6800303E83160313B0003008CC004C08AF00A5
:100F7800450884002F0883138000602FFF30CA07BC
:100F88000318CB0AFF30CB074A0A031DCF2F4B0AA1
:100F9800031DCF2FD02F652F0130A007FF3020076A
:100FA80084000A128A150A200A128A11AF002F0833
:100FB800CC004C08031DE12FE22F4E284508840081
:100FC80083138001080083120313EE018313E130B9
:100FD8008400ED300A168A154A210A128A118317ED
:100FE80090308400A4300A168A154A210A128A1100
:100FF80083010A168A11632BFF1B0A2883137F18A3
:1010080083170008840A0319FF0A080008308A00B9
:101018000408840A820700340034003480343F34E2
:10102800003400342034413400340034C8344234AD
:10103800003400347A344434003440341C344634A8
:1010480000345034C33447340034243474344934BD
:101058008034963418344B342034BC34BE344C3489
:1010680028346B346E344E34F93402341534503429
:10107800EC347834AD346034CA34F23449347134E1
:101088000034003480343F34CD34CC34CC343D3457
:101098000A34D73423343C346F34123483343A342A
:1010A8001734B734D1343834AC34C53427343734F2
:1010B800BD343734863435349534BF34D63433347C
:1010C8007734CC342B3432345F3470348934303450
:1010D800FF34E634DB342E340834E5343C341E3433
:1010E80060344234A2340D34013400340034003406
:1010F8000A340034003400346434003400340034DA
:10110800E834033400340034103427340034003415
:10111800A034863401340034403442340F3400346F
:1011280080349634983400340034E134F53405348E
:101138000034CA349A343B3425342E34313466347E
:101148002034203425342E3431346634203420348D
:1011580025342E34313466342034253464340A344A
:10116800003453343134203420345334323420346E
:10117800203453343334203420345334343400345A
:10118800031083120313530D540DD5005508DB00CB
:101198005B08031DD028D128DA280030D40000309D
:1011A800D3000030D2000030D1003F295108D500CB
:1011B8005208D6005308D7005408D8001F3003102F
:1011C800D80CD70CD60CD50CFF3E031DE3285508C8
:1011D800D9005908DA00D317FF30D105FF30D205FE
:1011E800FF30D3050030D4059630DB02DB1FFD2825
:1011F800FE2818295B08803A973E03180429052918
:101208000629D12801300310D40CD30CD20CD10CF0
:10121800FF3E031D07290130D5005508DB07031DD4
:101228001629172906292F2920305B02031C1D299E
:101238001E292A29D1280130D5000310D10DD20D3D
:10124800D30DD40DD50B21290130DB025B08031D1A
:101258002E292F291F295A080319332934293F29F0
:10126800D109D209D309D409D10A0319D20A031919
:10127800D30A0319D40A080083120313D000D01F1D
:1012880046294729F42AD009D00A5008803A123E44
:10129800031C4F295029382A0A30F7000030F8007B
:1012A8005008F200F301F21BF3036430F000003041
:1012B800F1000A168A15BF240A128A157108FA0065
:1012C8007008F9000A168A1131200A128A1577085F
:1012D80083120313C20001300310C20DFF3E031D29
:1012E80070290310420D593E84000A128A150A20FB
:1012F8000A128A15C3000A128A150A200A128A15C8
:10130800C4000A128A150A200A128A15C5000A1290
:101318008A150A200A128A15C6004608A700450839
:10132800A6004408A5004308A4006430F700003074
:10133800F8005008F900FA01F91BFA030A168A1195
:1013480031200A128A15770883120313C700013067
:101358000310C70DFF3E031DAC290310470D7D3E4A
:1013680084000A128A150A200A128A15C8000A126D
:101378008A150A200A128A15C9000A128A150A2033
:101388000A128A15CA000A128A150A200A128A1530
:10139800CB004B08AB004A08AA004908A900480836
:1013A800A8000A128A159F240A128A1583120313A9
:1013B8002708CF002608CE002508CD002408CC0039
:1013C8000A30F0000030F1005008F200F301F21B7F
:1013D800F3030A168A15BF240A128A1570088312A5
:1013E8000313C20001300310C20DFF3E031DF7298D
:1013F8000310420D353E84000A128A150A200A128B
:101408008A15C3000A128A150A200A128A15C4000E
:101418000A128A150A200A128A15C5000A128A15A4
:101428000A200A128A15C6004608A7004508A60021
:101438004408A5004308A4004F08AB004E08AA00C2
:101448004D08A9004C08A8000A128A159F240A1200
:101458008A15831203132708C1002608C00025082F
:10146800BF002408BE009E2C5008803A753E031C1D
:101478003E2A3F2AC72A0A30F0000030F1005008FF
:10148800F200F301F21BF3030A168A15BF240A12AD
:101498008A15700883120313C20001300310C20DAD
:1014A800FF3E031D522A0310420D353E84000A12E6
:1014B8008A150A200A128A15C3000A128A150A20F8
:1014C8000A128A15C4000A128A150A200A128A15F5
:1014D800C5000A128A150A200A128A15C60046088B
:1014E800A7004508A6004408A5004308A4000A3040
:1014F800F7000030F8005008F900FA01F91BFA0368
:101508000A168A1131200A128A15770883120313E2
:10151800C70001300310C70DFF3E031D8E2A0310BC
:10152800470D593E84000A128A150A200A128A15A4
:10153800C8000A128A150A200A128A15C9000A1256
:101548008A150A200A128A15CA000A128A150A2060
:101558000A128A15CB004B08AB004A08AA004908B2
:10156800A9004808A8000A128A159F240A128A1599
:10157800831203132708C1002608C0002508BF00EE
:101588002408BE009E2C5008C20001300310C20D72
:10159800FF3E031DCA2A0310420D353E84000A127D
:1015A8008A150A200A128A15C3000A128A150A2007
:1015B8000A128A15C4000A128A150A200A128A1504
:1015C800C5000A128A150A200A128A15C60046089A
:1015D800C1004508C0004408BF004308BE009E2C57
:1015E8005008803A123E031CFA2AFB2AE32B0A30E1
:1015F800F7000030F8005008F200F301F21BF30383
:101608006430F0000030F1000A168A15BF240A126F
:101618008A157108FA007008F9000A168A11312033
:101628000A128A15770883120313C20001300310C7
:10163800C20DFF3E031D1B2B0310420D253E8400E7
:101648000A128A150A200A128A15C3000A128A1574
:101658000A200A128A15C4000A128A150A200A12D8
:101668008A15C5000A128A150A200A128A15C600A8
:101678004608A7004508A6004408A5004308A4009A
:101688006430F7000030F8005008F900FA01F91B3F
:10169800FA030A168A1131200A128A15770883126A
:1016A8000313C70001300310C70DFF3E031D572B5E
:1016B8000310470D493E84000A128A150A200A12AF
:1016C8008A15C8000A128A150A200A128A15C90042
:1016D8000A128A150A200A128A15CA000A128A15DD
:1016E8000A200A128A15CB004B08AB004A08AA0048
:1016F8004908A9004808A8000A128A159F240A1256
:101708008A15831203132708CF002608CE00250860
:10171800CD002408CC000A30F0000030F100500859
:10172800F200F301F21BF3030A168A15BF240A120A
:101738008A15700883120313C20001300310C20D0A
:10174800FF3E031DA22B0310420D013E84000A1226
:101758008A150A200A128A15C3000A128A150A2055
:101768000A128A15C4000A128A150A200A128A1552
:10177800C5000A128A150A200A128A15C6004608E8
:10178800A7004508A6004408A5004308A4004F0880
:10179800AB004E08AA004D08A9004C08A8000A1280
:1017A8008A159F240A128A15831203132708C10079
:1017B8002608C0002508BF002408BE009E2C50083B
:1017C800803A753E031CE92BEA2B722C0A30F00094
:1017D8000030F1005008F200F301F21BF3030A167F
:1017E8008A15BF240A128A15700883120313C200CF
:1017F80001300310C20DFF3E031DFD2B0310420DE7
:10180800013E84000A128A150A200A128A15C300AA
:101818000A128A150A200A128A15C4000A128A15A1
:101828000A200A128A15C5000A128A150A200A1205
:101838008A15C6004608A7004508A6004408A50062
:101848004308A4000A30F7000030F8005008F900F7
:10185800FA01F91BFA030A168A1131200A128A15AD
:10186800770883120313C70001300310C70DFF3E2A
:10187800031D392C0310470D253E84000A128A15D2
:101888000A200A128A15C8000A128A150A200A12A2
:101898008A15C9000A128A150A200A128A15CA006E
:1018A8000A128A150A200A128A15CB004B08AB00C7
:1018B8004A08AA004908A9004808A8000A128A1577
:1018C8009F240A128A15831203132708C1002608C9
:1018D800C0002508BF002408BE009E2C5008C20086
:1018E80001300310C20DFF3E031D752C0310420D7D
:1018F800013E84000A128A150A200A128A15C300BA
:101908000A128A150A200A128A15C4000A128A15B0
:101918000A200A128A15C5000A128A150A200A1214
:101928008A15C6004608C1004508C0004408BF0023
:101938004308BE0008008312031327088039AC004F
:101948002C08B1002708AC002C07AD002D08B70003
:10195800A61FAF2CB02CB12C371437080319B52C9F
:10196800B62CC52C370A031DBA2CBB2CC32C00304F
:10197800A7000030A6000030A5000030A400A6177C
:10198800CD2C0030A7000030A6000030A5000030A4
:10199800A4002B088039AC002C08B1062B08AC0039
:1019A8002C07AD002D08B600AA1FDB2CDC2CDD2C83
:1019B800361436080319E12CE22CF12C360A031DE3
:1019C800E62CE72CEF2C0030AB000030AA000030EA
:1019D800A9000030A800AA17F92C0030AB0000308D
:1019E800AA000030A9000030A80036080319FD2C11
:1019F800FE2C032D3708031D022D032D0C2D00305E
:101A0800A7000030A6000030A5000030A400FF2F7A
:101A18002408AC002C08F0002A080A168A1571223E
:101A28000A128A15710883120313BD007008BC00DE
:101A38003C08AC00AD01AE01AF012F08B5002E087F
:101A4800B4002D08B3002C08B2003D08AC00AD016D
:101A5800AE01AF012F08BB002E08BA002D08B9004F
:101A68002C08B8002508AC002C08F00029080A1634
:101A78008A1571220A128A15710883120313BD0090
:101A88007008BC003C08AC00AD01AE01AF012C08E9
:101A9800B2072D0803110318013E0319542DB3078B
:101AA8002E0803110318013E03195B2DB4072F08F4
:101AB80003110318013E0319622DB5073D08AC0058
:101AC800AD01AE01AF012C08B8072D0803110318AA
:101AD800013E0319702DB9072E0803110318013EA2
:101AE8000319772DBA072F0803110318013E0319AC
:101AF8007E2DBB072608AC002C08F00028080A1623
:101B08008A1571220A128A15710883120313BD00FF
:101B18007008BC003C08AC00AD01AE01AF012C0858
:101B2800B2072D0803110318013E03199C2DB307B2
:101B38002E0803110318013E0319A32DB4072F081B
:101B480003110318013E0319AA2DB5073D08AC007F
:101B5800AD01AE01AF012C08B8072D080311031819
:101B6800013E0319B82DB9072E0803110318013EC9
:101B78000319BF2DBA072F0803110318013E0319D3
:101B8800C62DBB070830AC000310B20DB30DB40D61
:101B9800B50DAC0BC82D2508AC002C08F0002808A2
:101BA8000A168A1571220A128A15710883120313FC
:101BB800BD007008BC003C08AC003D08AD00AE019B
:101BC800AF012C08B2072D0803110318013E0319B1
:101BD800EE2DB3072E0803110318013E0319F52D46
:101BE800B4072F0803110318013E0319FC2DB5078C
:101BF8002408AC002C08F00029080A168A1571225E
:101C08000A128A15710883120313BD007008BC00FC
:101C18003C08AC003D08AD00AE01AF012C08B2078E
:101C28002D0803110318013E03191B2EB3072E08B4
:101C380003110318013E0319222EB4072F080311BC
:101C48000318013E0319292EB5070830AC0003100C
:101C5800B20DB30DB40DB50DAC0B2B2E2408AC0092
:101C68002C08F00028080A168A1571220A128A150B
:101C7800710883120313BD007008BC003C08AC0057
:101C88003D08AD00AE01AF012C08B2072D080311C5
:101C98000318013E0319512EB3072E080311031828
:101CA800013E0319582EB4072F0803110318013EEB
:101CB80003195F2EB5072508AC002C08F0002A0888
:101CC8000A168A1571220A128A15710883120313DB
:101CD800BD007008BC003C08AC003D08AD00AE017A
:101CE800AF012C08B8072D0803110318013E03198A
:101CF8007E2EB9072E0803110318013E0319852EFD
:101D0800BA072F0803110318013E03198C2EBB07CD
:101D18002608AC002C08F00029080A168A1571223A
:101D28000A128A15710883120313BD007008BC00DB
:101D38003C08AC003D08AD00AE01AF012C08B80767
:101D48002D0803110318013E0319AB2EB9072E08FD
:101D580003110318013E0319B22EBA072F08031105
:101D68000318013E0319B92EBB072608AC002C083E
:101D7800F0002A080A168A1571220A128A157108B3
:101D880083120313BD007008BC003C08AC003D087A
:101D9800AD00AE01AF0108300310AC0DAD0DAE0DB6
:101DA800AF0DFF3E031DD02E2C08B8072D080311D8
:101DB8000318013E0319E12EB9072E080311031871
:101DC800013E0319E82EBA072F0803110318013E34
:101DD8000319EF2EBB073208AC003308AD003408F6
:101DE800AE003508AF0018300310AF0CAE0CAD0CC8
:101DF800AC0CFF3E031DF82E2C08B8072D08031164
:101E08000318013E0319092FB9072E0803110318F7
:101E1800013E0319102FBA072F0803110318013EBA
:101E28000319172FBB070830AC000310B20DB30D10
:101E3800B40DB50DAC0B192F37083607AC00AD0142
:101E4800AD0D2C08823EBC002D080318013EFF3E54
:101E5800BD004B2F0130AC000310B80DB90DBA0D01
:101E6800BB0DAC0B302FB51F3A2F3B2F3C2F38142E
:101E78000130AC000310B20DB30DB40DB50DAC0BB1
:101E88003E2FFF30BC070318BD0AFF30BD07BA1F3D
:101E98004E2F4F2F2E2FB601B51F532F542F702FB3
:101EA800FF303205AC00FF303305AD00FF3034059C
:101EB800AE007F303505AF002F082E042D042C040A
:101EC8000319672F682F6B2FB601B60A702F381CBD
:101ED8006E2F6F2F702F682F36080319742F752FE8
:101EE800A62F0130B807003003180130B9070030B9
:101EF80003180130BA07003003180130BB073B1C38
:101F0800862F872FA62F3808AC003908AD003A086D
:101F1800AE003B08AF000130B0002F0DAF0CAE0C87
:101F2800AD0CAC0CB00B912F2F08BB002E08BA00DB
:101F38002D08B9002C08B8000130BC070318BD0AE9
:101F48000030BD073D08803AFF0080307F02031D46
:101F5800AF2FFF303C02031CB22FB32FBE2F7F30B0
:101F680083120313BB008030BA000030B900003080
:101F7800B800F32F831203133D08803AFF00803026
:101F88007F02031DC92F01303C020318CC2FCD2F2F
:101F9800D92F003083120313BB000030BA00003081
:101FA800B9000030B800B101F32F831203133C08C5
:101FB800AC002C08B700FF30B805FF30B9057F30FA
:101FC800BA050030BB05371CEA2FEB2FEC2FBA17E8
:101FD8003708AC0003102C0CAD002D08BB003108ED
:101FE800AC002C08BB043B08A7003A08A600390837
:081FF800A5003808A400080050
:102006000A168A1579210A168A1183160313911561
:102016000A168A1579210A168A11831203131308E0
:10202600F200F3017208F4007308F5000A168A1527
:1020360079210A168A1170037104031D23282428A6
:1020460028288316031391122B288316031391163F
:1020560011167508F1007408F000080083120313C6
:10206600A101F81F372838283F28F709F809F70A89
:102076000319F80AA101A10AFA1F422843284C288D
:10208600F909FA09F90A0319FA0A0130FB007B0873
:10209600A106A201A301770878040319532854283E
:1020A6008B28A001A00A622801300310F70DF80D55
:1020B600FF3E031D58280130FB007B08A007F81FD0
:1020C60065286628572801300310A20DA30DFF3E90
:1020D600031D672878087A02031D7328770879029A
:1020E600031C762877287E287708F9027808031CCF
:1020F600FA03FA02221401300310F80CF70CFF3E23
:10210600031D7F280130A002031D8A288B2866281C
:10211600210803198F2890289528A209A309A20A45
:102126000319A30A2308F8002208F7000800031081
:10213600720D730DF800780883120313A5002508A5
:10214600031DA628A728B0280030F3000030F200AF
:102156000030F1000030F00057290310760D770D9E
:10216600F8007808A4002408031DBA28BB28BC2858
:10217600A728F217FF30F005FF30F105FF30F20512
:102186000030F305F617FF30F405FF30F505FF3094
:10219600F6050030F7050030A3000030A20000303D
:1021A600A1000030A0007F30A502A0302407F8006F
:1021B6007808A5022030F8007808A4000130F8005D
:1021C6000310A00DA10DA20DA30DF80BE3287708AF
:1021D6007302031DF82876087202031DF828750895
:1021E6007102031DF82874087002031CFB28FC28E2
:1021F6000B297408F0027508031C750FF1027608A6
:10220600031C760FF2027708031C770FF3022014E3
:102216000130F8000310F00DF10DF20DF30DF80B7F
:102226000D290130A402031D19291A29E128A51F29
:102236001D291E2938292508803A9F3E031824297E
:1022460025292629A72801300310A30CA20CA10CCE
:10225600A00CFF3E031D27290130F8007808A507CA
:10226600031D3629372926294F2920302502031C2C
:102276003D293E294A29A7280130F8000310A00D60
:10228600A10DA20DA30DF80B41290130A5022508C9
:10229600031D4E294F293F292308F3002208F20087
:1022A6002108F1002008F000080083120313D10072
:1022B6006E305102031C602961296E2A3F30A70047
:1022C6000030A6000030A5000030A4006430F600FF
:1022D6000030F7005108C200C3014208F800430865
:1022E600F9000A168A1586230A168A1176088312B9
:1022F6000313C40001300310C40DFF3E031D7E29E5
:102306000310440D7D3E84000A128A150A200A161F
:102316008A11C5000A128A150A200A168A11C600F1
:102326000A128A150A200A168A11C7000A128A1585
:102336000A200A168A11C8004808AB004708AA00F6
:102346004608A9004508A8000A128A159F240A16FD
:102356008A11831203132708D0002608CF00250808
:10236600CE002408CD000A30F6000030F7005108F0
:10237600C200C3014208F2004308F3006430F000D3
:102386000030F1000A168A15D0220A168A11710841
:10239600F9007008F8000A168A1586230A168A11AB
:1023A600760883120313C40001300310C40DFF3EE8
:1023B600031DD8290310440D593E84000A128A15BC
:1023C6000A200A168A11C5000A128A150A200A1658
:1023D6008A11C6000A128A150A200A168A11C7002F
:1023E6000A128A150A200A168A11C8004808A70088
:1023F6004708A6004608A5004508A4005008AB00FB
:102406004F08AA004E08A9004D08A8000A128A150E
:102416009F240A168A11831203132708CC00260864
:10242600CB002508CA002408C9000A30F000003095
:10243600F1005108C200C3014208F2004308F3004C
:102446000A168A15D0220A168A11700883120313F7
:10245600C40001300310C40DFF3E031D2D2A0310D6
:10246600440D353E84000A128A150A200A168A117E
:10247600C5000A128A150A200A168A11C6000A120F
:102486008A150A200A168A11C7000A128A150A2016
:102496000A168A11C8004808A7004708A600460879
:1024A600A5004508A4004C08AB004B08AA004A0842
:1024B600A9004908A8000A128A159F240A168A113B
:1024C600831203132708C1002608C0002508BF0091
:1024D6002408BE00622B0B305102031C732A742A97
:1024E6001F2B3F30A7000030A6000030A5000030AB
:1024F600A4000A30F6000030F7005108C200C301FC
:102506004208F8004308F9000A168A1586230A16B7
:102516008A11760883120313C40001300310C40D18
:10252600FF3E031D912A0310440D593E84000A12F2
:102536008A150A200A168A11C5000A128A150A2067
:102546000A168A11C6000A128A150A200A168A1164
:10255600C7000A128A150A200A168A11C8004808F6
:10256600AB004708AA004608A9004508A8000A12B9
:102576008A159F240A168A11831203132708D0008E
:102586002608CF002508CE002408CD000A30F0002A
:102596000030F1005108C200C3014208F2004308AE
:1025A600F3000A168A15D0220A168A1170088312B9
:1025B6000313C40001300310C40DFF3E031DDE2AC1
:1025C6000310440D353E84000A128A150A200A16A5
:1025D6008A11C5000A128A150A200A168A11C6002F
:1025E6000A128A150A200A168A11C7000A128A15C3
:1025F6000A200A168A11C8004808A7004708A6003C
:102606004608A5004508A4005008AB004F08AA00DC
:102616004E08A9004D08A8000A128A159F240A161A
:102626008A11831203132708C1002608C000250853
:10263600BF002408BE00622B3F30A7000030A60072
:102646000030A5000030A4005108C200013003107C
:10265600C20DFF3E031D2A2B0310420D353E84009A
:102666000A128A150A200A168A11C3000A128A1546
:102676000A200A168A11C4000A128A150A200A16A6
:102686008A11C5000A128A150A200A168A11C6007E
:102696004608AB004508AA004408A9004308A8005C
:1026A6000A128A159F240A168A1183120313270811
:1026B600C1002608C0002508BF002408BE00080087
:1026C6000A168A1548230A168A110A168A15182424
:1026D6000A168A110A168A1586210A168A11F40123
:1026E600F40A01300A168A1504220A168A11A6303F
:1026F600F3008030F4000A128A1104200A168A11A7
:10270600003083120313A3000130A2008630A1001B
:10271600A030A0000A168A1598220A168A110A16EF
:102726008A1552210A168A115130F0000030F10044
:102736000A168A1564210A168A110030F000F10083
:102746000A168A1103200A168A11700883120313C7
:1027560086000A168A155B210A168A1182308316AC
:102766000313CE00DD30CD00CD0BB72BCE0BB72B30
:102776000A168A1552210A168A116130F0000030B5
:10278600F1000A168A1564210A168A110030F00033
:10279600F1000A168A1103200A168A117008831698
:1027A6000313CD004D08EB000A168A155B210A16A5
:1027B6008A11823083160313CE00DD30CD00CD0B97
:1027C600E22BCE0BE22B0A168A1552210A168A1123
:1027D6008030F0000030F1000A168A1564210A16CE
:1027E6008A11F330F0000030F1000A168A156421D0
:1027F6000A168A110A168A155B210A168A110230F0
:1028060083160313CF000430CE00B930CD00CD0BB4
:102816000A2CCE0B0A2CCF0B0A2C112C0A168A1561
:1028260052210A168A118130F0000030F1000A1692
:102836008A1564210A168A110030F000F1000A1682
:102846008A1103200A168A11700883120313850061
:102856000A168A155B210A168A118230831603131B
:10286600CE00DD30CD00CD0B362CCE0B362C8312B0
:102876000313060883160313CD004D08EC008312DC
:102886000313050883160313CD004D08E9003C30F9
:1028960083120313A700D430A600FD30A500F43040
:1028A600A400831603136C08CD00CE01CF01D0011E
:1028B6005008F3004F08F2004E08F1004D08F000F2
:1028C60001300A168A1589260A168A117308831298
:1028D6000313AB007208AA007108A9007008A800CB
:1028E6000A128A159F240A168A11831203132708CF
:1028F60083160313E80083120313260883160313B3
:10290600E70083120313250883160313E6008312D8
:102916000313240883160313E5003C3083120313C4
:10292600A700A030A6009030A5002E30A400831684
:1029360003136B08CD00CE01CF01D0015008F30080
:102946004F08F2004E08F1004D08F00001300A165B
:102956008A1589260A168A11730883120313AB0097
:102966007208AA007108A9007008A8000A128A1540
:102976009F240A168A11831203132708831603134A
:10298600E40083120313260883160313E30083125D
:102996000313250883160313E20083120313240886
:1029A60083160313E1006908BC3EF000FF300318EC
:1029B6000030F100F201F11BF2037208F30001305E
:1029C6000A168A1589260A168A11730883160317AA
:1029D600A3007208A2007108A1007008A00091303F
:1029E60083160313CD004D08A0006808A4006708ED
:1029F600A3006608A2006508A1006408A800630891
:102A0600A7006208A6006108A5008316031723081D
:102A160083160313AC0083160317220883160313C9
:102A2600AB0083160317210883160313AA00831627
:102A36000317200883160313A9006A08CE00CF01E6
:102A46004E08AD004F08AE00D1300A128A1146205A
:102A56000A168A11D1300A168A15E5210A168A1134
:102A6600F401F40A02300A168A1504220A168A119B
:102A7600D130F3000030F4000A128A1104200A163D
:102A86008A11831203138C1E492D4A2D652D532D51
:102A96000130CD004D08EA07652D0130EA02652DAB
:102AA6001A0883160313CD00CE014E08003A031907
:102AB6005D2D652D4D082B3A03194B2D063A03194A
:102AC600502D652D023083160313CF000430CE003F
:102AD600B930CD00CD0B6D2DCE0B6D2DCF0B6D2DE1
:102AE600742D922B0A128A1100288312031355089B
:102AF6008039DA005A08E2005508DA005A07DB0086
:102B06005B08E400D41F882D892D8A2D641464087F
:102B160003198E2D8F2D9F2D640A031D932D942D41
:102B26009C2D0030D5000030D4000030D30000309A
:102B3600D200D417D501A72D0030D5000030D4001F
:102B46000030D3000030D20059088039DA005A0824
:102B5600E300630862060319B12DB22DB32D621787
:102B66005908DA005A07DB005B08E300D81FBC2DC2
:102B7600BD2DBE2D631463080319C22DC32DD32D9D
:102B8600630A031DC72DC82DD02D0030D900003093
:102B9600D8000030D7000030D600D817D901DB2D79
:102BA6000030D9000030D8000030D7000030D60001
:102BB600640863020318E02DE12D252E621FE42D23
:102BC600E52DE92D8030DA005A08E2066408DA00BD
:102BD6005A08E5006308DA005A08E4006508DA00D6
:102BE6005A08E3005208DA005A08E5005608DA00E7
:102BF6005A08D2006508DA005A08D6005308DA00E7
:102C06005A08E5005708DA005A08D3006508DA00C2
:102C16005A08D7005408DA005A08E5005808DA00BE
:102C26005A08D4006508DA005A08D8005508DA00B0
:102C36005A08E5005908DA005A08D5006508DA008E
:102C46005A08D900E5016308DA00DB015B08DD00FC
:102C560064085A02DC00031CDD035D08803AFF00AD
:102C660080307F02031D392E1A305C02031C3C2E75
:102C76003D2E7A2E8312031355085404530452042E
:102C8600031D462E482E0130492E0030DA005A0820
:102C9600E5000030D5000030D4000030D30000300D
:102CA600D2006308DA005A08E400822E651C5C2E06
:102CB6005D2E662E6508DA0003105A0C0138DB001B
:102CC6005B08E500682E0310E50C521C6B2E6C2E7B
:102CD6006D2EE5170130DA00550DD50CD40CD30C4A
:102CE600D20CDA0B6F2E0130DA005A08E407831291
:102CF600031363086402031C812E822E592E621B65
:102D0600852E862ED12E6408031D8A2E8B2E942E98
:102D16000030D5000030D4000030D3000030D2009F
:102D2600FF2F5608D207570803110318013E03194F
:102D36009D2ED307580803110318013E0319A42E2C
:102D4600D407590803110318013E0319AB2ED50702
:102D5600551CAE2EAF2E852F651CB22EB32EBC2E63
:102D66006508DA0003105A0C0138DB005B08E50041
:102D7600BE2E0310E50C521CC12EC22EC32EE51723
:102D86000130DA00550DD50CD40CD30CD20CDA0B6D
:102D9600C52E0130DA005A08E407852F5508803A17
:102DA600FF005908803A7F02031DE32E580854029B
:102DB600031DE32E57085302031DE32E5608520245
:102DC6000318E62EE72E3F2FFF30DA00FF30DB0038
:102DD600FF30DC00FF30DD005608DE005708DF005C
:102DE6005808E0005908E1005208DE025308031CA7
:102DF600530FFE2EFF2EDF025408031C540F042F20
:102E0600052FE0025508031C550F0A2F0B2FE10270
:102E16005E08DA075F0803185F0F122F132FDB0710
:102E260060080318600F182F192FDC0761080318B4
:102E3600610ADD075D08D5005C08D4005B08D30095
:102E46005A08D2008030DA005A08E206E509E50A97
:102E56006508031D2F2F302F4D2F0130D20700306C
:102E660003180130D307003003180130D4070030AF
:102E760003180130D5074D2F5608D2025708031CF8
:102E8600570FD3025808031C580FD4025908031CC5
:102E9600590FD5025508540453045204031D542FE8
:102EA600552F812F6508031D592F5A2F812F00306A
:102EB600D5000030D4000030D3000030D200FF2F00
:102EC6000130DA000310D20DD30DD40DD50DDA0B77
:102ED600652FE51F6F2F702F712F5214651C742FED
:102EE600752F782F0314E50D7A2F0310E50D64086E
:102EF60003197E2F7F2F812F0130E402D41F842FE8
:102F0600852F632FE301E51F892F8A2F982F6508E8
:102F16007F3903198F2F902F932FE301E30A982F00
:102F2600521C962F972F982F902F630803199C2FCA
:102F36009D2FD12F0130D207003003180130D3075F
:102F4600003003180130D407003003180130D507CC
:102F5600551CAE2FAF2FD12F5208DA005308DB00D5
:102F66005408DC005508DD000130DE005D0DDD0C87
:102F7600DC0CDB0CDA0CDE0BB92F5D08D5005C0827
:102F8600D4005B08D3005A08D200640A0319CC2F78
:102F9600CD2FD12F0130DA005A08E407640A03194D
:102FA600D52FD62FDB2F6408031DDA2FDB2FE92F51
:102FB6000030D5000030D4000030D3000030D200FD
:102FC6006408031DE72FE82FE92FE201641CEC2FAC
:102FD600ED2FEF2FD417F32F7F30DA005A08D405E0
:102FE6006408DA0003105A0CDB005B08D500E21F08
:0A2FF600FD2FFE2FFF2FD517080056
:1032940064008001840A04060319003404064B29DF
:1032A4000A168A1579210A168A158316031311142E
:1032B40008000A168A1579210A168A15831603133B
:1032C400111508000A168A1579210A168A1570083C
:1032D40083120313930008007308720471047004CA
:1032E40003197529762978298030F3060800831696
:1032F400031314197E297F29792911081F39031D05
:10330400842985297929080000300A168A15CB21D9
:103314000A168A1501300A168A15CB210A168A154F
:103324000800F00083160313981C99299A299429FC
:10333400831203130C1E9F29A029A2297008990047
:103344000800F100F0013A3071020318AA29AB29F0
:10335400B32930307102031CB029B129B329F0011B
:10336400F00A700C0800F2008312031307147208A9
:103374000A168A150A230A168A1583120313871458
:103384001A30F100F10BC4290000831203138710D3
:103394000800F30083120313071073080A168A1532
:1033A4000A230A168A158312031387140B30F200BA
:1033B4006230F100F10BDC29F20BDC2900008312EE
:1033C400031387100800F200F32972088400000830
:1033D4000A168A1593210A168A150130F10071081C
:1033E400F2077208840083130008031DFA29FB29DD
:1033F400E729831203130C1E002A012A032A0D3025
:1034040099000800F6007603031D092A0A2A162AE1
:1034140074087F3EF5007508F70077080A168A15C8
:10342400CB210A168A15272A02307606031D1B2A89
:103434001C2A272A7408BF3EF5007508F700770890
:103444000A168A15CB210A168A15080080308312C1
:103454000313E9066D08D5006C08D4006B08D3008B
:103464006A08D2006908D9006808D8006708D7003C
:103474006608D6000A168A1178250A168A15831258
:1034840003135508E9005408E8005308E7005208FC
:10349400E6000800F401F501701C512A522A582A4A
:1034A4007208F4070318F50A7308F50701300310CE
:1034B400F20DF30DFF3E031D592A01300310F10CE8
:1034C400F00CFF3E031D602A70087104031D6B2A73
:1034D4006C2A4E2A7508F1007408F0000800F80000
:1034E400F401F5017008F200F3017208F6007308A4
:1034F400F700781C7E2A7F2A852A7608F4070318A9
:10350400F50A7708F50701300310F60DF70DFF3EB5
:10351400031D862A0310F80C7808031D922A932AA7
:103524007B2A7508F1007408F00008002830831223
:1035340003139400831603139101831203132008C9
:10354400A4002108A5002208A6002308A700023031
:103554000310A40DA50DA60DA70DFF3E031DAA2A59
:103564002708F3002608F2002508F1002408F000DB
:103574000030F7007A30F6001230F5000030F40025
:103584000A168A1518250A168A157008FF3E83162E
:10359400031393009401871507160800700871043B
:1035A4000319D52AD62A052BF501F50AE42A013098
:1035B4000310F00DF10DFF3E031DDA2A0130F40073
:1035C4007408F507F11FE72AE82AD92A710873025B
:1035D400031DEE2A70087202031CF12AF22AF82A4B
:1035E4007008F2027108031CF303F30201300310A4
:1035F400F10CF00CFF3E031DF92A0130F502031D06
:10360400042B052BE82A7308F1007208F000080067
:10361400F000701C0E2B0F2B132B831203130814B2
:10362400162B831203130810F01C192B1A2B1C2BB6
:1036340088141D2B8810701D202B212B232B08157B
:10364400242B0811F01D272B282B2A2B88152B2B14
:103654008811701E2E2B2F2B312B0816322B08129B
:10366400F01E352B362B382B8816392B8812701FF9
:103674003C2B3D2B3F2B0817402B0813F01F432BEB
:10368400442B462B8817472B8813080083160317EF
:103694008801831603138501860188018030870021
:1036A40070308F040F140C17831203130C138B1731
:1036B4000B17831603138C120C1283120313850148
:1036C400860187018801890100300A168A157E2542
:1036D4000A168A158316031318121815831603176E
:1036E4008715CF308316031399009A0183120313AD
:1036F40098171813181683160313181398168312A1
:1037040003138C120C120800FB01FC0176087704E9
:1037140003198D2B8E2BC52BFD01FD0A9C2B01302B
:103724000310F60DF70DFF3E031D922B0130FA0036
:103734007A08FD07F71F9F2BA02B912B0130031054
:10374400FB0DFC0DFF3E031DA12B77087902031D21
:10375400AD2B76087802031CB02BB12BB82B76085E
:10376400F8027708031CF903F9027B1401300310F3
:10377400F70CF60CFF3E031DB92B0130FD02031DAF
:10378400C42BC52BA02B7C08F7007B08F60008008F
:1037940000307005F80000307105F90080307205C2
:1037A400FA007F307305FB007B087A0479047804FF
:1037B400031DDD2BDE2BE62B0030F3000030F2007E
:1037C4000030F1000030F00000307405F8000030E3
:1037D4007505F90080307605FA007F307705FB0027
:1037E4007B087A0479047804031DF92BFA2B022C44
:1037F4000030F7000030F6000030F5000030F4002F
:1038040077087306031D102C76087206031D102C0E
:1038140075087106031D102C740870060319132C07
:10382400142C162C0310172C0314080000300A164D
:103834008A150A230A168A153430F500F130F4008B
:10384400F40B222CF50B222C272C30300A168A1567
:10385400CB210A168A150D30F500FB30F400F40B69
:10386400312CF50B312C362C30300A168A15CB212D
:103874000A168A151D30F5009130F400F40B402C23
:10388400F50B402C30300A168A15CB210A168A15FE
:1038940038300A168A15CB210A168A1508300A16FA
:1038A4008A15CB210A168A1501300A168A15CB21EE
:1038B4000A168A1506300A168A15CB210A168A15A5
:1038C4000C300A168A15CB210A168A1508008312B1
:1038D400031323082204210420040319722C732CDB
:1038E400B62CA901A90A832C0130A8000310A00D4D
:1038F400A10DA20DA30DA80B782C0130A800280857
:10390400A907A31F862C872C762C23082702031DC6
:10391400952C22082602031D952C21082502031D3F
:10392400952C20082402031C982C992CA72C2008E1
:10393400A4022108031C210FA5022208031C220F44
:10394400A6022308031C230FA70201300310A30CB3
:10395400A20CA10CA00CFF3E031DA82C0130A9024F
:10396400031DB52CB62C872C2708A3002608A2001B
:103974002508A1002408A0000800F601F31FC32CA9
:10398400C42CCB2CF209F309F20A0319F30AF60149
:10399400F60AF11FCE2CCF2CD42CF009F109F00A31
:1039A4000319F10A700871040319D92CDA2C092DB2
:1039B400F501F50AE82C01300310F00DF10DFF3E7E
:1039C400031DDE2C0130F4007408F507F11FEB2C05
:1039D400EC2CDD2C71087302031DF22C70087202AA
:1039E400031CF52CF62CFC2C7008F2027108031C45
:1039F400F303F30201300310F10CF00CFF3E031D3E
:103A0400FD2C0130F502031D082D092DEC2C760840
:103A140003190D2D0E2D132DF209F309F20A0319C2
:103A2400F30A7308F1007208F00008000030FC008B
:103A34000030FB000030FA000030F9007308720413
:103A4400710470040319272D282D752DFD01FD0A1D
:103A5400382D0130F8000310F00DF10DF20DF30DC7
:103A6400F80B2D2D0130F8007808FD07F31F3B2DCE
:103A74003C2D2B2D0130F8000310F90DFA0DFB0D30
:103A8400FC0DF80B3E2D73087702031D532D7208AD
:103A94007602031D532D71087502031D532D700802
:103AA4007402031C562D572D662D7008F4027108FC
:103AB400031C710FF5027208031C720FF6027308DF
:103AC400031C730FF702791401300310F30CF20C8A
:103AD400F10CF00CFF3E031D672D0130FD02031DA8
:103AE400742D752D3C2D7C08F3007B08F2007A08B8
:103AF400F1007908F0000800F200D02DC3308312E1
:103B040003139F054230F000F00B862D0000831252
:103B140003131F139F131F14831603139F139F1262
:103B24001F12E62DC330831203139F054230F000A9
:103B3400F00B9A2D0000831203131F179F131F14F9
:103B4400831603139F139F121F12E62DC330831293
:103B540003139F054230F000F00BAE2D00008312DA
:103B640003131F139F171F14831603139F139F120E
:103B74001F12E62DC330831203139F054230F00059
:103B8400F00BC22D0000831203131F179F171F147D
:103B9400831603139F139F121F12E62D7208F00061
:103BA400F1017108003A0319D82DE62D7008003A86
:103BB4000319802D013A0319942D033A0319A82DF2
:103BC400013A0319BC2DE62D080000307005F800F9
:103BD40000307105F90080307205FA007F307305FA
:103BE400FB007B087A0479047804031DFA2DFB2D6D
:103BF400032E0030F3000030F2000030F1000030FA
:103C0400F00000307405F80000307505F9008030CC
:103C14007605FA007F307705FB007B087A04790487
:103C24007804031D162E172E1F2E0030F7000030C7
:103C3400F6000030F5000030F400F31F222E232E8E
:103C4400472E0030F8000030F9000030FA008030D0
:103C5400FB007008F8027108031C710F322E332E1A
:103C6400F9027208031C720F382E392EFA027308F7
:103C7400031C730F3E2E3F2EFB027B08F3007A08D1
:103C8400F2007908F1007808F000F71F4A2E4B2E55
:103C94006F2E0030F8000030F9000030FA00803058
:103CA400FB007408F8027508031C750F5A2E5B2E6E
:103CB400F9027608031C760F602E612EFA0277084B
:103CC400031C770F662E672EFB027B08F7007A0829
:103CD400F6007908F5007808F4008030F3068030A7
:103CE400F70677087302031D812E76087202031DFE
:103CF400812E75087102031D812E74087002031849
:103D0400842E852E872E0310882E03140800F800B5
:103D1400780803198E2E8F2EA32EF31F922E932E26
:103D2400A32E7009FA007109FB007209FC007309E3
:103D3400FD00FA0A0319FB0A0319FC0A0319FD0A18
:103D4400AB2E7308FD007208FC007108FB007008BC
:103D5400FA007308720471047004031DB22EB32EAA
:103D6400BC2E0030F3000030F2000030F1000030CF
:103D7400F000422F9630F4007408F900CE2E013082
:103D8400F4007408F90701300310FD0CFC0CFB0C63
:103D9400FA0CFF3E031DC62EFE307D05031DD32EF7
:103DA400D42EC12EF02E0130F4007408F90701302E
:103DB400FA07003003180130FB0700300318013004
:103DC400FC07003003180130FD0701300310FD0C1F
:103DD400FC0CFB0CFA0CFF3E031DE82EFF307D05A6
:103DE400031DF52EF62ED52E022F0130F9020130D7
:103DF400F4000310FA0DFB0DFC0DFD0DF40BFB2E6E
:103E0400FC1B052F062F0C2F0230790203180B2FF1
:103E14000C2FF72E79180F2F102F182FFF30FA05BB
:103E2400FF30FB057F30FC05FF30FD050310F90C66
:103E34007908F400F501F601F70118300310F40DC8
:103E4400F50DF60DF70DFF3E031D202F7408FA043F
:103E54007508FB047608FC047708FD047808031948
:103E6400342F352F3A2FF31F382F392F3A2FFD17C0
:103E74007D08F3007C08F2007B08F1007A08F0006A
:103E840008007008F8007108F9007208FA000310BD
:103E9400790D7A0DFB007B0883120313A500250816
:103EA400031D552F562F5F2F0030F3000030F20012
:103EB4000030F1000030F000FF2F7408F80075089E
:103EC400F9007608FA000310790D7A0DFB007B08DF
:103ED400A4002408031D6F2F702F712F562FF11784
:103EE400FF30F005FF30F1050030F205F517FF3023
:103EF400F405FF30F5050030F6050030A30000306E
:103F0400A2000030A1000030A0007F30A50298304C
:103F14002407F8007808A5021830F8007808A400EF
:103F24000130F8000310A00DA10DA20DA30DF80B94
:103F3400942F76087202031DA52F75087102031DC4
:103F4400A52F74087002031CA82FA92FB42F74087E
:103F5400F0027508031C750FF1027608031C760A3B
:103F6400F202201401300310F00DF10DF20DFF3EAA
:103F7400031DB52F0130A402031DC12FC22F922FA0
:103F8400A51FC52FC62FE02F2508803A973E03189A
:103F9400CC2FCD2FCE2F562F01300310A30CA20C03
:103FA400A10CA00CFF3E031DCF2F0130F8007808B0
:103FB400A507031DDE2FDF2FCE2FF72F1830250284
:103FC400031CE52FE62FF22F562F0130F8000310C3
:103FD400A00DA10DA20DA30DF80BE92F0130A50230
:103FE4002508031DF62FF72FE72F2308F3002208D7
:0C3FF400F2002108F1002008F000080095
:04400E00D420FF3F7C
:00000001FF
