:060000000A128A110C280F
:10000800FE00030EF3000A08F4000A128A118C2875
:100018000A128A110F28F501F601F701F801831277
:100028000313A001A101A201A301A401A501A60136
:10003800A70183010A128A113A2983120313AA001D
:100048007528C3309F05203083120313A800A80B1E
:100058002B280000831203131F139F131F148316EA
:1000680003139F139F121F128B28C3309F05203044
:1000780083120313A800A80B3F2800008312031360
:100088001F179F131F14831603139F139F121F120A
:100098008B28C3309F05203083120313A800A80BB8
:1000A80053280000831203131F139F171F1483166E
:1000B80003139F139F121F128B28C3309F052030F4
:1000C80083120313A800A80B6728000083120313E8
:1000D8001F179F171F14831603139F139F121F12B6
:1000E8008B282A08A800A9012908003A03197D28A5
:1000F8008B282808003A03192528013A03193928BA
:10010800033A03194D28013A031961288B2808007E
:10011800831203130C1F91289228BA281F0CF10090
:10012800710C0F39003A031D9A289B28A7281E082E
:10013800F100F2017108F7007208F8001F08C339CE
:1001480004389F00B9281F0CF100710C0F39013ACF
:10015800031DAF28B028B928C3309F051E08F10039
:10016800F2017108F5007208F6000C138C1DBD2809
:10017800BE28E7280A128A1153210A128A11F100AF
:10018800F201710883120313A6007208A70075080C
:100198000A128A1163210A128A110A128A1153213A
:1001A8000A128A11F100F201710883120313A400E4
:1001B8007208A50077080A128A1163210A128A11A7
:1001C800831203138C1174088A00730E8300FE0EC9
:1001D8007E0E0900033083160317880089018316F1
:1001E80003130514851486018801831203138601FD
:1001F80088018B170B178C11831603138C15851622
:1002080083120313A801A901AA0124300A128A1132
:100218001C210A128A11831603130F128F160F1747
:100228000F1402300A128A1121200A128A110800BA
:1002380083120313AB00831603138712831203136D
:100248002B1D272928292E292A08831603139400F1
:100258008715342928082A04831603139400871164
:10026800831203132B082904940008000A128A1128
:10027800EE200A128A11831203139F184429452974
:100288003F29203083120313AC00AC0B492900002E
:10029800831203139F143F290A128A110C280A1289
:1002A8008A115C210A128A118312031313080800A9
:1002B80083160313141C612962295C290800F000C5
:0A02C800700883120313930008006E
:04400E00D420FF3F7C
:00000001FF
