:020000040000FA
:060000000A128A110E280D
:10000800FE00030EF6000408F7000A08F8000A12BA
:100018008A1125280A128A11112883134130FD00FC
:100028000130FE000A30FF00313084000A128A11C4
:10003800FB200A128A11C101C20183010A128A1126
:10004800A0280B1C282829283A28831203130618ED
:100058002E282F2833280130F400740887078618C3
:10006800362837283928013087020B1083120313EA
:100078000C1F3F2840285B2842080706031D452817
:100088004628482806164928061200300A128A11FE
:100098001A210A128A11F400740883120313C20089
:1000A800552856280000831203130C139F140B1DA8
:1000B8005E285F28972881018628061142080F3993
:1000C8000A128A11DA200A128A118312031388008D
:1000D8008615C101C10A962886114208F400043029
:1000E8000310F40CFF3E031D742874080F390A121C
:1000F8008A11DA200A128A1183120313880006155E
:10010800C10196284108F400F5017508003A031961
:100118008E2896287408003A03196128013A0319B1
:10012800702896280B1178088A0077088400760EC4
:100138008300FE0E7E0E0900831603130F088F3905
:1001480040388F000F14831603178901081483168B
:100158000313850103308600870188018113151474
:10016800951483120313850186018701880183167C
:1001780003131614961481128111F8308105831225
:10018800031381010B110A128A1128210A128A11FC
:100198008B178B168B150B17831603130C178312EB
:1001A80003139F14D6280A128A110E2883120313E8
:1001B800B000203084003130F0000408F100103025
:1001C800F2007008840083130008F300F00A710835
:1001D800840073088000F10AF20BE5283008203EFD
:1001E8008400000808007E088A007F0882000A123E
:1001F8008A11F7200A128A118000840A04087D06F1
:1002080003190034FF0A0319FE0AFB283F34063499
:100218005B344F3466346D347D3407347F346F3447
:1002280077347C3439345E3479347134F1007108B0
:10023800F000F00DF00D831203131F087006C33988
:1002480070069F001E0808003F30831203139F05A5
:100258001F111F14831603139F121F129F130800E8
:04400E00D420FF3F7C
:00000001FF
