:020000040000FA
:100000000A128A11F32F00308A000408840A82073A
:100010000034013400340A34003464340034E834E9
:1000200003341034273470346F34743431343A3438
:100030002034253464342034203470346F347434E4
:1000400032343A342034253464342034203470344B
:0C00500063343A34203425346434003426
:100A5000F000700883120313930008008316031339
:100A6000141C332D342D2E2D080064008001840ABF
:100A70000406031900340406362D0A128A112E25A5
:100A80000A128A118312031313080800F000831658
:100A90000313981C4C2D4D2D472D831203130C1E50
:100AA000522D532D552D700899000800F300831620
:100AB00003138712731D5D2D5E2D622D7208940045
:100AC0008715662D700872049400871173087104ED
:100AD0008312031394000800F2007A2D7208840038
:100AE00000080A128A1146250A128A110130F10003
:100AF0007108F2077208840083130008031D812D1A
:100B0000822D6E2D831203130C1E872D882D8A2DA6
:100B10000D30990008007030831603138F040F14F2
:100B2000831603178901831603138501860190300C
:100B300087008801831203138501860187018801DC
:100B40000715831603131812181583160317871534
:100B5000CF308316031399009A0183120313981759
:100B6000181318168316031398168B170B17F0011A
:100B7000F101F20120300A128A1156250A128A1157
:100B80000800780879040319C62DC72DF62DFD013C
:100B9000FD0AD52D01300310F80DF90DFF3E031DA0
:100BA000CB2D0130FC007C08FD07F91FD82DD92D75
:100BB000CA2D79087B02031DDF2D78087A02031CF9
:100BC000E22DE32DE92D7808FA027908031CFB03D6
:100BD000FB0201300310F90CF80CFF3E031DEA2D57
:100BE0000130FD02031DF52DF62DD92D7B08F900EE
:100BF0007A08F8000800F501F6017008710403197D
:100C0000022E032E3A2EF701F70A112E013003109F
:100C1000F00DF10DFF3E031D072E0130F4007408A6
:100C2000F707F11F142E152E062E01300310F50DB7
:100C3000F60DFF3E031D162E71087302031D222EB2
:100C400070087202031C252E262E2D2E7008F2022B
:100C50007108031CF303F302751401300310F10C47
:100C6000F00CFF3E031D2E2E0130F702031D392E1E
:100C70003A2E152E7608F1007508F00008000A12C9
:100C80008A118B250A128A118312031338088500F2
:100C90000B30B1003108A0000608B200B3013208E1
:100CA000A1003308A2000808B400B5013408A3006D
:100CB0003508A4003808B600B7013608A500370883
:100CC000A6003A300A128A110B270A128A113A300A
:100CD0000A128A116C250A128A11831203138C1EC0
:100CE000722E732E8C2E7C2E0130B1003108B80785
:100CF0008C2E0130B8028C2E1A08B100B2013208D5
:100D0000003A0319842E8C2E31082B3A0319742EC5
:100D1000063A0319792E8C2E3903031D902E912E3D
:100D2000CC2E0711033083120313B2009730B100A9
:100D3000B10B982EB20B982E8312031339080A12A6
:100D40008A1128250A128A110A128A113D250A12CF
:100D50008A11831203138600033083120313B20037
:100D60009730B100B10BB22EB20BB22E8312031327
:100D70000715023083120313B3000430B200B930F8
:100D8000B100B10BC12EB20BC12EB30BC12EC82EB8
:100D900083120313B901442E071103308312031386
:100DA000B2009730B100B10BD32EB20BD32E831209
:100DB000031339080A128A1128250A128A110A1205
:100DC0008A113D250A128A11831203138800033009
:100DD00083120313B2009730B100B10BED2EB20BAA
:100DE000ED2E831203130715023083120313B30091
:100DF0000430B200B930B100B10BFC2EB20BFC2EA6
:100E0000B30BFC2E032F83120313B901B90A442E2E
:100E10000A128A11002883120313AF002130A700A1
:100E20002708AA00DC2F253030060319182F192FA8
:100E3000252F3008A7002F0884002708831380007F
:100E40000130A7002708AF07DC2FAB010130A00756
:100E5000FF30200784000A128A1103200A128A1127
:100E6000B000A700A8012808003A0319382FDC2F8A
:100E70002708003A0319EE2F643A0319432F0D3A5D
:100E80000319432FDC2F2A08840083130008AD00C8
:100E9000840A0008AE000230A7002708AA07AE1F88
:100EA000522F532F5C2F0330A7002708AB04AD0946
:100EB000AE09AD0A0319AE0AB001B00A3008A700A6
:100EC0002707013E84000A128A1103200A128A11A0
:100ED000A8000A128A1103200A128A11A9002908FF
:100EE0002E02031D752F28082D020318782F792F45
:100EF0007A2F842F0130A7002708B007053030066D
:100F0000031D832F842F5E2F2B0803390319892F8C
:100F10008A2F952F2D30A7002F08840027088313D0
:100F200080000130A7002708AF073008A700270876
:100F3000AC00D32F0A30F8000030F9002C08A700CD
:100F40002707013E84000A128A1103200A128A111F
:100F5000F0000A128A1103200A128A11F1002E08E9
:100F6000F3002D08F2000A128A11FB250A128A11D9
:100F70007108FB007008FA000A128A11C1250A12D2
:100F80008A117808303E83120313A8002808B000A5
:100F90003008A7002F088400270883138000013041
:100FA000A7002708AF07FF30A7002708AC072C0AC7
:100FB000031DDB2FDC2F9A2F0130A007FF30200705
:100FC00084000A128A1103200A128A11A700270836
:100FD000B0003008031DED2FEE2F132F2F088400D3
:100FE0008313800108008313383084004A300A12CA
:100FF0008A1135250A128A1183010A128A113F2E9D
:04400E00D420FF3F7C
:00000001FF
