:020000040000FA
:100000000A128A11ED2FF6007603031D082809282D
:10001000152874087F3EF5007508F70077080A1266
:100020008A157A210A128A11262802307606031DC3
:100030001A281B2826287408BF3EF5007508F7000B
:1000400077080A128A157A210A128A110800831287
:10005000031341088039C2004208CB004108C200A6
:100060004207C3004308D200C01F37283828392868
:100070005214520803193D283E284E28520A031DE7
:10008000422843284B280030C1000030C000003017
:10009000BF000030BE00C017C10156280030C100AB
:1000A0000030C0000030BF000030BE003D08803985
:1000B000C2004208CB063D08C2004207C300430805
:1000C000D300BC1F642865286628531453080319FD
:1000D0006A286B287B28530A031D6F28702878280C
:1000E0000030BD000030BC000030BB000030BA0062
:1000F000BC17BD0183280030BD000030BC000030BB
:10010000BB000030BA003D083C043B043A04031D28
:100110008A288B28A4280030C1000030C00000309D
:10012000BF000030BE008030C0047F30C1044B08E7
:10013000C2004208C1044108BD004008BC003F089D
:10014000BB003E08BA00032A5208031DA828A928AC
:10015000B2280030BD000030BC000030BB000030D1
:10016000BA00032A5208C200C3014308C50053085D
:100170004202C400031CC50344087F3ECC0045086E
:100180000318013E003ECD004108CA004008C900E6
:100190003F08C8003E08C7000030C1000030C00062
:1001A0000030BF000030BE000030D1000030D00071
:1001B0000030CF000030CE00D301282953080319A6
:1001C000E228E32803290130C2000310C70DC80D3F
:1001D000C90DCA0DC20BE5280130C2000310BE0DC7
:1001E000BF0DC00DC10DC20BEE28D11FF828F92894
:1001F000FA283E140130C2000310CE0DCF0DD00DF1
:10020000D10DC20BFC283D084A02031D11293C08F0
:100210004902031D11293B084802031D11293A0810
:100220004702031C14291529242951173A08C7022B
:100230003B08031C3B0FC8023C08031C3C0FC902CF
:100240003D08031C3D0FCA020130C2004208D3071B
:100250001A305302031C2D292E29DE284A0849048E
:100260004804470403193529362955294E145529C0
:100270000130C2000310BE0DBF0DC00DC10DC20B79
:100280003A29D11F4429452946293E140130C2008C
:100290000310CE0DCF0DD00DD10DC20B4829FF306C
:1002A000CC070318CD0AFF30CD07C01F58295929A4
:1002B0003829D301D11F5D295E297A29FF304E05E7
:1002C000C200FF304F05C300FF305005C4007F302F
:1002D0005105C5004508440443044204031971292B
:1002E00072297529D301D30A7A293E1C78297929E4
:1002F0007A297229530803197E297F29B0290130F0
:10030000BE07003003180130BF070030031801306A
:10031000C007003003180130C107411C9029912902
:10032000B0293E08C2003F08C3004008C40041088D
:10033000C5000130C600450DC50CC40CC30CC20C71
:10034000C60B9B294508C1004408C0004308BF00F4
:100350004208BE000130CC070318CD0A0030CD079B
:100360004D08803AFF0080307F02031DB929FF301D
:100370004C02031CBC29BD29CB29FF308312031377
:10038000CC000030CD000030C1000030C000003093
:10039000BF000030BE00831203134D08803AFF00F7
:1003A00080307F02031DD62901304C020318D92961
:1003B000DA29E72983120313CC01CD010030C100F3
:1003C0000030C0000030BF000030BE00CB018312FF
:1003D00003134C08C2004208D200521CF029F12934
:1003E000F329C017F7297F30C2004208C005520820
:1003F000C2000310420CC3004308C1004B08C200F6
:100400004208C1049B28080083120313570880394F
:10041000DC005C08E4005708DC005C07DD005D08D8
:10042000E600D61F142A152A162A66146608031930
:100430001A2A1B2A2B2A660A031D1F2A202A282A69
:100440000030D7000030D6000030D5000030D40096
:10045000D617D701332A0030D7000030D60000303D
:10046000D5000030D4005B088039DC005C08E50072
:100470006508640603193D2A3E2A3F2A64175B0873
:10048000DC005C07DD005D08E500DA1F482A492A28
:100490004A2A6514650803194E2A4F2A5F2A650AFD
:1004A000031D532A542A5C2A0030DB000030DA0096
:1004B0000030D9000030D800DA17DB01672A00309D
:1004C000DB000030DA000030D9000030D8006608C8
:1004D000650203186C2A6D2AB12A641F702A712ADA
:1004E000752A8030DC005C08E4066608DC005C08E5
:1004F000E7006508DC005C08E6006708DC005C08D3
:10050000E5005408DC005C08E7005808DC005C08E3
:10051000D4006708DC005C08D8005508DC005C08E3
:10052000E7005908DC005C08D5006708DC005C08BF
:10053000D9005608DC005C08E7005A08DC005C08BB
:10054000D6006708DC005C08DA005708DC005C08AD
:10055000E7005B08DC005C08D7006708DC005C088B
:10056000DB00E7016508DC00DD015D08DF006608EF
:100570005C02DE00031CDF035F08803AFF0080306E
:100580007F02031DC52A1A305E02031CC82AC92A2D
:10059000062B831203135708560455045404031DF5
:1005A000D22AD42A0130D52A0030DC005C08E700CA
:1005B0000030D7000030D6000030D5000030D40025
:1005C0006508DC005C08E6000E2B671CE82AE92AB7
:1005D000F22A6708DC0003105C0C0138DD005D08BE
:1005E000E700F42A0310E70C541CF72AF82AF92A2A
:1005F000E7170130DC00570DD70CD60CD50CD40C06
:10060000DC0BFB2A0130DC005C08E60783120313D5
:1006100065086602031C0D2B0E2BE52A641B112BAB
:10062000122B5D2B6608031D162B172B202B003079
:10063000D7000030D6000030D5000030D4008B2C1D
:100640005808D407590803110318013E0319292B30
:10065000D5075A0803110318013E0319302BD6079A
:100660005B0803110318013E0319372BD707571CEA
:100670003A2B3B2B112C671C3E2B3F2B482B67083A
:10068000DC0003105C0C0138DD005D08E7004A2B3C
:100690000310E70C541C4D2B4E2B4F2BE71701304A
:1006A000DC00570DD70CD60CD50CD40CDC0B512B21
:1006B0000130DC005C08E607112C5708803AFF0087
:1006C0005B08803A7F02031D6F2B5A085602031DF8
:1006D0006F2B59085502031D6F2B5808540203183D
:1006E000722B732BCB2BFF30DC00FF30DD00FF3093
:1006F000DE00FF30DF005808E0005908E1005A082A
:10070000E2005B08E3005408E0025508031C550FA3
:100710008A2B8B2BE1025608031C560F902B912B32
:10072000E2025708031C570F962B972BE302600831
:10073000DC0761080318610F9E2B9F2BDD07620801
:100740000318620FA42BA52BDE0763080318630AA6
:10075000DF075F08D7005E08D6005D08D5005C089B
:10076000D4008030DC005C08E406E709E70A67088B
:10077000031DBB2BBC2BD92B0130D4070030031831
:100780000130D507003003180130D60700300318B8
:100790000130D707D92B5808D4025908031C590F28
:1007A000D5025A08031C5A0FD6025B08031C5B0FC4
:1007B000D7025708560455045404031DE02BE12BBF
:1007C0000D2C6708031DE52BE62B0D2C0030D70000
:1007D0000030D6000030D5000030D4008B2C013022
:1007E000DC000310D40DD50DD60DD70DDC0BF12B8D
:1007F000E71FFB2BFC2BFD2B5414671C002C012C3A
:10080000042C0314E70D062C0310E70D66080319EA
:100810000A2C0B2C0D2C0130E602D61F102C112CAB
:10082000EF2BE501E71F152C162C242C67087F39C8
:1008300003191B2C1C2C1F2CE501E50A242C541C2D
:10084000222C232C242C1C2C65080319282C292C41
:100850005D2C0130D407003003180130D50700307B
:1008600003180130D607003003180130D707571C92
:100870003A2C3B2C5D2C5408DC005508DD00560852
:10088000DE005708DF000130E0005F0DDF0CDE0CFA
:10089000DD0CDC0CE00B452C5F08D7005E08D600B1
:1008A0005D08D5005C08D400660A0319582C592C41
:1008B0005D2C0130DC005C08E607660A0319612C38
:1008C000622C672C6608031D662C672C752C003083
:1008D000D7000030D6000030D5000030D4006608C4
:1008E000031D732C742C752CE401661C782C792C58
:1008F0007B2CD6177F2C7F30DC005C08D605660881
:10090000DC0003105C0CDD005D08D700E41F892CBF
:100910008A2C8B2CD71708008312031323088039E5
:10092000A8002808AD002308A8002807A900290866
:10093000B300A21F9C2C9D2C9E2C3314330803194A
:10094000A22CA32CB22C330A031DA72CA82CB02C4C
:100950000030A3000030A2000030A1000030A00051
:10096000A217BA2C0030A3000030A2000030A10072
:100970000030A00027088039A8002808AD06270805
:10098000A8002807A9002908B200A61FC82CC92C56
:10099000CA2C321432080319CE2CCF2CDE2C320A8A
:1009A000031DD32CD42CDC2C0030A7000030A60073
:1009B0000030A5000030A400A617E62C0030A700E8
:1009C0000030A6000030A5000030A4003208031952
:1009D000EA2CEB2CF02C3308031DEF2CF02CF92C17
:1009E0000030A3000030A2000030A1000030A000C1
:1009F000EC2F2008A8002808F00026080A128A1503
:100A000094210A128A11710883120313B900700825
:100A1000B8003808A800A901AA01AB012B08B10051
:100A20002A08B0002908AF002808AE003908A8003D
:100A3000A901AA01AB012B08B7002A08B6002908B2
:100A4000B5002808B4002108A8002808F0002508EF
:100A50000A128A1594210A128A117108831203134B
:100A6000B9007008B8003808A800A901AA01AB01B4
:100A70002808AE07290803110318013E0319412D68
:100A8000AF072A0803110318013E0319482DB007C8
:100A90002B0803110318013E03194F2DB107390824
:100AA000A800A901AA01AB012808B407290803116D
:100AB0000318013E03195D2DB5072A080311031819
:100AC000013E0319642DB6072B0803110318013EDC
:100AD00003196B2DB7072208A8002808F000240886
:100AE0000A128A1594210A128A11710883120313BB
:100AF000B9007008B8003808A800A901AA01AB0124
:100B00002808AE07290803110318013E0319892D8F
:100B1000AF072A0803110318013E0319902DB007EF
:100B20002B0803110318013E0319972DB10739084B
:100B3000A800A901AA01AB012808B40729080311DC
:100B40000318013E0319A52DB5072A080311031840
:100B5000013E0319AC2DB6072B0803110318013E03
:100B60000319B32DB7070830A8000310AE0DAF0D61
:100B7000B00DB10DA80BB52D2108A8002808F00074
:100B800024080A128A1594210A128A117108831204
:100B90000313B9007008B8003808A8003908A90084
:100BA000AA01AB012808AE07290803110318013E6A
:100BB0000319DB2DAF072A0803110318013E03199F
:100BC000E22DB0072B0803110318013E0319E92D8C
:100BD000B1072008A8002808F00025080A128A1585
:100BE00094210A128A11710883120313B900700844
:100BF000B8003808A8003908A900AA01AB012808E4
:100C0000AE07290803110318013E0319082EAF0788
:100C10002A0803110318013E03190F2EB0072B08F1
:100C200003110318013E0319162EB1070830A8005E
:100C30000310AE0DAF0DB00DB10DA80B182E20088E
:100C4000A8002808F00024080A128A1594210A1224
:100C50008A11710883120313B9007008B8003808AC
:100C6000A8003908A900AA01AB012808AE07290885
:100C700003110318013E03193E2EAF072A08031182
:100C80000318013E0319452EB0072B080311031862
:100C9000013E03194C2EB1072108A8002808F000D6
:100CA00026080A128A1594210A128A1171088312E1
:100CB0000313B9007008B8003808A8003908A90063
:100CC000AA01AB012808B407290803110318013E43
:100CD00003196B2EB5072A0803110318013E0319E7
:100CE000722EB6072B0803110318013E0319792E43
:100CF000B7072208A8002808F00025080A128A155C
:100D000094210A128A11710883120313B900700822
:100D1000B8003808A8003908A900AA01AB012808C2
:100D2000B407290803110318013E0319982EB507CB
:100D30002A0803110318013E03199F2EB6072B083A
:100D400003110318013E0319A62EB7072208A800B5
:100D50002808F00026080A128A1594210A128A111E
:100D6000710883120313B9007008B8003808A8008E
:100D70003908A900AA01AB0108300310A80DA90D7C
:100D8000AA0DAB0DFF3E031DBD2E2808B407290890
:100D900003110318013E0319CE2EB5072A080311CB
:100DA0000318013E0319D52EB6072B0803110318AB
:100DB000013E0319DC2EB7072E08A8002F08A90052
:100DC0003008AA003108AB0018300310AB0CAA0C95
:100DD000A90CA80CFF3E031DE52E2808B40729081E
:100DE00003110318013E0319F62EB5072A08031153
:100DF0000318013E0319FD2EB6072B080311031833
:100E0000013E0319042FB7070830A8000310AE0DE8
:100E1000AF0DB00DB10DA80B062F33083207A80097
:100E2000A901A90D2808823EB80029080318013E2F
:100E3000FF3EB900382F0130A8000310B40DB50DE6
:100E4000B60DB70DA80B1D2FB11F272F282F292F47
:100E500034140130A8000310AE0DAF0DB00DB10D6C
:100E6000A80B2B2FFF30B8070318B90AFF30B907BA
:100E7000B61F3B2F3C2F1B2FB201B11F402F412F1C
:100E80005D2FFF302E05A800FF302F05A900FF3091
:100E90003005AA007F303105AB002B082A04290455
:100EA00028040319542F552F582FB201B20A5D2F71
:100EB000341C5B2F5C2F5D2F552F32080319612FD7
:100EC000622F932F0130B407003003180130B507AB
:100ED000003003180130B607003003180130B7079F
:100EE000371C732F742F932F3408A8003508A900DE
:100EF0003608AA003708AB000130AC002B0DAB0C54
:100F0000AA0CA90CA80CAC0B7E2F2B08B7002A0842
:100F1000B6002908B5002808B4000130B807031846
:100F2000B90A0030B9073908803AFF0080307F02E3
:100F3000031D9C2FFF303802031C9F2FA02FAB2FC7
:100F40007F3083120313B7008030B6000030B50045
:100F50000030B400E02F831203133908803AFF00F9
:100F600080307F02031DB62F013038020318B92FDD
:100F7000BA2FC62F003083120313B7000030B6001B
:100F80000030B5000030B400AD01E02F8312031330
:100F90003808A8002808B300FF30B405FF30B505B5
:100FA0007F30B6050030B705331CD72FD82FD92F87
:100FB000B6173308A8000310280CA9002908B700A9
:100FC0002D08A8002808B7043708A3003608A20097
:100FD0003508A1003408A000080083120313EC01B7
:100FE000ED01EE01EF018313A0308400D1300A122D
:100FF0008A1533210A128A1183010A128A15F32DE8
:10100000FF1B0A2883137F1883170008840A03191B
:10101000FF0A080008308A000408840A82070034A6
:10102000013400340A34003464340034E8340334C6
:101030001034273453343134203420345334313491
:1010400020342034533433340034253464340034B1
:1012660064008001840A0406031900340406342944
:101276000A128A1557210A128A15831603131114A6
:1012860008000A128A1557210A128A1583160313B3
:10129600111508000A128A1557210A128A157008B4
:1012A60083120313930008008316031314195C2991
:1012B6005D29572911081F39031D622963295729FA
:1012C6000800F20083120313071472080A128A1523
:1012D60087220A128A158312031387141A30F10023
:1012E600F10B732900008312031387100800F30023
:1012F60083120313071073080A128A1587220A122B
:101306008A158312031387140B30F2006230F10042
:10131600F10B8B29F20B8B29000083120313871024
:101326000800F800F401F5017008F200F3017208F4
:10133600F6007308F700781CA129A229A8297608C7
:10134600F4070318F50A7708F50701300310F60DC0
:10135600F70DFF3E031DA9290310F80C7808031D9D
:10136600B529B6299E297508F1007408F000080011
:101376007030831603138F040F1483160317890125
:1013860088018316031385010710871086018801DB
:1013960089018312031385018601880189010A12D6
:1013A6008A159A230A128A15003083120313A300A2
:1013B6000130A2008630A100A030A0000A128A15D2
:1013C60015220A128A1508000A128A1557210A12CE
:1013D6008A158316031391150A128A1557210A12C4
:1013E6008A15831203131308F200F3017208F4003E
:1013F6007308F5000A128A1557210A128A15700316
:101406007104031D072A082A0C2A83160313911256
:101416000F2A83160313911611167508F100740826
:10142600F000080028308312031394008316031378
:101436009101831203132008A4002108A5002208A5
:10144600A6002308A70002300310A40DA50DA60DC3
:10145600A70DFF3E031D272A2708F3002608F200E2
:101466002508F1002408F0000030F7007A30F60075
:101476001230F5000030F4000A128A15EB230A1226
:101486008A157008FF3E831603139300940187158F
:1014960007160800780879040319522A532A822A63
:1014A600FD01FD0A612A01300310F80DF90DFF3E1A
:1014B600031D572A0130FC007C08FD07F91F642A2A
:1014C600652A562A79087B02031D6B2A78087A0258
:1014D600031C6E2A6F2A752A7808FA027908031CFB
:1014E600FB03FB0201300310F90CF80CFF3E031D51
:1014F600762A0130FD02031D812A822A652A7B088D
:10150600F9007A08F8000800F000701C8B2A8C2A73
:10151600902A831203130814932A831203130810C4
:10152600F01C962A972A992A88149A2A8810701DE0
:101536009D2A9E2AA02A0815A12A0811F01DA42A70
:10154600A52AA72A8815A82A8811701EAB2AAC2AB4
:10155600AE2A0816AF2A0812F01EB22AB32AB52AF6
:101566008816B62A8812701FB92ABA2ABC2A081702
:10157600BD2A0813F01FC02AC12AC32A8817C42A05
:1015860088130800F801F901EA2A78087307F600BB
:101596007408F5000318F50AF81FD22AF503750832
:1015A600F700770883120313FF00760884000A12F7
:1015B6008A1500200A128A150A128A1564210A124F
:1015C6008A150130F8070318F90A0030F907780878
:1015D6007307F6007408F5000318F50AF81FF42AD5
:1015E600F5037508F700770883120313FF007608E2
:1015F60084000A128A1500200A128A15003A031D71
:10160600052B062BC82A0800F501F601700871049F
:1016160003190E2B0F2B462BF701F70A1D2B013052
:101626000310F00DF10DFF3E031D132B0130F400E6
:101636007408F707F11F202B212B122B0130031002
:10164600F50DF60DFF3E031D222B71087302031DD7
:101656002E2B70087202031C312B322B392B70088B
:10166600F2027108031CF303F30275140130031030
:10167600F10CF00CFF3E031D3A2B0130F702031D5F
:10168600452B462B212B7608F1007508F000080043
:1016960083120313DC004330BD007F30BC000030F2
:1016A600BB000030BA004030A300A030A2000030DA
:1016B600A1000030A0005C08D800D901DA01DB01E6
:1016C6005B08F3005A08F2005908F1005808F000C8
:1016D60001300A128A1551240A128A1573088312D8
:1016E6000313A7007208A6007108A5007008A400DD
:1016F6000A128A118C240A128A15831203132308EC
:10170600C1002208C0002108BF002008BE000A123E
:101716008A1127200A128A15831203133D08D7005F
:101726003C08D6003B08D5003A08D4000800003033
:101736000A128A1587220A128A153430F500F1300A
:10174600F400F40BA42BF50BA42BA92B30300A12B2
:101756008A157A210A128A150D30F500FB30F4003D
:10176600F40BB32BF50BB32BB82B30300A128A15BA
:101776007A210A128A151D30F5009130F400F40B17
:10178600C22BF50BC22B30300A128A157A210A12A7
:101796008A1538300A128A157A210A128A150830F3
:1017A6000A128A157A210A128A1501300A128A1536
:1017B6007A210A128A1506300A128A157A210A1225
:1017C6008A150C300A128A157A210A128A1508001F
:1017D6000030FC000030FB000030FA000030F90059
:1017E60073087204710470040319FA2BFB2B482C3E
:1017F600FD01FD0A0B2C0130F8000310F00DF10D70
:10180600F20DF30DF80B002C0130F8007808FD07F7
:10181600F31F0E2C0F2CFE2B0130F8000310F90DD0
:10182600FA0DFB0DFC0DF80B112C73087702031D46
:10183600262C72087602031D262C71087502031DDC
:10184600262C70087402031C292C2A2C392C7008AB
:10185600F4027108031C710FF5027208031C720F63
:10186600F6027308031C730FF70279140130031094
:10187600F30CF20CF10CF00CFF3E031D3A2C013078
:10188600FD02031D472C482C0F2C7C08F3007B0817
:10189600F2007A08F1007908F0000800F8007808EC
:1018A6000319562C572C6B2CF31F5A2C5B2C6B2CC4
:1018B6007009FA007109FB007209FC007309FD004A
:1018C600FA0A0319FB0A0319FC0A0319FD0A732C09
:1018D6007308FD007208FC007108FB007008FA002E
:1018E6007308720471047004031D7A2C7B2C842CFB
:1018F6000030F3000030F2000030F1000030F0005C
:101906000A2D9630F4007408F900962C0130F40084
:101916007408F90701300310FD0CFC0CFB0CFA0CE3
:10192600FF3E031D8E2CFE307D05031D9B2C9C2C3B
:10193600892CB82C0130F4007408F9070130FA0735
:10194600003003180130FB07003003180130FC0794
:10195600003003180130FD0701300310FD0CFC0CAC
:10196600FB0CFA0CFF3E031DB02CFF307D05031D5A
:10197600BD2CBE2C9D2CCA2C0130F9020130F4007E
:101986000310FA0DFB0DFC0DFD0DF40BC32CFC1B17
:10199600CD2CCE2CD42C023079020318D32CD42C87
:1019A600BF2C7918D72CD82CE02CFF30FA05FF3045
:1019B600FB057F30FC05FF30FD050310F90C7908A7
:1019C600F400F501F601F70118300310F40DF50DDA
:1019D600F60DF70DFF3E031DE82C7408FA04750892
:1019E600FB047608FC047708FD0478080319FC2C30
:1019F600FD2C022DF31F002D012D022DFD177D0854
:101A0600F3007C08F2007B08F1007A08F000080079
:101A160083120313AD002130A5002508A800DC2D94
:101A260025302E060319182D192D252D2E08A50053
:101A36002D0884002508831380000130A5002508A1
:101A4600AD07DC2DA9010130A007FF302007840077
:101A56000A128A150A200A128A15AE00A500A601E6
:101A66002608003A0319382DDC2D2508003A0319FB
:101A7600EE2D643A0319432D0D3A0319432DDC2D3F
:101A86002808840083130008AB00840A0008AC0011
:101A96000230A5002508A807AC1F522D532D5C2D3A
:101AA6000330A5002508A904AB09AC09AB0A031944
:101AB600AC0AAE01AE0A2E08A5002507013E840039
:101AC6000A128A150A200A128A15A6000A128A150F
:101AD6000A200A128A15A70027082C02031D752D55
:101AE60026082B020318782D792D7A2D842D0130A6
:101AF600A5002508AE0705302E06031D832D842D6F
:101B06005E2D290803390319892D8A2D952D2D302F
:101B1600A5002D0884002508831380000130A50048
:101B26002508AD072E08A5002508AA00D32D0A30E2
:101B3600F8000030F9002A08A5002507013E8400B8
:101B46000A128A150A200A128A15F0000A128A1544
:101B56000A200A128A15F1002C08F3002B08F2005D
:101B66000A128A1507230A128A157108FB007008E3
:101B7600FA000A128A154D220A128A157808303E92
:101B860083120313A6002608AE002E08A5002D0812
:101B960084002508831380000130A5002508AD07C1
:101BA600FF30A5002508AA072A0A031DDB2DDC2D18
:101BB6009A2D0130A007FF30200784000A128A15EB
:101BC6000A200A128A15A5002508AE002E08031D54
:101BD600ED2DEE2D132D2D088400831380010800B2
:101BE6000A128A15BB210A128A150A128A153B2186
:101BF6000A128A155030F0000030F1000A128A15D8
:101C06004D210A128A15831203130608E800E9011A
:101C16006808F0006908F1000A128A154D210A12B7
:101C26008A150A128A1544210A128A15033083126C
:101C36000313EA000830E9007630E800E80B212EAD
:101C4600E90B212EEA0B212E00000A128A153B21F0
:101C56000A128A155130F0000030F1000A128A1576
:101C66004D210A128A150030F000F1000A128A1579
:101C7600E7210A128A15700883120313E800680820
:101C8600ED000A128A1544210A128A1503308312BE
:101C96000313EA000830E9007630E800E80B512E1D
:101CA600E90B512EEA0B512E00000A128A153B2130
:101CB6000A128A156130F0000030F1000A128A1506
:101CC6004D210A128A150030F000F1000A128A1519
:101CD600E7210A128A15700883120313E8006808C0
:101CE600EC000A128A1544210A128A15033083125F
:101CF6000313EA000830E9007630E800E80B812E8D
:101D0600E90B812EEA0B812E00000A128A153B216F
:101D16000A128A158030F0000030F1000A128A1586
:101D26004D210A128A15F330F0000030F1000A1234
:101D36008A154D210A128A150A128A1544210A1299
:101D46008A15033083120313EA000830E90076305F
:101D5600E800E80BAC2EE90BAC2EEA0BAC2E00002B
:101D66000A128A153B210A128A158130F0000030CA
:101D7600F1000A128A154D210A128A150030F00068
:101D8600F1000A128A15E7210A128A1571088316CC
:101D96000313BD007008BC000030F000F1000A1209
:101DA6008A15E7210A128A15700883120313E800C0
:101DB600680883160313C0000A128A1544210A1202
:101DC6008A15033083120313EA000830E9007630DF
:101DD600E800E80BEC2EE90BEC2EEA0BEC2E0000EB
:101DE60083120313EE01831603133C0883120313B5
:101DF600E8006808EE07FC30E8006808EE05C23027
:101E0600D7003B30D6006630D5006630D400473068
:101E1600BD008030BC000030BB000030BA0043304B
:101E2600A3002F30A200B830A1005230A0006E08E7
:101E3600E800E901EA01EB016B08F3006A08F20029
:101E46006908F1006808F00001300A128A15512469
:101E56000A128A15730883120313A7007208A600D4
:101E66007108A5007008A4000A128A118C240A12AF
:101E76008A15831203132308C1002208C000210813
:101E8600BF002008BE000A128A1127200A128A15EE
:101E9600831203133D08DB003C08DA003B08D90037
:101EA6003A08D8000A128A1104220A128A158312E5
:101EB6000313570883160313BB0083120313560834
:101EC60083160313BA0083120313550883160313EC
:101ED600B90083120313540883160313B800831240
:101EE60003136D080A128A154B230A128A158312E8
:101EF6000313570883160313B700831203135608F8
:101F060083160313B60083120313550883160313AF
:101F1600B50083120313540883160313B400F401A7
:101F2600F40A01300A128A1103200A128A150B30AC
:101F3600F3008030F4000A128A15C5220A128A15A7
:101F4600163083120313E8006808A0006C08E90045
:101F5600EA016908A1006A08A200C1300A128A15BE
:101F66000B250A128A15F401F40A02300A128A11A4
:101F760003200A128A15C130F3000030F4000A1259
:101F86008A15C5220A128A15163083120313E80031
:101F96006808A00083160313370883120313A400EE
:101FA60083160313360883120313A3008316031341
:101FB600350883120313A200831603133408831211
:101FC6000313A100C1300A128A150B250A128A15BD
:101FD600F401F40A02300A128A1103200A128A1541
:101FE600C130F3000030F4000A128A15C5220A1225
:0A1FF6008A15F82D0A128A1100283E
:04400E00D420FF3F7C
:00000001FF
