:020000040000FA
:060000000A128A11F92F1B
:100CE8000A128A1190260A128A1183160313111404
:100CF80008000A128A1190260A128A118316031311
:100D0800111508000A128A1190260A128A11700811
:100D18008312031393000800831603131419952EE6
:100D2800962E902E11081F39031D9B2E9C2E902E57
:100D380008007030831603138F040F1483160317EB
:100D480089018801831603138501860188018312AE
:100D580003138501860188018B170B170030A30048
:100D68000130A2008630A100A030A0000A128A112A
:100D7800EE260A128A1108000A128A1190260A120F
:100D88008A118316031391150A128A1190260A12E2
:100D98008A11831203131308F200F3017208F40096
:100DA8007308F5000A128A1190260A128A11700334
:100DB8007104031DE02EE12EE52E83160313911214
:100DC800E82E83160313911611167508F10074089E
:100DD800F0000800283083120313940083160313CD
:100DE8009101831203132008A4002108A5002208FA
:100DF800A6002308A70002300310A40DA50DA60D18
:100E0800A70DFF3E031D002F2708F3002608F20058
:100E18002508F1002408F0000030F7007A30F600C9
:100E28001230F5000030F4000A128A1126270A123F
:100E38008A117008FF3E83160313930094018715E7
:100E4800071608000030FC000030FB000030FA00F4
:100E58000030F90073087204710470040319352F07
:100E6800362F832FFD01FD0A462F0130F8000310AD
:100E7800F00DF10DF20DF30DF80B3B2F0130F800DA
:100E88007808FD07F31F492F4A2F392F0130F80042
:100E98000310F90DFA0DFB0DFC0DF80B4C2F730820
:100EA8007702031D612F72087602031D612F7108F6
:100EB8007502031D612F70087402031C642F652FCF
:100EC800742F7008F4027108031C710FF502720880
:100ED800031C720FF6027308031C730FF7027914D0
:100EE80001300310F30CF20CF10CF00CFF3E031D63
:100EF800752F0130FD02031D822F832F4A2F7C0896
:100F0800F3007B08F2007A08F1007908F000080085
:100F18000A128A119D260A128A110A128A11742647
:100F28000A128A115030F0000030F1000A128A11BA
:100F380086260A128A11831203130608A800A9013B
:100F48002808F0002908F1000A128A1186260A12D8
:100F58008A110A128A117D260A128A110330831215
:100F68000313AA000830A9007630A800A80BBA2FEE
:100F7800A90BBA2FAA0BBA2F00000A128A117426DD
:100F88000A128A115130F0000030F1000A128A1159
:100F980086260A128A110030F000F1000A128A111E
:100FA800C0260A128A1170088312031388000A12D5
:100FB8008A117D260A128A11033083120313AA00AC
:100FC8000830A9007630A800A80BE82FA90BE82F55
:100FD800AA0BE82F0000013083120313A800280889
:100FE8008607912F0A128A11002883120313AB0176
:080FF80083010A128A118C2FFB
:04400E00D420FF3F7C
:00000001FF
