:060000000A128A110C280F
:10000800FE00030EF1000A08F2000A128A111628EF
:100018000A128A110F28F501F601F70183010A1265
:100028008A118628831203138C1D1B281C286E280E
:100038001412141B202821282528941F2428252839
:100048002C281308F0007008F500141394131416E4
:1000580083160313941A312832284A28141935288C
:1000680036284A28831203131308F0007008F50095
:100078008C11141683160313141C432844283E2895
:10008800A630F000F00B462800006B28941A4D2883
:100098004E286B28141D512852286B2883120313ED
:1000A8001308F0007008F500831603131410831268
:1000B8000313050893001416A630F000F00B62280D
:1000C80000008316031314186A286B286528831206
:1000D80003138C110B1C712872287F2806187528A9
:1000E80076287828F701F70A86187B287C287E2846
:1000F800F601F60A0B1072088A00710E8300FE0ED4
:100108007E0E09000A128A11F6200A128A110A12B2
:100118008A1110210A128A110A128A1107210A1259
:100128008A1160300A128A11C6200A128A117703CE
:10013800031D9F28A028B0280F308312031305063B
:10014800031DA728A828AA288501AE280130F40095
:1001580074088507F7019B287603031DB428B52882
:100168009B28831203130508031DBB28BC28BF283E
:100178000F308500C12801308502F6019B280A123C
:100188008A110C28F3007308831603139300363082
:1001980083120313940080308316031394000130F4
:1001A8009100871507168B170B17831203138C11F1
:1001B800831603138C15080000308A000408840A8B
:1001C8008207003450344F345434203431343A34B4
:1001D8002034003450344F345434203432343A34D8
:1001E800203400348316031385018901880183169E
:1001F8000317880189018312031385018701FF30E2
:1002080088008901080083160313811315149514B7
:10021800161496148B150800831603130F168F16E1
:080228000F17E8308B000800FD
:04400E00D420FF3F7C
:00000001FF
