:020000040000FA
:060000000A128A11122809
:10000800FE00030E83120313B0000408B1000A08AF
:10001800B2007F08B3000A128A11EE290A128A1167
:10002800152883120313D20183010A128A11ED2BBA
:1000380083120313CD004330C5004508C800EF28DC
:1000480025304E06031929282A2836284E08C500C7
:100058004D0884004508831380000130C500450819
:10006800CD07EF28C9010130C207FF3042078400DD
:100078000A128A11C8230A128A11CE00C500C601C5
:100088004608003A03194928EF284508003A031999
:100098000129643A031954280D3A03195428EF2802
:1000A8004808840083130008CB00840A0008CC00A9
:1000B8000230C5004508C807CC1F632864286D288E
:1000C8000330C5004508C904CB09CC09CB0A03197C
:1000D800CC0ACE01CE0A4E08C5004507013E840071
:1000E8000A128A11C8230A128A11C6000A128A1132
:1000F800C8230A128A11C70047084C02031D862824
:1001080046084B02031889288A288B28952801302D
:10011800C5004508CE0705304E06031D94289528CE
:100128006F284908033903199A289B28A6282D30D7
:10013800C5004D0884004508831380000130C500C0
:100148004508CD074E08C5004508CA00E6280A300C
:10015800BC000030BD004A08C5004507013E8400C8
:100168000A128A11C8230A128A11B4000A128A11C3
:10017800C8230A128A11B5004C08B7004B08B6000C
:100188000A128A1188220A128A1183120313350867
:10019800BF003408BE000A128A1112230A128A11FB
:1001A800831203133C08303EC6004608CE004E08B2
:1001B800C5004D0884004508831380000130C50040
:1001C8004508CD07FF30C5004508CA074A0A031D80
:1001D800EE28EF28AB280130C207FF304207840021
:1001E8000A128A11C8230A128A11C5004508CE00CE
:1001F8004E08031D0029012924284D088400831373
:100208008001080083120313AB002130A3002308E8
:10021800A600D72925302C060319132914292029CB
:100228002C08A3002B0884002308831380000130C6
:10023800A3002308AB07D729A7010130A007FF3087
:10024800200784000A128A11C8230A128A11AC00F6
:10025800A300A4012408003A03193329D729230845
:10026800003A0319E929643A03193E290D3A03199A
:100278003E29D7292608840083130008A900840A88
:100288000008AA000230A3002308A607AA1F4D29C8
:100298004E2957290330A3002308A704A909AA094E
:1002A800A90A0319AA0AAC01AC0A2C08A30023075F
:1002B800013E84000A128A11C8230A128A11A40076
:1002C8000A128A11C8230A128A11A50025082A02CF
:1002D800031D702924082902031873297429752914
:1002E8007F290130A3002308AC0705302C06031D25
:1002F8007E297F2959292708033903198429852943
:1003080090292D30A3002B08840023088313800034
:100318000130A3002308AB072C08A3002308A8007A
:10032800CE290A30F8000030F9002808A300230776
:10033800013E84000A128A11C8230A128A11F000A9
:100348000A128A11C8230A128A11F1002A08F30036
:100358002908F2000A128A11CE220A128A1171089B
:10036800FB007008FA000A128A114E230A128A1139
:100378007808303E83120313A4002408AC002C082C
:10038800A3002B0884002308831380000130A300F6
:100398002308AB07FF30A3002308A807280A031D7A
:1003A800D629D72995290130A007FF3020078400D6
:1003B8000A128A11C8230A128A11A3002308AC0062
:1003C8002C08031DE829E9290E292B08840083132A
:1003D800800108000B1CF129F229312A0618F52999
:1003E800F629112A0130AD002D0885070B30AD0024
:1003F8002D08A0000508AE00AF012E08A1002F08A7
:10040800A20052300A128A1106210A128A115230A9
:100418000A128A11A9230A128A1183120313861851
:10042800162A172A302A013085020B30AD002D0814
:10043800A0000508AE00AF012E08A1002F08A200F9
:1004480052300A128A1106210A128A1152300A12EF
:100458008A11A9230A128A110B1083120313330875
:10046800FF0032088A0031088400300E8300FE0E37
:100478007E0E09007030831603138F040F14831641
:100488000317890188018316031385010330860049
:1004980088018113151495148312031385018601AD
:1004A8008801831603131614961418121815831648
:1004B80003178715CF308316031399009A01831207
:1004C80003139817181318168316031398168B1707
:1004D8008B150B170B3083120313CF004F08C20084
:1004E8000508D000D1015008C3005108C40052309B
:1004F8000A128A111C200A128A1152300A128A1111
:1005080088230A128A11080083120313B901BA0159
:10051800340835040319912A922AC92ABB01BB0A57
:10052800A02A01300310B40DB50DFF3E031D962A15
:100538000130B8003808BB07B51FA32AA42A952A9A
:1005480001300310B90DBA0DFF3E031DA52A350869
:100558003702031DB12A34083602031CB42AB52A0F
:10056800BC2A3408B6023508031CB703B70239148D
:1005780001300310B50CB40CFF3E031DBD2A013039
:10058800BB02031DC82AC92AA42A3A08B50039089B
:10059800B4000800F501F601700871040319D52AA2
:1005A800D62A0D2BF701F70AE42A01300310F00DC3
:1005B800F10DFF3E031DDA2A0130F4007408F70735
:1005C800F11FE72AE82AD92A01300310F50DF60DA4
:1005D800FF3E031DE92A71087302031DF52A7008FE
:1005E8007202031CF82AF92A002B7008F20271081B
:1005F800031CF303F302751401300310F10CF00C23
:10060800FF3E031D012B0130F702031D0C2B0D2BA0
:10061800E82A7608F1007508F00008008312031331
:100628003C083D040319192B1A2B492BC101C10A97
:10063800282B01300310BC0DBD0DFF3E031D1E2BE2
:100648000130C0004008C107BD1F2B2B2C2B1D2BD0
:100658003D083F02031D322B3C083E02031C352B8C
:10066800362B3C2B3C08BE023D08031CBF03BF02CF
:1006780001300310BD0CBC0CFF3E031D3D2B0130A7
:10068800C102031D482B492B2C2B3F08BD003E08F7
:10069800BC000800780879040319532B542B832BCA
:1006A800FD01FD0A622B01300310F80DF90DFF3E24
:1006B800031D582B0130FC007C08FD07F91F652B32
:1006C800662B572B79087B02031D6C2B78087A025E
:1006D800031C6F2B702B762B7808FA027908031C01
:1006E800FB03FB0201300310F90CF80CFF3E031D5D
:1006F800772B0130FD02031D822B832B662B7B0891
:10070800F9007A08F800080083120313B6009A2B40
:100718003608840000080A128A11DB230A128A119B
:10072800013083120313B5003508B6073608840074
:1007380083130008031DA12BA22B8C2B0C1EA52BA9
:10074800A62BA82B0D3099000800F200B72B7208D1
:10075800840000080A128A11FE230A128A11013045
:10076800F1007108F2077208840083130008031D62
:10077800BE2BBF2BAB2B831203130C1EC42BC52B14
:10078800C72B0D309900080003308A000408840A3A
:1007980082070034013400340A34003464340034ED
:1007A800E834033410342734253464340034831295
:1007B8000313B40083160313981CE32BE42BDE2BDE
:1007C800831203130C1EE92BEA2BEC2B3408990037
:1007D80008000A128A113E220A128A118312031390
:1007E8008C1EF72BF82BF22B1A088800F22B0A1212
:1007F8008A111228F00083160313981C042C052C68
:10080800FF2B831203130C1E0A2C0B2C0D2C7008C3
:04081800990008003B
:04400E00D420FF3F7C
:00000001FF
