:020000040000FA
:060000000A128A11122809
:10000800FE00030E83120313B0000408B1000A08AF
:10001800B2007F08B3000A128A11EE290A128A1167
:10002800152883120313D20183010A128A11042CA2
:1000380083120313CD004330C5004508C800EF28DC
:1000480025304E06031929282A2836284E08C500C7
:100058004D0884004508831380000130C500450819
:10006800CD07EF28C9010130C207FF3042078400DD
:100078000A128A1187230A128A11CE00C500C60106
:100088004608003A03194928EF284508003A031999
:100098000129643A031954280D3A03195428EF2802
:1000A8004808840083130008CB00840A0008CC00A9
:1000B8000230C5004508C807CC1F632864286D288E
:1000C8000330C5004508C904CB09CC09CB0A03197C
:1000D800CC0ACE01CE0A4E08C5004507013E840071
:1000E8000A128A1187230A128A11C6000A128A1173
:1000F80087230A128A11C70047084C02031D862865
:1001080046084B02031889288A288B28952801302D
:10011800C5004508CE0705304E06031D94289528CE
:100128006F284908033903199A289B28A6282D30D7
:10013800C5004D0884004508831380000130C500C0
:100148004508CD074E08C5004508CA00E6280A300C
:10015800BC000030BD004A08C5004507013E8400C8
:100168000A128A1187230A128A11B4000A128A1104
:1001780087230A128A11B5004C08B7004B08B6004D
:100188000A128A1187220A128A1183120313350868
:10019800BF003408BE000A128A1111230A128A11FC
:1001A800831203133C08303EC6004608CE004E08B2
:1001B800C5004D0884004508831380000130C50040
:1001C8004508CD07FF30C5004508CA074A0A031D80
:1001D800EE28EF28AB280130C207FF304207840021
:1001E8000A128A1187230A128A11C5004508CE000F
:1001F8004E08031D0029012924284D088400831373
:100208008001080083120313AB002130A3002308E8
:10021800A600D72925302C060319132914292029CB
:100228002C08A3002B0884002308831380000130C6
:10023800A3002308AB07D729A7010130A007FF3087
:10024800200784000A128A1187230A128A11AC0037
:10025800A300A4012408003A03193329D729230845
:10026800003A0319E929643A03193E290D3A03199A
:100278003E29D7292608840083130008A900840A88
:100288000008AA000230A3002308A607AA1F4D29C8
:100298004E2957290330A3002308A704A909AA094E
:1002A800A90A0319AA0AAC01AC0A2C08A30023075F
:1002B800013E84000A128A1187230A128A11A400B7
:1002C8000A128A1187230A128A11A50025082A0210
:1002D800031D702924082902031873297429752914
:1002E8007F290130A3002308AC0705302C06031D25
:1002F8007E297F2959292708033903198429852943
:1003080090292D30A3002B08840023088313800034
:100318000130A3002308AB072C08A3002308A8007A
:10032800CE290A30F8000030F9002808A300230776
:10033800013E84000A128A1187230A128A11F000EA
:100348000A128A1187230A128A11F1002A08F30077
:100358002908F2000A128A11CD220A128A1171089C
:10036800FB007008FA000A128A114D230A128A113A
:100378007808303E83120313A4002408AC002C082C
:10038800A3002B0884002308831380000130A300F6
:100398002308AB07FF30A3002308A807280A031D7A
:1003A800D629D72995290130A007FF3020078400D6
:1003B8000A128A1187230A128A11A3002308AC00A3
:1003C8002C08031DE829E9290E292B08840083132A
:1003D800800108000B1CF129F229312A0618F52999
:1003E800F629112A0130AD002D0885072230AD000D
:1003F8002D08A0000508AE00AF012E08A1002F08A7
:10040800A20052300A128A1106210A128A115230A9
:100418000A128A11D3230A128A1183120313861827
:10042800162A172A302A013085022230AD002D08FD
:10043800A0000508AE00AF012E08A1002F08A200F9
:1004480052300A128A1106210A128A1152300A12EF
:100458008A11D3230A128A110B108312031333084B
:10046800FF0032088A0031088400300E8300FE0E37
:100478007E0E09007030831603138F040F14831641
:100488000317890188018316031385010330860049
:1004980088018113151495148312031386018801AA
:1004A80083160313161496141812181583160317B7
:1004B8008715CF308316031399009A01831203130B
:1004C8009817181318168316031398168B178B157D
:1004D8000B170B3083120313CF004F08C200050817
:1004E800D000D1015008C3005108C40052300A128C
:1004F8008A111C200A128A1152300A128A11B22358
:100508000A128A11080083120313B901BA013408C8
:1005180035040319902A912AC82ABB01BB0A9F2ACD
:1005280001300310B40DB50DFF3E031D952A0130AF
:10053800B8003808BB07B51FA22AA32A942A01309D
:100548000310B90DBA0DFF3E031DA42A3508370262
:10055800031DB02A34083602031CB32AB42ABB2A66
:100568003408B6023508031CB703B7023914013042
:100578000310B50CB40CFF3E031DBC2A0130BB02AE
:10058800031DC72AC82AA32A3A08B5003908B400A7
:100598000800F501F601700871040319D42AD52A58
:1005A8000C2BF701F70AE32A01300310F00DF10DC7
:1005B800FF3E031DD92A0130F4007408F707F11F24
:1005C800E62AE72AD82A01300310F50DF60DFF3E7A
:1005D800031DE82A71087302031DF42A70087202C9
:1005E800031CF72AF82AFF2A7008F2027108031C74
:1005F800F303F302751401300310F10CF00CFF3E05
:10060800031D002B0130F702031D0B2B0C2BE72ACF
:100618007608F1007508F0000800831203133C08FF
:100628003D040319182B192B482BC101C10A272B8C
:1006380001300310BC0DBD0DFF3E031D1D2B013005
:10064800C0004008C107BD1F2A2B2B2B1C2B3D08BF
:100658003F02031D312B3C083E02031C342B352B73
:100668003B2B3C08BE023D08031CBF03BF02013000
:100678000310BD0CBC0CFF3E031D3C2B0130C10216
:10068800031D472B482B2B2B3F08BD003E08BC0001
:100698000800780879040319522B532B822BFD018B
:1006A800FD0A612B01300310F80DF90DFF3E031D03
:1006B800572B0130FC007C08FD07F91F642B652BC4
:1006C800562B79087B02031D6B2B78087A02031CD2
:1006D8006E2B6F2B752B7808FA027908031CFB0325
:1006E800FB0201300310F90CF80CFF3E031D762BBA
:1006F8000130FD02031D812B822B652B7B08F9003D
:100708007A08F800080003308A000408840A82077F
:100718000034013400340A34003464340034E834DA
:1007280003341034273463346F346E3474346134D2
:1007380064346F347234203462346F3474346F34F8
:100748006E34653473343A342034253464342034B8
:100758000A340034253464340A3400348312031311
:10076800B600C42B3608840000080A128A11F22346
:100778000A128A11013083120313B5003508B6072F
:100788003608840083130008031DCB2BCC2BB62B13
:100798000C1ECF2BD02BD22B0D3099000800F20065
:1007A800E12B7208840000080A128A1115240A1223
:1007B8008A110130F1007108F2077208840083136E
:1007C8000008031DE82BE92BD52B831203130C1EFD
:1007D800EE2BEF2BF12B0D30990008008312031339
:1007E800B40083160313981CFA2BFB2BF52B8312EA
:1007F80003130C1E002C012C032C3408990008004C
:100808000A128A113E220A128A11831203138C1EBD
:100818000E2C0F2C092C1A088800092C0A128A1190
:100828001228F00083160313981C1B2C1C2C162C62
:10083800831203130C1E212C222C242C70089900DF
:020848000800A6
:04400E00D420FF3F7C
:00000001FF
