:020000040000FA
:060000000A128A110E280D
:10000800FE00030E83120313A5000A08A6000A12B5
:100018008A111D280A128A11112883120313A901B3
:10002800AA01AB01AC01AD01AE0183010A128A112C
:100038000A2A8C1D202821287D281412141B252803
:1000480026282A28941F29282A2831281308A4009A
:100058002408AE0014139413141683160313941A69
:1000680036283728572814193A283B285728831246
:1000780003131308A4002408AE008C111416831669
:100088000313141C48284928432883120313130810
:10009800A4002408AA00A53083120313A400A40B0B
:1000A800532856287A28941A5A285B287A28141D27
:1000B8005E285F287A28831203131308A4002408F3
:1000C800AE00831603131410831203132B08930036
:1000D8001416A53083120313A400A40B71287428E6
:1000E80083160313141879287A28742883120313A3
:1000F8008C110C1F80288128C6281F0CA400240CF2
:100108000F39003A031D89288A28C62800300A12A8
:100118008A11F0210A128A1183120313A4002408F9
:10012800AD002D080A128A11B4210A128A1183120D
:100138000313A4002408AB00C3309F0504302B022E
:100148000318A728A828AB2807308800B528073047
:100158002B020318B028B128B42806308800B52827
:1001680088010C3083120313A400A40BB9280000E3
:10017800831203130C139F142A08A4000310240CE1
:100188007C3E950026088A00250E8300FE0E7E0E12
:10019800090083120313A101F71FD328D428DB28F1
:1001A800F609F709F60A0319F70AA101A10AF91FC6
:1001B800DE28DF28E828F809F909F80A0319F90AF6
:1001C8000130FA007A08A106A201A3017608770493
:1001D8000319EF28F0282729A001A00AFE280130DA
:1001E8000310F60DF70DFF3E031DF4280130FA0049
:1001F8007A08A007F71F01290229F3280130031004
:10020800A20DA30DFF3E031D032977087902031DE4
:100218000F2976087802031C122913291A2976084F
:10022800F8027708031CF903F902221401300310BD
:10023800F70CF60CFF3E031D1B290130A002031D1D
:10024800262927290229210803192B292C29312994
:10025800A209A309A20A0319A30A2308F70022087E
:10026800F60008007030831603138F040F1407304C
:1002780083160317880089010814073083160313AF
:100288008500860188018312031385018601880190
:10029800831603130715FA3092003F3083120313B5
:1002A80097051708F0390C3897000F309500CF30B4
:1002B8009705831603138714831203131D08F03957
:1002C8000C389D000F309B009D128C100330920457
:1002D80012158C1C702971296D298C108316031333
:1002E800871007110A128A11FE210A128A110C308E
:1002F80083120313A800A80B7F29000050300A12AC
:100308008A11D4210A128A11831603130C17831237
:1003180003139F140800F401F501701C9429952912
:100328009B297208F4070318F50A7308F5070130CA
:100338000310F20DF30DFF3E031D9C29013003103D
:10034800F10CF00CFF3E031DA32970087104031D76
:10035800AE29AF2991297508F1007408F00008004A
:10036800FD00FF30F6000030F7007D08FB00FC01BF
:100378007B08F0007C08F1000930F2000030F3003F
:100388000A128A118F210A128A117108F90070085D
:10039800F8000A128A11CD200A128A11760808007C
:1003A80083120313A700270883160313930036301C
:1003B80083120313940080308316031394000130D2
:1003C8009100871507168B170B17831203138C11CF
:1003D800831603138C150800F1007108F000F00D66
:1003E800F00D831203131F087006C33970069F00AF
:1003F8001E0808003F30831203139F051F111F14A6
:10040800831603139F121F129F1308000A128A11E2
:0E04180036210A128A110F2A0A128A110E28A2
:04400E00D420FF3F7C
:00000001FF
