:020000040000FA
:060000000A128A110C280F
:10000800FE00030EF3000A08F4000A128A111628EB
:100018000A128A110F28F601F701F80183010A1262
:100028008A11E928831203138C1D1B281C283D28DC
:100038000A128A11F2200A128A11F2007208F700D5
:100048007708031D28282928322883120313060855
:100058000A128A1102210A128A113A2883120313FA
:1000680008080A128A1102210A128A11831203133C
:100078008C110C1F402841286D281F0CF200720CAF
:100088000F39003A031D49284A285C2801300A1212
:100098008A11CF200A128A118312031386000D30A9
:1000A800F200F20B5528831203130C139F146D28CA
:1000B80000300A128A11CF200A128A118312031300
:1000C80088000D30F200F20B6728831203130C131B
:1000D8009F1474088A00730E8300FE0E7E0E0900BA
:1000E8007030831603138F040F14831603178901C6
:1000F800081488142330831603138500860107111A
:100108008801831203138501860188010A128A1166
:10011800DD200A128A110C3083120313A300A30BEB
:10012800932800008B170B17831203138C11831667
:1001380003138C15851683120313A001A101A201D4
:1001480024300A128A11B1200A128A118316031365
:100158000C17831203139F140800F500831603136A
:100168008712751DB828B928C128831203132208DD
:100178008316031394008715C928831203132008D4
:10018800220483160313940087117508831203133E
:10019800210494000800F1007108F000F00DF00D42
:1001A800831203131F087006C33970069F001E08C8
:1001B80008003F30831203139F051F111F14831675
:1001C80003139F121F129F1308000A128A1174202A
:1001D8000A128A11EE280A128A110C280A128A11A8
:1001E800FB200A128A1183120313130808008316CE
:1001F8000313141C00290129FB280800F0007008CB
:080208008312031393000800A8
:04400E00D420FF3F7C
:00000001FF
