:020000040000FA
:060000000A128A110C280F
:10000800FE00030EF7000A08F8000A128A11E62813
:100018000A128A110F2883132D30FD000130FE00CB
:100028003C30FF00203084000A128A112D210A1268
:100038008A110A128A1149210A128A11F900F0015B
:10004800F101F201F301F401F50183010A128A11A9
:100058002D28831603130F088F3910388F000F14BB
:100068008316031789018801831603138501073056
:1000780086008701880181131514951415158312BC
:10008800031385018601870188018316031316145B
:100098009614161581128111073081048630831257
:1000A800031381000B118B178B158B167408203ED8
:1000B80084008313000885007308203E840000082C
:1000C8008800861C682869286B28F101F10A061D3A
:1000D8006E286F287128F001F00A86187428752890
:1000E80084287103031D79287A2884287203031D44
:1000F8007E287F288428F1010130AD002D08F407FF
:1001080006198728882897287003031D8C288D28AE
:1001180097287203031D912892289728F00101302F
:10012800AD002D08F3070830740603199C289D2894
:10013800A828083073060319A228A328A828790834
:10014800293E84000008870008307406031DAD2886
:10015800AE28B228F2012A0887000617083073066D
:10016800031DB728B828CD28F2012B088700861769
:10017800CD288615061286125A288611061686126A
:100188005A288611061286165A28861106128616CD
:100198005A287908AD00AE012E08003A0319D5286F
:1001A8005A282D08003A0319BD28013A0319C12815
:1001B800033A0319C528013A0319C9285A280A120B
:1001C8008A110C280B1CE928EA2804298312031336
:1001D8000618EF28F02803297208031DF428F528CB
:1001E8000329F501F50AF401F3010330F600760856
:1001F800F900F101F00106138613880185010B103F
:100208000B1D0729082922297908031D0C290D2906
:1002180016297503031D112912291629F501F20162
:10022800F20A1D297503031D1A291B291D290130EE
:10023800F90286308312031381000B1178088A00B3
:10024800770E8300FE0E7E0E09007E088A007F0866
:1002580082000A128A1129210A128A118000840A4E
:1002680004087D0603190034FF0A0319FE0A2D2924
:1002780000348034403420341034083404340234D8
:0C02880001343F3406345B344F3403343F
:04400E00D420FF3F7C
:00000001FF
