:020000040000FA
:100000000A128A11FC2F00308A000408840A820731
:1000100000347734773477342E3465346C34653477
:100020006334743472346F3453346F346D346534E4
:100030002E3463346F346D3400344C3443344434E0
:1000400020344C346934623472346134723479341B
:10005000203466346F34723400344434653476347A
:1000600065346C346F347034653464342034423415
:100070007934003465346C346534633474347234E8
:100080006F3453346F346D346534003448346F3416
:100090006C34613420344D3475346E3464346F34D0
:1000A00000344D3450344C344134423420345834CC
:0600B00043343834003433
:100C3C0000300A128A1141260A128A1101300A1256
:100C4C008A1141260A128A110800F200831203133A
:100C5C00071472080A128A11A4260A128A11831226
:100C6C00031387141A30F100F10B3A2E0000831293
:100C7C00031387100800F300831203130710730883
:100C8C000A128A11A4260A128A11831203138714DA
:100C9C000B30F2006230F100F10B522EF20B522E9F
:100CAC0000008312031387100800F6007603031D5F
:100CBC00602E612E6D2E74087F3EF5007508F700CE
:100CCC0077080A128A1141260A128A117E2E0230E6
:100CDC007606031D722E732E7E2E7408BF3EF50011
:100CEC007508F70077080A128A1141260A128A1130
:100CFC000800F500F301F401962E730875078400C3
:100D0C000A128A1103200A128A110A128A112B263E
:100D1C000A128A110130F3070318F40A0030F407A1
:100D2C007308750784000A128A1103200A128A11AB
:100D3C00003A031DA22EA32E832E0800F000701C77
:100D4C00A82EA92EAD2E831203130814B02E8312D5
:100D5C0003130810F01CB32EB42EB62E8814B72E25
:100D6C008810701DBA2EBB2EBD2E0815BE2E081174
:100D7C00F01DC12EC22EC42E8815C52E8811701ED2
:100D8C00C82EC92ECB2E0816CC2E0812F01ECF2E34
:100D9C00D02ED22E8816D32E8812701FD62ED72E78
:100DAC00D92E0817DA2E0813F01FDD2EDE2EE02EBA
:100DBC008817E12E8813080000300A128A11A42625
:100DCC000A128A113430F500F130F400F40BEC2ED9
:100DDC00F50BEC2EF12E30300A128A1141260A1234
:100DEC008A110D30F500FB30F400F40BFB2EF50BE3
:100DFC00FB2E002F30300A128A1141260A128A115A
:100E0C001D30F5009130F400F40B0A2FF50B0A2F6E
:100E1C0030300A128A1141260A128A1138300A120D
:100E2C008A1141260A128A1108300A128A114126A7
:100E3C000A128A1101300A128A1141260A128A11E9
:100E4C0006300A128A1141260A128A110C300A1233
:100E5C008A1141260A128A1108008316031388018D
:100E6C0087010A128A11E2260A128A110A128A11C1
:100E7C001E260A128A11F401F40A01300A128A1190
:100E8C005B260A128A1115300A128A117F260A1261
:100E9C008A11F401F40A02300A128A115B260A1232
:100EAC008A1149300A128A117F260A128A110630D9
:100EBC00FA001330F900AD30F800F80B632FF90B82
:100ECC00632FFA0B632F6A2F0A128A111E260A123D
:100EDC008A11F401F40A01300A128A115B260A12F3
:100EEC008A1125300A128A117F260A128A11F401FE
:100EFC00F40A02300A128A115B260A128A11323065
:100F0C000A128A117F260A128A110630FA0013304F
:100F1C00F900AD30F800F80B912FF90B912FFA0B6B
:100F2C00912F982F0A128A111E260A128A11F40187
:100F3C00F40A01300A128A115B260A128A11013056
:100F4C000A128A117F260A128A110630FA0013300F
:100F5C00F900AD30F800F80BB12FF90BB12FFA0BEB
:100F6C00B12FB82F0A128A111E260A128A11F40107
:100F7C00F40A02300A128A115B260A128A114830CE
:100F8C000A128A112B260A128A116F300A128A1140
:100F9C002B260A128A116C300A128A112B260A127D
:100FAC008A1161300A128A112B260A128A11F40155
:100FBC00F40A01300A128A115B260A128A113E3099
:100FCC000A128A117F260A128A110B30FA00263077
:100FDC00F9005D30F800F80BF12FF90BF12FFA0B3B
:100FEC00F12FF82F3C2F0A128A11002883010A12C4
:040FFC008A11332FF4
:04400E00D420FF3F7C
:00000001FF
