:020000040000FA
:100000000A128A11F02F64008001840A0406031981
:10001000003404060428FB01FC0176087704031968
:10002000122813284A28FD01FD0A21280130031057
:10003000F60DF70DFF3E031D17280130FA007A0870
:10004000FD07F71F24282528162801300310FB0D73
:10005000FC0DFF3E031D262877087902031D322878
:1000600076087802031C352836283D287608F802E1
:100070007708031CF903F9027B1401300310F70C15
:10008000F60CFF3E031D3E280130FD02031D4928EA
:100090004A2825287C08F7007B08F600080083160C
:1000A0000313C100A130AB002B08B400D92F2530B9
:1000B000480603195C285D2869284808AB004108F8
:1000C00084002B08831380000130AB002B08C1078C
:1000D000D92FB501B601200884000A168A150A2016
:1000E0000A128A112E3A031D76287728BC28361763
:1000F0000130AB002B08A007C601C701AB280A30AE
:10010000F0000030F100831603134708F30046089F
:10011000F2000A168A15B6220A128A11710883168D
:100120000313C7007008C600200884000A168A1549
:100130000A200A128A11D03EAB00FF3003180030AB
:10014000AC002B08C6070318C70A2C08C7070130E4
:10015000AB002B08A007200884000A168A150A2085
:100160000A128A110A128A1502200A128A11031829
:10017000BA28BB287F28C228C601C7013616C22864
:100180003615E428013083160313A007FF3020073B
:1001900084000A168A150A200A128A11C800AB00C8
:1001A000AC012C08003A0319D628D92F2B08003AA5
:1001B0000319EB2F643A0319E428023A0319C02803
:1001C0000F3A0319E428D92F00303505AB0007306A
:1001D0003605AC002B082C040319EF28F028B12EAB
:1001E000361EF328F428F8280630C6000030C70071
:1001F0003408840083130008C200840A0008C30086
:10020000840A0008C400840A0008C5000430AB005A
:100210002B08B4074508F3004408F2004308F10036
:100220004208F0000030F7000030F6000030F50022
:100230000030F4000A168A15A4260A128A1103183F
:10024000222923294029831603134508F300440873
:10025000F2004308F1004208F0000A168A15FA215C
:100260000A128A11730883160313C5007208C400AA
:100270007108C3007008C2000330B5040030B60432
:1002800083160313B701B8014508F3004408F200D0
:100290004308F1004208F0000030F7000030F6009B
:1002A0000030F5000030F4000A168A15BC230A124B
:1002B0008A1103185C295D294D2A03108316031344
:1002C000440D450D823EB700FF3003180030B800E2
:1002D000FF30B7070318B80AFF30B8070330F00043
:1002E0000030F1003808F3003708F2000A168A15CA
:1002F000B6220A128A11710883160313B800700817
:10030000B7000A30F7000030F8003808FA00370864
:10031000F9000A168A15BF250A128A117808831671
:100320000313B8007708B700B81F972998299E29AA
:10033000FF30B7070318B80AFF30B8073703FF3A92
:100340000A128A1540210A128A11831203134108E6
:1003500083160313BC008312031340088316031390
:10036000BB00831203133F0883160313BA008312E2
:1003700003133E0883160313B900450883120313C1
:10038000A70083160313440883120313A6008316E1
:100390000313430883120313A500831603134208B3
:1003A00083120313A400831603133C088312031360
:1003B000AB00831603133B0883120313AA008316B2
:1003C00003133A0883120313A90083160313390891
:1003D00083120313A8000A128A159F240A128A1195
:1003E00083120313270883160313BC00831203131D
:1003F000260883160313BB008312031325088316F4
:100400000313BA0083120313240883160313B900DD
:100410003C08F3003B08F2003A08F1003908F0000C
:100420003F30F7008030F6000030F5000030F40077
:100430000A168A15A4260A128A110318202A212ACC
:100440002A2AFF3083160313B7070318B80AFF30B0
:10045000B8074D2A831603133C08F3003B08F2004B
:100460003A08F1003908F0004130F7002030F6007A
:100470000030F5000030F4000A168A15A4260A128E
:100480008A11031C442A452A4D2A0130831603137E
:10049000B7070318B80A0030B807831603134708D4
:1004A000803AFF0080307F02031D582A0D3046023B
:1004B00003185B2A5C2AA32A8316031346080A162C
:1004C0008A116D230A128A11831203134108D50081
:1004D0004008D4003F08D3003E08D200831603131F
:1004E000450883120313D9008316031344088312AB
:1004F0000313D80083160313430883120313D70092
:1005000083160313420883120313D6000A168A11B6
:1005100078250A128A1183120313550883160313D0
:10052000C50083120313540883160313C4008312F7
:100530000313530883160313C300831203135208D3
:1005400083160313C200831603133808803AFF0092
:1005500080307F02031DAE2A0A3037020318B12A09
:10056000B22A032B831603134508F3004408F20054
:100570004308F1004208F0000030F7000030F600B8
:100580000030F5000030F4000A168A15BC230A1268
:100590008A110318CC2ACD2A752B8316031345081C
:1005A00083120313D4008316031344088312031326
:1005B000D30083160313430883120313D200831658
:1005C0000313420883120313D1000A168A15282642
:1005D0000A128A118312031354085304520451045B
:1005E000031DF32AF42A752B831603133808803A67
:1005F000FF0080307F02031DFF2A02303702031CF8
:10060000022B032B752B831603133C08F3003B08C6
:10061000F2003A08F1003908F0004030F700893064
:10062000F6007030F5005F30F4000A168A15A42633
:100630000A128A1103181D2B1E2B272BF730831645
:100640000313B7070318B80AFF30B8072F2BF83089
:1006500083160313B7070318B80AFF30B807370823
:100660000A128A1540210A128A11831203134108C3
:1006700083160313BC00831203134008831603136D
:10068000BB00831203133F0883160313BA008312BF
:1006900003133E0883160313B9004508F30044080A
:1006A000F2004308F1004208F0003C08F7003B0864
:1006B000F6003A08F5003908F4000A168A11D2202B
:1006C0000A128A11730883160313C0007208BF0050
:1006D0007108BE007008BD000030C5000030C400C5
:1006E0000030C3000030C200F92B83160313450805
:1006F00083120313D40083160313440883120313D5
:10070000D30083160313430883120313D200831606
:100710000313420883120313D1000A168A152826F0
:100720000A128A1183120313540883160313C0009C
:1007300083120313530883160313BF00831203139A
:10074000520883160313BE00831203135108831645
:100750000313BD004008F3003F08F2003E08F1001B
:100760003D08F00000300A168A1546270A128A1141
:10077000730883120313E9007208E8007108E700A8
:100780007008E60083160313450883120313ED0077
:1007900083160313440883120313EC008316031318
:1007A000430883120313EB008316031342088312DA
:1007B0000313EA000A168A1592220A128A1183127A
:1007C0000313690883160313C50083120313680813
:1007D00083160313C40083120313670883160313DD
:1007E000C30083120313660883160313C200B70104
:1007F000B801C801C80A4808AB0001300310AB0DAE
:10080000FF3E031DFE2B03102B0D693E84000A16CC
:100810008A150A200A128A11AC000A168A150A20C3
:100820000A128A11AD000A168A150A200A128A11C4
:10083000AE000A168A150A200A128A11AF002F0884
:100840004002031D2D2C2E083F02031D2D2C2D08C8
:100850003E02031D2D2C2C083D020318302C312C98
:10086000322C3C2C0130AB002B08C8070A3048065C
:10087000031D3B2C3C2CFB2B03303505AB0000301B
:100880003605AC002B082C040319472C482CDA2C15
:100890002D30AB00410884002B0883138000013009
:1008A000AB002B08C107DA2C4808AB00013003105D
:1008B000AB0DFF3E031D572C03102B0D693E84002A
:1008C0000A168A150A200A128A11F0000A168A15D9
:1008D0000A200A128A11F1000A168A150A200A1241
:1008E0008A11F2000A168A150A200A128A11F300E8
:1008F0004008F7003F08F6003E08F5003D08F40008
:100900000A168A1559250A128A11730883160313C9
:10091000BC007208BB007108BA007008B900003052
:1009200083120313A3000030A2000030A1000A309C
:10093000A000831603133C0883120313A700831639
:1009400003133B0883120313A600831603133A080C
:1009500083120313A50083160313390883120313AC
:10096000A4000A168A15AA240A128A1183120313F4
:10097000230883160313BC00831203132208831673
:100980000313BB0083120313210883160313BA0059
:1009900083120313200883160313B9003908303E6D
:1009A000AB00410884002B08831380000130AB00AA
:1009B0002B08C1070130C802480A031DE02CE12CB6
:1009C000542CF52C303083160313AB0041088400FF
:1009D0002B08831380000130AB002B08C107FF30C8
:1009E000B7070318B80AFF30B8073808803AFF0085
:1009F00080307F02031DFE2C013037020318012DC9
:100A0000022DE22C831603134708803AFF00803042
:100A10007F02031D0D2D09304602031C102D112DE0
:100A2000182D083083160313AB002B08C8001E2DA9
:100A3000831603134608AB002B08C8004808AB0018
:100A4000AC012B08C6022C08031CC703C7024808C8
:100A500003192B2D2C2D372D2E30AB00410884008F
:100A60002B08831380000130AB002B08C107480816
:100A70000A128A1540210A128A11831203134108AF
:100A800083160313B3008312031340088316031362
:100A9000B200831203133F0883160313B1008312BD
:100AA00003133E0883160313B000330883120313A5
:100AB000AB0083160313320883120313AA008316B4
:100AC0000313310883120313A9008316031330089C
:100AD00083120313A800831603134508831203131C
:100AE000A70083160313440883120313A60083167A
:100AF0000313430883120313A5008316031342084C
:100B000083120313A4000A128A159F240A128A1161
:100B1000831203132708D4002608D3002508D20027
:100B20002408D1000A168A1528260A128A1183126F
:100B30000313540883160313C000831203135308CE
:100B400083160313BF008312031352088316031383
:100B5000BE0083120313510883160313BD00912EA8
:100B60004808AB0001300310AB0DFF3E031DB32D51
:100B700003102B0D693E84000A168A150A200A12FA
:100B80008A11F0000A168A150A200A128A11F10049
:100B90000A168A150A200A128A11F2000A168A1504
:100BA0000A200A128A11F3004008F7003F08F600F5
:100BB0003E08F5003D08F4000A168A1559250A1268
:100BC0008A11730883160313BC007208BB007108F6
:100BD000BA007008B900003083120313A30000307C
:100BE000A2000030A1000A30A000831603133C08C5
:100BF00083120313A700831603133B088312031306
:100C0000A600831603133A0883120313A500831664
:100C10000313390883120313A4000A168A15AA24A1
:100C20000A128A1183120313230883160313BC00CC
:100C300083120313220883160313BB0083120313CA
:100C4000210883160313BA008312031320088316A6
:100C50000313B9003908303EAB00410884002B086B
:100C6000831380000130AB002B08C1074808AB009C
:100C700001300310AB0DFF3E031D392E03102B0D69
:100C8000693E84000A168A150A200A128A11831204
:100C90000313A0000A168A150A200A128A11A1005D
:100CA0000A168A150A200A128A11A2000A168A1543
:100CB0000A200A128A11A300831603134008831224
:100CC0000313A700831603133F0883120313A60020
:100CD000831603133E0883120313A5008316031320
:100CE0003D0883120313A4000A168A15AA240A12C7
:100CF0008A1183120313230883160313C00083127F
:100D00000313220883160313BF0083120313210861
:100D100083160313BE0083120313200883160313E4
:100D2000BD000130C802480A031D972E982EB02D31
:100D3000AA2E3030AB00410884002B0883138000BA
:100D40000130AB002B08C107FF30C6070318C70AE4
:100D5000FF30C70746084704031DAF2EB02E992E5B
:100D6000D92F3408840083130008AB00840A0008DC
:100D7000AC002B08BD002C08BE000030BE1BFF30AD
:100D8000BF00C0000230AB002B08B407C01FC92E43
:100D9000CA2ED92E0330B5040030B604BD09BE09F1
:100DA000BF09C009BD0A0319BE0A0319BF0A031906
:100DB000C00A46084704031DDE2EDF2EED2E400834
:100DC0003F043E043D04031DE62EE72EED2E0130C8
:100DD000C6070318C70A0030C707C801C80A480871
:100DE000AB0001300310AB0DFF3E031DF22E0310CC
:100DF0002B0D693E84000A168A150A200A128A11F0
:100E0000AC000A168A150A200A128A11AD000A16C9
:100E10008A150A200A128A11AE000A168A150A20BB
:100E20000A128A11AF002F084002031D212F2E083D
:100E30003F02031D212F2D083E02031D212F2C08E8
:100E40003D020318242F252F262F302F0130AB0011
:100E50002B08C8070A304806031D2F2F302FEF2E0E
:100E60004708803A803C031D372F46084802031884
:100E70003A2F3B2F3C2F542F831603134708803AF9
:100E8000AB0080302B02031D472F48084602031891
:100E90004A2F4B2F542F831603134808AB00AC0185
:100EA0002B08C6002C08C700033083160313350532
:100EB000AB0000303605AC002B082C040319612F61
:100EC000622FCB2F2D30AB00410884002B088313F9
:100ED00080000130AB002B08C107CB2F00308312FC
:100EE0000313A3000030A2000030A1000A30A000CC
:100EF000831603134608AB0001300310AB0DFF3E11
:100F0000031D7D2F03102B0D693E84000A168A15E0
:100F10000A200A128A11F0000A168A150A200A12FB
:100F20008A11F1000A168A150A200A128A11F200A3
:100F30000A168A150A200A128A11F3004008F700DF
:100F40003F08F6003E08F5003D08F4000A168A1531
:100F500059250A128A11730883120313A700720815
:100F6000A6007108A5007008A4000A168A15AA2414
:100F70000A128A11831203132008303E83160313CA
:100F8000AC002C08C8004808AB00410884002B08BE
:100F900083138000692FFF30C6070318C70AFF308C
:100FA000C707460A031DD82F470A031DD82FD92F7C
:100FB0006E2F0130A007FF30200784000A168A1523
:100FC0000A200A128A11AB002B08C8004808031D2A
:100FD000EA2FEB2F57284108840083138001080073
:100FE00083120313EE018313CC308400E7300A121E
:100FF0008A1103200A128A1183010A128A15142801
:10100400F100F0013A307102031809280A28122865
:1010140030307102031C0F2810281228F001F00A46
:10102400700C08007030831603138F040F1483169A
:1010340003178901081488140330831603138500E9
:10104400803087008801831203138501870188019A
:101054000A168A1505220A128A150A168A155924AF
:101064000A128A1583160313181218158316031708
:101074008715CF308316031399009A018312031343
:101084009817181318168316031398168B178B15B5
:101094000B170C17831203139F14831203139F1847
:1010A400542855286B2800300A168A1511220A1272
:1010B4008A1583160313C9004908D5000C3083161A
:1010C4000313C900C90B64280000831203130C1313
:1010D4009F14F401F40A01300A168A156E220A12CA
:1010E4008A15A030F3008030F4000A168A157A239A
:1010F4000A128A158316031356080A168A150A2437
:101104000A128A15831203135B0883160313D30090
:10111400831203135A0883160313D2008312031392
:10112400590883160313D100831203135808831636
:101134000313D00055080A168A150A240A128A15C0
:10114400831203135B0883160313CF008312031364
:101154005A0883160313CE00831203135908831607
:101164000313CD0083120313580883160313CC0012
:101174009130C9004908A0005308A4005208A300F4
:101184005108A2005008A1004F08A8004E08A7006B
:101194004D08A6004C08A5005408CA00CB014A0813
:1011A400A9004B08AA00D7300A128A114F200A124C
:1011B4008A15D7300A168A154F220A128A15F401A5
:1011C400F40A02300A168A156E220A128A15D730DA
:1011D400F3000030F4000A168A157A230A128A15DD
:1011E400831203139F18F728F8280E2901300A16D2
:1011F4008A1511220A128A1583160313C900490895
:10120400D6000C3083160313C900C90B072900004C
:10121400831203130C139F148C1E112912292D29D8
:101224001B290130C9004908D4072D290130D402F3
:101234002D291A0883160313C900CA014A08003A63
:10124400031925292D2949082B3A03191329063A8C
:10125400031918292D29023083160313CB000430F7
:10126400CA00B930C900C90B3529CA0B3529CB0BC3
:1012740035293C294F280A128A11002883120313A6
:10128400D000D01F46294729F42AD009D00A500893
:10129400803A123E031C4F295029382A0A30F7009D
:1012A4000030F8005008F200F301F21BF30364303D
:1012B400F0000030F1000A168A1500250A128A157A
:1012C4007108FA007008F9000A168A15BF250A1277
:1012D4008A15770883120313C20001300310C20D6C
:1012E400FF3E031D70290310420D593E84000A1667
:1012F4008A150A200A128A15C3000A168A150A20BA
:101304000A128A15C4000A168A150A200A128A15B6
:10131400C5000A168A150A200A128A15C60046084C
:10132400A7004508A6004408A5004308A4006430AB
:10133400F7000030F8005008F900FA01F91BFA032D
:101344000A168A15BF250A128A1577088312031311
:10135400C70001300310C70DFF3E031DAC29031065
:10136400470D7D3E84000A168A150A200A128A1542
:10137400C8000A168A150A200A128A15C9000A1614
:101384008A150A200A128A15CA000A168A150A2022
:101394000A128A15CB004B08AB004A08AA00490878
:1013A400A9004808A8000A128A159F240A128A155F
:1013B400831203132708CF002608CE002508CD008A
:1013C4002408CC000A30F0000030F1005008F2008C
:1013D400F301F21BF3030A168A1500250A128A1573
:1013E400700883120313C20001300310C20DFF3EC4
:1013F400031DF7290310420D353E84000A168A1591
:101404000A200A128A15C3000A168A150A200A122B
:101414008A15C4000A168A150A200A128A15C500FC
:101424000A168A150A200A128A15C6004608A70059
:101434004508A6004408A5004308A4004F08AB00D3
:101444004E08AA004D08A9004C08A8000A128A15E3
:101454009F240A128A15831203132708C100260841
:10146400C0002508BF002408BE009E2C5008803A06
:10147400753E031C3E2A3F2AC72A0A30F00000307A
:10148400F1005008F200F301F21BF3030A168A1567
:1014940000250A128A15700883120313C200013052
:1014A4000310C20DFF3E031D522A0310420D353EA8
:1014B40084000A168A150A200A128A15C3000A161D
:1014C4008A150A200A128A15C4000A168A150A20E7
:1014D4000A128A15C5000A168A150A200A128A15E4
:1014E400C6004608A7004508A6004408A50043080E
:1014F400A4000A30F7000030F8005008F900FA019F
:10150400F91BFA030A168A15BF250A128A157708E9
:1015140083120313C70001300310C70DFF3E031DE0
:101524008E2A0310470D593E84000A168A150A2094
:101534000A128A15C8000A168A150A200A128A1580
:10154400C9000A168A150A200A128A15CA000A1640
:101554008A150A200A128A15CB004B08AB004A08E8
:10156400AA004908A9004808A8000A128A159F245D
:101574000A128A15831203132708C1002608C00023
:101584002508BF002408BE009E2C5008C20001306C
:101594000310C20DFF3E031DCA2A0310420D353E3F
:1015A40084000A168A150A200A128A15C3000A162C
:1015B4008A150A200A128A15C4000A168A150A20F6
:1015C4000A128A15C5000A168A150A200A128A15F3
:1015D400C6004608C1004508C0004408BF004308CF
:1015E400BE009E2C5008803A123E031CFA2AFB2AA5
:1015F400E32B0A30F7000030F8005008F200F30142
:10160400F21BF3036430F0000030F1000A168A156F
:1016140000250A128A157108FA007008F9000A16E2
:101624008A15BF250A128A15770883120313C2008C
:1016340001300310C20DFF3E031D1B2B0310420D8E
:10164400253E84000A168A150A200A128A15C30048
:101654000A168A150A200A128A15C4000A168A155F
:101664000A200A128A15C5000A168A150A200A12C7
:101674008A15C6004608A7004508A6004408A50028
:101684004308A4006430F7000030F8005008F90063
:10169400FA01F91BFA030A168A15BF250A128A15DC
:1016A400770883120313C70001300310C70DFF3EF0
:1016B400031D572B0310470D493E84000A168A1553
:1016C4000A200A128A15C8000A168A150A200A1264
:1016D4008A15C9000A168A150A200A128A15CA0030
:1016E4000A168A150A200A128A15CB004B08AB0089
:1016F4004A08AA004908A9004808A8000A128A153D
:101704009F240A128A15831203132708CF00260880
:10171400CE002508CD002408CC000A30F0000030AB
:10172400F1005008F200F301F21BF3030A168A15C4
:1017340000250A128A15700883120313C2000130AF
:101744000310C20DFF3E031DA22B0310420D013EE8
:1017540084000A168A150A200A128A15C3000A167A
:101764008A150A200A128A15C4000A168A150A2044
:101774000A128A15C5000A168A150A200A128A1541
:10178400C6004608A7004508A6004408A50043086B
:10179400A4004F08AB004E08AA004D08A9004C084D
:1017A400A8000A128A159F240A128A1583120313A9
:1017B4002708C1002608C0002508BF002408BE0071
:1017C4009E2C5008803A753E031CE92BEA2B722CA0
:1017D4000A30F0000030F1005008F200F301F21B6F
:1017E400F3030A168A1500250A128A157008831253
:1017F4000313C20001300310C20DFF3E031DFD2B75
:101804000310420D013E84000A168A150A200A12AA
:101814008A15C3000A168A150A200A128A15C400FA
:101824000A168A150A200A128A15C5000A168A158C
:101834000A200A128A15C6004608A7004508A60011
:101844004408A5004308A4000A30F7000030F8005B
:101854005008F900FA01F91BFA030A168A15BF2584
:101864000A128A15770883120313C7000130031084
:10187400C70DFF3E031D392C0310470D253E840080
:101884000A168A150A200A128A15C8000A168A1529
:101894000A200A128A15C9000A168A150A200A1291
:1018A4008A15CA000A168A150A200A128A15CB005C
:1018B4004B08AB004A08AA004908A9004808A80038
:1018C4000A128A159F240A128A1583120313270801
:1018D400C1002608C0002508BF002408BE009E2CB5
:1018E4005008C20001300310C20DFF3E031D752CC9
:1018F4000310420D013E84000A168A150A200A12BA
:101904008A15C3000A168A150A200A128A15C40009
:101914000A168A150A200A128A15C5000A168A159B
:101924000A200A128A15C6004608C1004508C000EC
:101934004408BF004308BE000800831203132708AD
:101944008039AC002C08B1002708AC002C07AD008E
:101954002D08B700A61FAF2CB02CB12C37143708B4
:101964000319B52CB62CC52C370A031DBA2CBB2C75
:10197400C32C0030A7000030A6000030A5000030C2
:10198400A400A617CD2C0030A7000030A60000301C
:10199400A5000030A4002B088039AC002C08B10647
:1019A4002B08AC002C07AD002D08B600AA1FDB2CB9
:1019B400DC2CDD2C361436080319E12CE22CF12C36
:1019C400360A031DE62CE72CEF2C0030AB00003068
:1019D400AA000030A9000030A800AA17F92C003092
:1019E400AB000030AA000030A9000030A80036087F
:1019F4000319FD2CFE2C032D3708031D022D032D86
:101A04000C2D0030A7000030A6000030A5000030E7
:101A1400A400FF2F2408AC002C08F0002A080A16A2
:101A24008A15DB220A128A15710883120313BD007A
:101A34007008BC003C08AC00AD01AE01AF012F083A
:101A4400B5002E08B4002D08B3002C08B2003D08E0
:101A5400AC00AD01AE01AF012F08BB002E08BA00E7
:101A64002D08B9002C08B8002508AC002C08F0009B
:101A740029080A168A15DB220A128A1571088312AC
:101A84000313BD007008BC003C08AC00AD01AE01FE
:101A9400AF012C08B2072D0803110318013E0319E6
:101AA400542DB3072E0803110318013E03195B2DAF
:101AB400B4072F0803110318013E0319622DB5075B
:101AC4003D08AC00AD01AE01AF012C08B8072D08EC
:101AD40003110318013E0319702DB9072E080311D1
:101AE4000318013E0319772DBA072F0803110318B1
:101AF400013E03197E2DBB072608AC002C08F0001C
:101B040028080A168A15DB220A128A15710883121C
:101B14000313BD007008BC003C08AC00AD01AE016D
:101B2400AF012C08B2072D0803110318013E031955
:101B34009C2DB3072E0803110318013E0319A32D8E
:101B4400B4072F0803110318013E0319AA2DB50782
:101B54003D08AC00AD01AE01AF012C08B8072D085B
:101B640003110318013E0319B82DB9072E080311F8
:101B74000318013E0319BF2DBA072F0803110318D8
:101B8400013E0319C62DBB070830AC000310B20D8B
:101B9400B30DB40DB50DAC0BC82D2508AC002C0845
:101BA400F00028080A168A15DB220A128A15710821
:101BB40083120313BD007008BC003C08AC003D0850
:101BC400AD00AE01AF012C08B2072D0803110318B4
:101BD400013E0319EE2DB3072E0803110318013E2D
:101BE4000319F52DB4072F0803110318013E031937
:101BF400FC2DB5072408AC002C08F00029080A16AF
:101C04008A15DB220A128A15710883120313BD0098
:101C14007008BC003C08AC003D08AD00AE01AF014B
:101C24002C08B2072D0803110318013E03191B2EBB
:101C3400B3072E0803110318013E0319222EB4071B
:101C44002F0803110318013E0319292EB507083084
:101C5400AC000310B20DB30DB40DB50DAC0B2B2EAF
:101C64002408AC002C08F00028080A168A15DB2288
:101C74000A128A15710883120313BD007008BC0090
:101C84003C08AC003D08AD00AE01AF012C08B20722
:101C94002D0803110318013E0319512EB3072E0812
:101CA40003110318013E0319582EB4072F0803111A
:101CB4000318013E03195F2EB5072508AC002C0854
:101CC400F0002A080A168A15DB220A128A157108FE
:101CD40083120313BD007008BC003C08AC003D082F
:101CE400AD00AE01AF012C08B8072D08031103188D
:101CF400013E03197E2EB9072E0803110318013E75
:101D04000319852EBA072F0803110318013E03197E
:101D14008C2EBB072608AC002C08F00029080A16F4
:101D24008A15DB220A128A15710883120313BD0077
:101D34007008BC003C08AC003D08AD00AE01AF012A
:101D44002C08B8072D0803110318013E0319AB2E04
:101D5400B9072E0803110318013E0319B22EBA075E
:101D64002F0803110318013E0319B92EBB072608D7
:101D7400AC002C08F0002A080A168A15DB220A1285
:101D84008A15710883120313BD007008BC003C0857
:101D9400AC003D08AD00AE01AF0108300310AC0D3E
:101DA400AD0DAE0DAF0DFF3E031DD02E2C08B807B0
:101DB4002D0803110318013E0319E12EB9072E085B
:101DC40003110318013E0319E82EBA072F08031163
:101DD4000318013E0319EF2EBB073208AC00330889
:101DE400AD003408AE003508AF0018300310AF0C56
:101DF400AE0CAD0CAC0CFF3E031DF82E2C08B8073E
:101E04002D0803110318013E0319092FB9072E08E1
:101E140003110318013E0319102FBA072F080311E9
:101E24000318013E0319172FBB070830AC00031039
:101E3400B20DB30DB40DB50DAC0B192F3708360721
:101E4400AC00AD01AD0D2C08823EBC002D0803187A
:101E5400013EFF3EBD004B2F0130AC000310B80D16
:101E6400B90DBA0DBB0DAC0B302FB51F3A2F3B2F5C
:101E74003C2F38140130AC000310B20DB30DB40D77
:101E8400B50DAC0B3E2FFF30BC070318BD0AFF3065
:101E9400BD07BA1F4E2F4F2F2E2FB601B51F532F3C
:101EA400542F702FFF303205AC00FF303305AD00E6
:101EB400FF303405AE007F303505AF002F082E0407
:101EC4002D042C040319672F682F6B2FB601B60A53
:101ED400702F381C6E2F6F2F702F682F3608031940
:101EE400742F752FA62F0130B80700300318013066
:101EF400B907003003180130BA0700300318013065
:101F0400BB073B1C862F872FA62F3808AC00390847
:101F1400AD003A08AE003B08AF000130B0002F0D11
:101F2400AF0CAE0CAD0CAC0CB00B912F2F08BB005A
:101F34002E08BA002D08B9002C08B8000130BC07DF
:101F44000318BD0A0030BD073D08803AFF00803009
:101F54007F02031DAF2FFF303C02031CB22FB32FAF
:101F6400BE2F7F3083120313BB008030BA000030D1
:101F7400B9000030B800F32F831203133D08803AF0
:101F8400FF0080307F02031DC92F01303C0203187B
:101F9400CC2FCD2FD92F003083120313BB00003078
:101FA400BA000030B9000030B800B101F32F831239
:101FB40003133C08AC002C08B700FF30B805FF3011
:101FC400B9057F30BA050030BB05371CEA2FEB2F6B
:101FD400EC2FBA173708AC0003102C0CAD002D08F9
:101FE400BB003108AC002C08BB043B08A7003A082E
:0C1FF400A6003908A5003808A400080069
:10200A00F00083160313981C0B280C280628831249
:10201A0003130C1E112812281428700899000800AE
:10202A007008F8007108F9007208FA000310790DB7
:10203A007A0DFB007B0883120313A5002508031DF4
:10204A002728282831280030F3000030F200003019
:10205A00F1000030F000D1287408F8007508F90082
:10206A007608FA000310790D7A0DFB007B08A400AC
:10207A002408031D4128422843282828F117FF3045
:10208A00F005FF30F1050030F205F517FF30F405D1
:10209A00FF30F5050030F6050030A3000030A2003D
:1020AA000030A1000030A0007F30A502983024073C
:1020BA00F8007808A5021830F8007808A400013062
:1020CA00F8000310A00DA10DA20DA30DF80B6628B0
:1020DA0076087202031D772875087102031D772896
:1020EA0074087002031C7A287B2886287408F00278
:1020FA007508031C750FF1027608031C760AF202B2
:10210A00201401300310F00DF10DF20DFF3E031DF6
:10211A0087280130A402031D932894286428A51F48
:10212A0097289828B2282508803A973E03189E28AF
:10213A009F28A028282801300310A30CA20CA10C68
:10214A00A00CFF3E031DA1280130F8007808A5075E
:10215A00031DB028B128A028C92818302502031C5D
:10216A00B728B828C42828280130F8000310A00D81
:10217A00A10DA20DA30DF80BBB280130A50225085D
:10218A00031DC828C928B9282308F3002208F20029
:10219A002108F1002008F00008000310720D730DE9
:1021AA00F800780883120313A5002508031DDE280A
:1021BA00DF28E8280030F3000030F2000030F10098
:1021CA000030F0008F290310760D770DF80078089B
:1021DA00A4002408031DF228F328F428DF28F217A4
:1021EA00FF30F005FF30F105FF30F2050030F3054E
:1021FA00F617FF30F405FF30F505FF30F60500301D
:10220A00F7050030A3000030A2000030A100003022
:10221A00A0007F30A502A0302407F8007808A502A4
:10222A002030F8007808A4000130F8000310A00D4F
:10223A00A10DA20DA30DF80B1B2977087302031D2C
:10224A00302976087202031D302975087102031DB0
:10225A00302974087002031C33293429432974086D
:10226A00F0027508031C750FF1027608031C760F3D
:10227A00F2027708031C770FF30220140130F800EA
:10228A000310F00DF10DF20DF30DF80B4529013095
:10229A00A402031D512952291929A51F5529562976
:1022AA0070292508803A9F3E03185C295D295E291A
:1022BA00DF2801300310A30CA20CA10CA00CFF3ED6
:1022CA00031D5F290130F8007808A507031D6E2950
:1022DA006F295E29872920302502031C7529762952
:1022EA008229DF280130F8000310A00DA10DA20DEC
:1022FA00A30DF80B79290130A5022508031D8629AB
:10230A00872977292308F3002208F2002108F1001F
:10231A002008F00008008312031345088039C6001C
:10232A004608CF004508C6004607C7004708D6003A
:10233A00C41FA029A129A229561456080319A6299F
:10234A00A729B729560A031DAB29AC29B42900309D
:10235A00C5000030C4000030C3000030C200C417FA
:10236A00C501BF290030C5000030C4000030C300D9
:10237A000030C20041088039C6004608CF0641082D
:10238A00C6004607C7004708D700C01FCD29CE2977
:10239A00CF29571457080319D329D429E429570AEE
:1023AA00031DD829D929E1290030C1000030C00015
:1023BA000030BF000030BE00C017C101EC29003058
:1023CA00C1000030C0000030BF000030BE0041082C
:1023DA0040043F043E04031DF329F4290D2A00306A
:1023EA00C5000030C4000030C3000030C200803095
:1023FA00C4047F30C5044F08C6004608C504450812
:10240A00C1004408C0004308BF004208BE006C2B4C
:10241A005608031D112A122A1B2A0030C100003057
:10242A00C0000030BF000030BE006C2B5608C6004A
:10243A00C7014708C90057084602C800031CC90358
:10244A0048087F3ED00049080318013E003ED100EB
:10245A004508CE004408CD004308CC004208CB0012
:10246A000030C5000030C4000030C3000030C20094
:10247A000030D5000030D4000030D3000030D20044
:10248A00D701912A570803194B2A4C2A6C2A013082
:10249A00C6000310CB0DCC0DCD0DCE0DC60B4E2AAA
:1024AA000130C6000310C20DC30DC40DC50DC60B05
:1024BA00572AD51F612A622A632A42140130C600AC
:1024CA000310D20DD30DD40DD50DC60B652A4108C4
:1024DA004E02031D7A2A40084D02031D7A2A3F083C
:1024EA004C02031D7A2A3E084B02031C7D2A7E2ACF
:1024FA008D2A55173E08CB023F08031C3F0FCC021A
:10250A004008031C400FCD024108031C410FCE02B4
:10251A000130C6004608D7071A305702031C962A0C
:10252A00972A472A4E084D044C044B0403199E2A45
:10253A009F2ABE2A5214BE2A0130C6000310C20DB9
:10254A00C30DC40DC50DC60BA32AD51FAD2AAE2ACD
:10255A00AF2A42140130C6000310D20DD30DD40D98
:10256A00D50DC60BB12AFF30D0070318D10AFF30A8
:10257A00D107C41FC12AC22AA12AD701D51FC62A38
:10258A00C72AE32AFF305205C600FF305305C700A9
:10259A00FF305405C8007F305505C9004908480472
:1025AA00470446040319DA2ADB2ADE2AD701D70AA6
:1025BA00E32A421CE12AE22AE32ADB2A5708031902
:1025CA00E72AE82A192B0130C20700300318013024
:1025DA00C307003003180130C40700300318013064
:1025EA00C507451CF92AFA2A192B4208C6004308CE
:1025FA00C7004408C8004508C9000130CA00490D8F
:10260A00C90CC80CC70CC60CCA0B042B4908C50058
:10261A004808C4004708C3004608C2000130D00772
:10262A000318D10A0030D1075108803AFF008030E0
:10263A007F02031D222BFF305002031C252B262B61
:10264A00342BFF3083120313D0000030D100003046
:10265A00C5000030C4000030C3000030C20083123D
:10266A0003135108803AFF0080307F02031D3F2B7D
:10267A00013050020318422B432B502B83120313B1
:10268A00D001D1010030C5000030C4000030C300C1
:10269A000030C200CF01831203135008C600460857
:1026AA00D600561C592B5A2B5C2BC417602B7F3033
:1026BA00C6004608C4055608C6000310460CC700E3
:1026CA004708C5004F08C6004608C504042A080082
:1026DA0083120313D1006E305102031C752B762B23
:1026EA00832C3F30A7000030A6000030A500003040
:1026FA00A4006430F6000030F7005108C200C3019C
:10270A004208F8004308F9000A128A110B200A1637
:10271A008A11760883120313C40001300310C40D12
:10272A00FF3E031D932B0310440D7D3E84000A16C1
:10273A008A150A200A168A11C5000A168A150A205D
:10274A000A168A11C6000A168A150A200A168A115A
:10275A00C7000A168A150A200A168A11C8004808EC
:10276A00AB004708AA004608A9004508A8000A12B3
:10277A008A159F240A168A11831203132708D00088
:10278A002608CF002508CE002408CD000A30F6001E
:10279A000030F7005108C200C3014208F2004308A2
:1027AA00F3006430F0000030F1000A168A150223A3
:1027BA000A168A117108F9007008F8000A128A11BB
:1027CA000B200A168A11760883120313C4000130FB
:1027DA000310C40DFF3E031DED2B0310440D593E9B
:1027EA0084000A168A150A200A168A11C5000A16D2
:1027FA008A150A200A168A11C6000A168A150A209C
:10280A000A168A11C7000A168A150A200A168A1198
:10281A00C8004808A7004708A6004608A5004508BA
:10282A00A4005008AB004F08AA004E08A9004D08A2
:10283A00A8000A128A159F240A168A118312031302
:10284A002708CC002608CB002508CA002408C9009E
:10285A000A30F0000030F1005108C200C3014208FA
:10286A00F2004308F3000A168A1502230A168A118F
:10287A00700883120313C40001300310C40DFF3E15
:10288A00031D422C0310440D353E84000A168A1596
:10289A000A200A168A11C5000A168A150A200A167B
:1028AA008A11C6000A168A150A200A168A11C70052
:1028BA000A168A150A200A168A11C8004808A700AB
:1028CA004708A6004608A5004508A4004C08AB0026
:1028DA004B08AA004A08A9004908A8000A128A1542
:1028EA009F240A168A11831203132708C100260897
:1028FA00C0002508BF002408BE00772D0B30510206
:10290A00031C882C892C342D3F30A7000030A600E8
:10291A000030A5000030A4000A30F6000030F700AD
:10292A005108C200C3014208F8004308F9000A121C
:10293A008A110B200A168A11760883120313C4001F
:10294A0001300310C40DFF3E031DA62C0310440DD5
:10295A00593E84000A168A150A200A168A11C500E9
:10296A000A168A150A200A168A11C6000A168A1534
:10297A000A200A168A11C7000A168A150A200A1698
:10298A008A11C8004808AB004708AA004608A900EF
:10299A004508A8000A128A159F240A168A1183126A
:1029AA0003132708D0002608CF002508CE002408E4
:1029BA00CD000A30F0000030F1005108C200C30116
:1029CA004208F2004308F3000A168A1502230A167F
:1029DA008A11700883120313C40001300310C40D56
:1029EA00FF3E031DF32C0310440D353E84000A16E6
:1029FA008A150A200A168A11C5000A168A150A209B
:102A0A000A168A11C6000A168A150A200A168A1197
:102A1A00C7000A168A150A200A168A11C800480829
:102A2A00A7004708A6004608A5004508A4005008C4
:102A3A00AB004F08AA004E08A9004D08A8000A12C8
:102A4A008A159F240A168A11831203132708C100C4
:102A5A002608C0002508BF002408BE00772D3F3095
:102A6A00A7000030A6000030A5000030A4005108DD
:102A7A00C20001300310C20DFF3E031D3F2D03109B
:102A8A00420D353E84000A168A150A200A168A1152
:102A9A00C3000A168A150A200A168A11C4000A16E1
:102AAA008A150A200A168A11C5000A168A150A20EA
:102ABA000A168A11C6004608AB004508AA0044084F
:102ACA00A9004308A8000A128A159F240A168A1127
:102ADA00831203132708C1002608C0002508BF0077
:102AEA002408BE0008008312031355088039DA004F
:102AFA005A08E2005508DA005A07DB005B08E400CE
:102B0A00D41F882D892D8A2D6414640803198E2DEB
:102B1A008F2D9F2D640A031D932D942D9C2D00301B
:102B2A00D5000030D4000030D3000030D200D417D2
:102B3A00D501A72D0030D5000030D4000030D300D5
:102B4A000030D20059088039DA005A08E3006308D5
:102B5A0062060319B12DB22DB32D62175908DA0096
:102B6A005A07DB005B08E300D81FBC2DBD2DBE2D24
:102B7A00631463080319C22DC32DD32D630A031DE1
:102B8A00C72DC82DD02D0030D9000030D800003014
:102B9A00D7000030D600D817D901DB2D0030D90074
:102BAA000030D8000030D7000030D6006408630235
:102BBA000318E02DE12D252E621FE42DE52DE92DC8
:102BCA008030DA005A08E2066408DA005A08E5009A
:102BDA006308DA005A08E4006508DA005A08E300D4
:102BEA005208DA005A08E5005608DA005A08D200F4
:102BFA006508DA005A08D6005308DA005A08E500D0
:102C0A005708DA005A08D3006508DA005A08D700CC
:102C1A005408DA005A08E5005808DA005A08D400BD
:102C2A006508DA005A08D8005508DA005A08E5009B
:102C3A005908DA005A08D5006508DA005A08D90096
:102C4A00E5016308DA00DB015B08DD0064085A026B
:102C5A00DC00031CDD035D08803AFF0080307F0240
:102C6A00031D392E1A305C02031C3C2E3D2E7A2E8F
:102C7A00831203135508540453045204031D462EA9
:102C8A00482E0130492E0030DA005A08E50000309B
:102C9A00D5000030D4000030D3000030D2006308E1
:102CAA00DA005A08E400822E651C5C2E5D2E662E20
:102CBA006508DA0003105A0C0138DB005B08E500EE
:102CCA00682E0310E50C521C6B2E6C2E6D2EE51728
:102CDA000130DA00550DD50CD40CD30CD20CDA0B1A
:102CEA006F2E0130DA005A08E407831203136308CF
:102CFA006402031C812E822E592E621B852E862E7B
:102D0A00D12E6408031D8A2E8B2E942E0030D500F6
:102D1A000030D4000030D3000030D200FF2F560814
:102D2A00D207570803110318013E03199D2ED30732
:102D3A00580803110318013E0319A42ED407590891
:102D4A0003110318013E0319AB2ED507551CAE2EED
:102D5A00AF2E852F651CB22EB32EBC2E6508DA0065
:102D6A0003105A0C0138DB005B08E500BE2E031085
:102D7A00E50C521CC12EC22EC32EE5170130DA0013
:102D8A00550DD50CD40CD30CD20CDA0BC52E013050
:102D9A00DA005A08E407852F5508803AFF005908D7
:102DAA00803A7F02031DE32E58085402031DE32EC6
:102DBA0057085302031DE32E560852020318E62E43
:102DCA00E72E3F2FFF30DA00FF30DB00FF30DC0058
:102DDA00FF30DD005608DE005708DF005808E00023
:102DEA005908E1005208DE025308031C530FFE2E55
:102DFA00FF2EDF025408031C540F042F052FE00294
:102E0A005508031C550F0A2F0B2FE1025E08DA073B
:102E1A005F0803185F0F122F132FDB0760080318D0
:102E2A00600F182F192FDC0761080318610ADD07E4
:102E3A005D08D5005C08D4005B08D3005A08D200AC
:102E4A008030DA005A08E206E509E50A6508031D3A
:102E5A002F2F302F4D2F0130D207003003180130A9
:102E6A00D307003003180130D407003003180130AB
:102E7A00D5074D2F5608D2025708031C570FD30205
:102E8A005808031C580FD4025908031C590FD502BD
:102E9A005508540453045204031D542F552F812FEF
:102EAA006508031D592F5A2F812F0030D500003095
:102EBA00D4000030D3000030D200FF2F0130DA00F6
:102ECA000310D20DD30DD40DD50DDA0B652FE51FE6
:102EDA006F2F702F712F5214651C742F752F782F36
:102EEA000314E50D7A2F0310E50D640803197E2FEC
:102EFA007F2F812F0130E402D41F842F852F632F67
:102F0A00E301E51F892F8A2F982F65087F39031956
:102F1A008F2F902F932FE301E30A982F521C962F9D
:102F2A00972F982F902F630803199C2F9D2FD12F2D
:102F3A000130D207003003180130D30700300318DC
:102F4A000130D407003003180130D507551CAE2FC5
:102F5A00AF2FD12F5208DA005308DB005408DC00E7
:102F6A005508DD000130DE005D0DDD0CDC0CDB0CEC
:102F7A00DA0CDE0BB92F5D08D5005C08D4005B08BB
:102F8A00D3005A08D200640A0319CC2FCD2FD12FAF
:102F9A000130DA005A08E407640A0319D52FD62F3C
:102FAA00DB2F6408031DDA2FDB2FE92F0030D50051
:102FBA000030D4000030D3000030D2006408031D72
:102FCA00E72FE82FE92FE201641CEC2FED2FEF2FFA
:102FDA00D417F32F7F30DA005A08D4056408DA00D0
:102FEA0003105A0CDB005B08D500E21FFD2FFE2FF1
:102FFA00FF2FD5170800FF1B0A2883137F18831792
:10300A000008840A0319FF0A080018308A00040815
:10301A00840A820700340034003480343F34003498
:10302A0000342034413400340034C834423400348B
:10303A0000347A344434003440341C344634003486
:10304A005034C3344734003424347434493480341B
:10305A00963418344B342034BC34BE344C342834BF
:10306A006B346E344E34F934023415345034EC3443
:10307A007834AD346034CA34F234493471340034AB
:10308A00003480343F34CD34CC34CC343D340A342B
:10309A00D73423343C346F34123483343A341734FB
:1030AA00B734D1343834AC34C53427343734BD342A
:1030BA003734863435349534BF34D63433347734A0
:1030CA00CC342B3432345F34703489343034FF34A6
:1030DA00E634DB342E340834E5343C341E346034B0
:1030EA004234A2340D3401340034003400340A343A
:1030FA000034003400346434003400340034E834DA
:10310A000334003400341034273400340034A0343B
:10311A00863401340034403442340F34003480346D
:10312A009634983400340034E134F53405340034EC
:10313A00CA349A343B3425342E343234663420343B
:10314A00203425342E343234663420342034253465
:10315A006434003453343134203420345334313419
:0A316A002034203453343334003491
:1033F40073087204710470040319012A022A042A4E
:103404008030F30608003F30831203139F051F1119
:103414001F14831603139F121F129F130800F10039
:103424007108F000F00DF00D831203131F087006ED
:10343400C33970069F001E080800F20083120313AC
:10344400071472080A168A153C230A168A15831271
:10345400031387141A30F100F10B2E2A0000831293
:10346400031387100800F300831203130710730873
:103474000A168A153C230A168A1583120313871425
:103484000B30F2006230F100F10B462AF20B462AAF
:1034940000008312031387100800F2005D2A7208EB
:1034A400840000080A168A1105200A168A150130BC
:1034B400F1007108F2077208840083130008031DE9
:1034C400642A652A512A831203130C1E6A2A6B2A62
:1034D4006D2A0D3099000800F6007603031D732A47
:1034E400742A802A74087F3EF5007508F70077086F
:1034F4000A168A1535220A168A15912A023076068A
:10350400031D852A862A912A7408BF3EF500750892
:10351400F70077080A168A1535220A168A15080054
:10352400803083120313E9066D08D5006C08D400BB
:103534006B08D3006A08D2006908D9006808D8006B
:103544006708D7006608D6000A168A1178250A1675
:103554008A15831203135508E9005408E800530838
:10356400E7005208E6000800F401F501701CBB2ACC
:10357400BC2AC22A7208F4070318F50A7308F5076F
:1035840001300310F20DF30DFF3E031DC32A013079
:103594000310F10CF00CFF3E031DCA2A70087104DD
:1035A400031DD52AD62AB82A7508F1007408F0003C
:1035B4000800F800F401F5017008F200F301720844
:1035C400F6007308F700781CE82AE92AEF2A76083F
:1035D400F4070318F50A7708F50701300310F60D10
:1035E400F70DFF3E031DF02A0310F80C7808031DA5
:1035F400FC2AFD2AE52A7508F1007408F000080089
:10360400700871040319072B082B372BF501F50AF1
:10361400162B01300310F00DF10DFF3E031D0C2B92
:103624000130F4007408F507F11F192B1A2B0B2B2A
:1036340071087302031D202B70087202031C232BD4
:10364400242B2A2B7008F2027108031CF303F302E3
:1036540001300310F10CF00CFF3E031D2B2B013045
:10366400F502031D362B372B1A2B7308F100720851
:10367400F0000800F000701C402B412B452B8312F6
:1036840003130814482B831203130810F01C4B2B4C
:103694004C2B4E2B88144F2B8810701D522B532B00
:1036A400552B0815562B0811F01D592B5A2B5C2B42
:1036B40088155D2B8811701E602B612B632B0816F7
:1036C400642B0812F01E672B682B6A2B88166B2B51
:1036D4008812701F6E2B6F2B712B0817722B081317
:1036E400F01F752B762B782B8817792B88130800FD
:1036F400F801F9019F2B78087307F6007408F500A8
:103704000318F50AF81F872BF5037508F7007708E7
:1037140083120313FF00760884000A168A1500201A
:103724000A168A150A168A151F220A168A150130E6
:10373400F8070318F90A0030F90778087307F60048
:103744007408F5000318F50AF81FA92BF50375088A
:10375400F700770883120313FF00760884000A1623
:103764008A1500200A168A15003A031DBA2BBB2BB2
:103774007D2B080000307005F80000307105F90059
:1037840080307205FA007F307305FB007B087A04F1
:1037940079047804031DCF2BD02BD82B0030F300F1
:1037A4000030F2000030F1000030F0000030740509
:1037B400F80000307505F90080307605FA007F3096
:1037C4007705FB007B087A0479047804031DEB2B4E
:1037D400EC2BF42B0030F7000030F6000030F5003D
:1037E4000030F40077087306031D022C7608720675
:1037F400031D022C75087106031D022C7408700643
:103804000319052C062C082C0310092C031408009A
:1038140083120313E0004330C1007F30C000003046
:10382400BF000030BE004030A700A030A60000302A
:10383400A5000030A4006008DC00DD01DE01DF012A
:103844005F08F3005E08F2005D08F1005C08F00018
:1038540001300A168A1546270A168A157308831238
:103864000313AB007208AA007108A9007008A8002D
:103874000A128A159F240A168A158312031327082D
:10388400C5002608C4002508C3002408C2000A167F
:103894008A1190210A168A15831203134108DB004A
:1038A4004008DA003F08D9003E08D800080000307C
:1038B4000A168A153C230A168A153430F500F130AD
:1038C400F400F40B632CF50B632C682C30300A16CF
:1038D4008A1535220A168A150D30F500FB30F400DE
:1038E400F40B722CF50B722C772C30300A168A15D7
:1038F40035220A168A151D30F5009130F400F40BB8
:10390400812CF50B812C30300A168A1535220A16C3
:103914008A1538300A168A1535220A168A1508308F
:103924000A168A1535220A168A1501300A168A15CE
:1039340035220A168A1506300A168A1535220A1601
:103944008A150C300A168A1535220A168A150800BB
:103954008312031323082204210420040319B32C23
:10396400B42CF72CA901A90AC42C0130A800031017
:10397400A00DA10DA20DA30DA80BB92C0130A80018
:103984002808A907A31FC72CC82CB72C2308270273
:10399400031DD62C22082602031DD62C210825023D
:1039A400031DD62C20082402031CD92CDA2CE82C65
:1039B4002008A4022108031C210FA5022208031CCD
:1039C400220FA6022308031C230FA70201300310B1
:1039D400A30CA20CA10CA00CFF3E031DE92C01308A
:1039E400A902031DF62CF72CC82C2708A3002608CF
:1039F400A2002508A1002408A0000800F601F31F76
:103A0400042D052D0C2DF209F309F20A0319F30A0A
:103A1400F601F60AF11F0F2D102D152DF009F109ED
:103A2400F00A0319F10A7008710403191A2D1B2DE9
:103A34004A2DF501F50A292D01300310F00DF10D81
:103A4400FF3E031D1F2D0130F4007408F507F11F1C
:103A54002C2D2D2D1E2D71087302031D332D70087E
:103A64007202031C362D372D3D2D7008F2027108A9
:103A7400031CF303F30201300310F10CF00CFF3EBE
:103A8400031D3E2D0130F502031D492D4A2D2D2D18
:103A9400760803194E2D4F2D542DF209F309F20A1D
:103AA4000319F30A7308F1007208F00008000030EB
:103AB400FC000030FB000030FA000030F90073080D
:103AC4007204710470040319682D692DB62DFD016B
:103AD400FD0A792D0130F8000310F00DF10DF20DFF
:103AE400F30DF80B6E2D0130F8007808FD07F31F75
:103AF4007C2D7D2D6C2D0130F8000310F90DFA0D8D
:103B0400FB0DFC0DF80B7F2D73087702031D942D1C
:103B140072087602031D942D71087502031D942DFD
:103B240070087402031C972D982DA72D7008F402B9
:103B34007108031C710FF5027208031C720FF60260
:103B44007308031C730FF702791401300310F30C8C
:103B5400F20CF10CF00CFF3E031DA82D0130FD0208
:103B6400031DB52DB62D7D2D7C08F3007B08F200D6
:103B74007A08F1007908F000080083120313A10108
:103B8400F81FC52DC62DCD2DF709F809F70A03191D
:103B9400F80AA101A10AFA1FD02DD12DDA2DF909B5
:103BA400FA09F90A0319FA0A0130FB007B08A10695
:103BB400A201A301770878040319E12DE22D192E3F
:103BC400A001A00AF02D01300310F70DF80DFF3EFF
:103BD400031DE62D0130FB007B08A007F81FF32D21
:103BE400F42DE52D01300310A20DA30DFF3E031D9E
:103BF400F52D78087A02031D012E77087902031C3B
:103C0400042E052E0C2E7708F9027808031CFA03FB
:103C1400FA02221401300310F80CF70CFF3E031DC6
:103C24000D2E0130A002031D182E192EF42D21088B
:103C340003191D2E1E2E232EA209A309A20A03195D
:103C4400A30A2308F8002208F700080003108312CF
:103C54000313530D540DD5005508DB005B08031DF9
:103C6400342E352E3E2E0030D4000030D3000030E8
:103C7400D2000030D100A32E5108D5005208D6003E
:103C84005308D7005408D8001F300310D80CD70CA1
:103C9400D60CD50CFF3E031D472E5508D9005908F4
:103CA400DA00D317FF30D105FF30D205FF30D3053A
:103CB4000030D4059630DB02DB1F612E622E7C2E91
:103CC4005B08803A973E0318682E692E6A2E352EBB
:103CD40001300310D40CD30CD20CD10CFF3E031DC5
:103CE4006B2E0130D5005508DB07031D7A2E7B2E81
:103CF4006A2E932E20305B02031C812E822E8E2E80
:103D0400352E0130D5000310D10DD20DD30DD40DB5
:103D1400D50B852E0130DB025B08031D922E932EFA
:103D2400832E5A080319972E982EA32ED109D2094F
:103D3400D309D409D10A0319D20A0319D30A0319DE
:103D4400D40A080000307005F80000307105F9004D
:103D540080307205FA007F307305FB007B087A041B
:103D640079047804031DB72EB82EC02E0030F3005A
:103D74000030F2000030F1000030F0000030740533
:103D8400F80000307505F90080307605FA007F30C0
:103D94007705FB007B087A0479047804031DD32E8D
:103DA400D42EDC2E0030F7000030F6000030F50091
:103DB4000030F400F31FDF2EE02E042F0030F80053
:103DC4000030F9000030FA008030FB007008F8027F
:103DD4007108031C710FEF2EF02EF9027208031CF8
:103DE400720FF52EF62EFA027308031C730FFB2EC6
:103DF400FC2EFB027B08F3007A08F2007908F1003C
:103E04007808F000F71F072F082F2C2F0030F80038
:103E14000030F9000030FA008030FB007408F8022A
:103E24007508031C750F172F182FF9027608031C49
:103E3400760F1D2F1E2FFA027708031C770F232FEE
:103E4400242FFB027B08F7007A08F6007908F500B6
:103E54007808F4008030F3068030F70677087302A0
:103E6400031D3E2F76087202031D3E2F7508710252
:103E7400031D3E2F740870020318412F422F442F54
:103E84000310452F03140800F800780803194B2F7A
:103E94004C2F602FF31F4F2F502F602F7009FA0003
:103EA4007109FB007209FC007309FD00FA0A031989
:103EB400FB0A0319FC0A0319FD0A682F7308FD00A5
:103EC4007208FC007108FB007008FA0073087204A1
:103ED40071047004031D6F2F702F792F0030F300CD
:103EE4000030F2000030F1000030F000FF2F963077
:103EF400F4007408F9008B2F0130F4007408F907FA
:103F040001300310FD0CFC0CFB0CFA0CFF3E031DEE
:103F1400832FFE307D05031D902F912F7E2FAD2F13
:103F24000130F4007408F9070130FA07003003186F
:103F34000130FB07003003180130FC070030031880
:103F44000130FD0701300310FD0CFC0CFB0CFA0CD6
:103F5400FF3E031DA52FFF307D05031DB22FB32F98
:103F6400922FBF2F0130F9020130F4000310FA0D33
:103F7400FB0DFC0DFD0DF40BB82FFC1BC22FC32F42
:103F8400C92F023079020318C82FC92FB42F79180A
:103F9400CC2FCD2FD52FFF30FA05FF30FB057F3016
:103FA400FC05FF30FD050310F90C7908F400F50158
:103FB400F601F70118300310F40DF50DF60DF70DA9
:103FC400FF3E031DDD2F7408FA047508FB04760810
:103FD400FC047708FD0478080319F12FF22FF72F5A
:103FE400F31FF52FF62FF72FFD177D08F3007C083C
:0C3FF400F2007B08F1007A08F0000800E1
:04400E00D420FF3F7C
:00000001FF
